{"contracts/Compusophlets.sol":{"Compusophlets":{"abi":[{"inputs":[{"internalType":"address","name":"_trustedSigner","type":"address"},{"internalType":"address","name":"_feeRecipient","type":"address"}],"stateMutability":"nonpayable","type":"constructor"},{"inputs":[],"name":"AlreadyCollected","type":"error"},{"inputs":[],"name":"AlreadyCreated","type":"error"},{"inputs":[],"name":"ECDSAInvalidSignature","type":"error"},{"inputs":[{"internalType":"uint256","name":"length","type":"uint256"}],"name":"ECDSAInvalidSignatureLength","type":"error"},{"inputs":[{"internalType":"bytes32","name":"s","type":"bytes32"}],"name":"ECDSAInvalidSignatureS","type":"error"},{"inputs":[{"internalType":"address","name":"sender","type":"address"},{"internalType":"uint256","name":"balance","type":"uint256"},{"internalType":"uint256","name":"needed","type":"uint256"},{"internalType":"uint256","name":"tokenId","type":"uint256"}],"name":"ERC1155InsufficientBalance","type":"error"},{"inputs":[{"internalType":"address","name":"approver","type":"address"}],"name":"ERC1155InvalidApprover","type":"error"},{"inputs":[{"internalType":"uint256","name":"idsLength","type":"uint256"},{"internalType":"uint256","name":"valuesLength","type":"uint256"}],"name":"ERC1155InvalidArrayLength","type":"error"},{"inputs":[{"internalType":"address","name":"operator","type":"address"}],"name":"ERC1155InvalidOperator","type":"error"},{"inputs":[{"internalType":"address","name":"receiver","type":"address"}],"name":"ERC1155InvalidReceiver","type":"error"},{"inputs":[{"internalType":"address","name":"sender","type":"address"}],"name":"ERC1155InvalidSender","type":"error"},{"inputs":[{"internalType":"address","name":"operator","type":"address"},{"internalType":"address","name":"owner","type":"address"}],"name":"ERC1155MissingApprovalForAll","type":"error"},{"inputs":[],"name":"EnforcedPause","type":"error"},{"inputs":[],"name":"ExpectedPause","type":"error"},{"inputs":[],"name":"InsufficientFee","type":"error"},{"inputs":[],"name":"InvalidShortString","type":"error"},{"inputs":[],"name":"InvalidSignature","type":"error"},{"inputs":[{"internalType":"address","name":"owner","type":"address"}],"name":"OwnableInvalidOwner","type":"error"},{"inputs":[{"internalType":"address","name":"account","type":"address"}],"name":"OwnableUnauthorizedAccount","type":"error"},{"inputs":[],"name":"SignatureExpired","type":"error"},{"inputs":[{"internalType":"string","name":"str","type":"string"}],"name":"StringTooLong","type":"error"},{"inputs":[],"name":"TokenNotCreated","type":"error"},{"inputs":[],"name":"WithdrawFailed","type":"error"},{"inputs":[],"name":"ZeroAddress","type":"error"},{"anonymous":false,"inputs":[{"indexed":true,"internalType":"address","name":"account","type":"address"},{"indexed":true,"internalType":"address","name":"operator","type":"address"},{"indexed":false,"internalType":"bool","name":"approved","type":"bool"}],"name":"ApprovalForAll","type":"event"},{"anonymous":false,"inputs":[{"indexed":true,"internalType":"uint256","name":"tokenId","type":"uint256"},{"indexed":true,"internalType":"address","name":"collector","type":"address"},{"indexed":false,"internalType":"uint256","name":"amount","type":"uint256"}],"name":"CompusophletCollected","type":"event"},{"anonymous":false,"inputs":[{"indexed":true,"internalType":"uint256","name":"tokenId","type":"uint256"},{"indexed":true,"internalType":"address","name":"creator","type":"address"},{"indexed":false,"internalType":"string","name":"uri","type":"string"}],"name":"CompusophletCreated","type":"event"},{"anonymous":false,"inputs":[],"name":"EIP712DomainChanged","type":"event"},{"anonymous":false,"inputs":[{"indexed":false,"internalType":"address","name":"oldRecipient","type":"address"},{"indexed":false,"internalType":"address","name":"newRecipient","type":"address"}],"name":"FeeRecipientUpdated","type":"event"},{"anonymous":false,"inputs":[{"indexed":false,"internalType":"address","name":"to","type":"address"},{"indexed":false,"internalType":"uint256","name":"amount","type":"uint256"}],"name":"FeesWithdrawn","type":"event"},{"anonymous":false,"inputs":[{"indexed":false,"internalType":"uint256","name":"oldFee","type":"uint256"},{"indexed":false,"internalType":"uint256","name":"newFee","type":"uint256"}],"name":"MintFeeUpdated","type":"event"},{"anonymous":false,"inputs":[{"indexed":true,"internalType":"address","name":"previousOwner","type":"address"},{"indexed":true,"internalType":"address","name":"newOwner","type":"address"}],"name":"OwnershipTransferred","type":"event"},{"anonymous":false,"inputs":[{"indexed":false,"internalType":"address","name":"account","type":"address"}],"name":"Paused","type":"event"},{"anonymous":false,"inputs":[{"indexed":true,"internalType":"address","name":"operator","type":"address"},{"indexed":true,"internalType":"address","name":"from","type":"address"},{"indexed":true,"internalType":"address","name":"to","type":"address"},{"indexed":false,"internalType":"uint256[]","name":"ids","type":"uint256[]"},{"indexed":false,"internalType":"uint256[]","name":"values","type":"uint256[]"}],"name":"TransferBatch","type":"event"},{"anonymous":false,"inputs":[{"indexed":true,"internalType":"address","name":"operator","type":"address"},{"indexed":true,"internalType":"address","name":"from","type":"address"},{"indexed":true,"internalType":"address","name":"to","type":"address"},{"indexed":false,"internalType":"uint256","name":"id","type":"uint256"},{"indexed":false,"internalType":"uint256","name":"value","type":"uint256"}],"name":"TransferSingle","type":"event"},{"anonymous":false,"inputs":[{"indexed":false,"internalType":"address","name":"oldSigner","type":"address"},{"indexed":false,"internalType":"address","name":"newSigner","type":"address"}],"name":"TrustedSignerUpdated","type":"event"},{"anonymous":false,"inputs":[{"indexed":false,"internalType":"string","name":"value","type":"string"},{"indexed":true,"internalType":"uint256","name":"id","type":"uint256"}],"name":"URI","type":"event"},{"anonymous":false,"inputs":[{"indexed":false,"internalType":"address","name":"account","type":"address"}],"name":"Unpaused","type":"event"},{"inputs":[],"name":"MINT_TYPEHASH","outputs":[{"internalType":"bytes32","name":"","type":"bytes32"}],"stateMutability":"view","type":"function"},{"inputs":[],"name":"NAME","outputs":[{"internalType":"string","name":"","type":"string"}],"stateMutability":"view","type":"function"},{"inputs":[],"name":"VERSION","outputs":[{"internalType":"string","name":"","type":"string"}],"stateMutability":"view","type":"function"},{"inputs":[{"internalType":"address","name":"account","type":"address"},{"internalType":"uint256","name":"id","type":"uint256"}],"name":"balanceOf","outputs":[{"internalType":"uint256","name":"","type":"uint256"}],"stateMutability":"view","type":"function"},{"inputs":[{"internalType":"address[]","name":"accounts","type":"address[]"},{"internalType":"uint256[]","name":"ids","type":"uint256[]"}],"name":"balanceOfBatch","outputs":[{"internalType":"uint256[]","name":"","type":"uint256[]"}],"stateMutability":"view","type":"function"},{"inputs":[{"internalType":"address","name":"","type":"address"}],"name":"creatorTokenId","outputs":[{"internalType":"uint256","name":"","type":"uint256"}],"stateMutability":"view","type":"function"},{"inputs":[],"name":"domainSeparator","outputs":[{"internalType":"bytes32","name":"","type":"bytes32"}],"stateMutability":"view","type":"function"},{"inputs":[],"name":"eip712Domain","outputs":[{"internalType":"bytes1","name":"fields","type":"bytes1"},{"internalType":"string","name":"name","type":"string"},{"internalType":"string","name":"version","type":"string"},{"internalType":"uint256","name":"chainId","type":"uint256"},{"internalType":"address","name":"verifyingContract","type":"address"},{"internalType":"bytes32","name":"salt","type":"bytes32"},{"internalType":"uint256[]","name":"extensions","type":"uint256[]"}],"stateMutability":"view","type":"function"},{"inputs":[{"internalType":"uint256","name":"id","type":"uint256"}],"name":"exists","outputs":[{"internalType":"bool","name":"","type":"bool"}],"stateMutability":"view","type":"function"},{"inputs":[],"name":"feeRecipient","outputs":[{"internalType":"address","name":"","type":"address"}],"stateMutability":"view","type":"function"},{"inputs":[],"name":"getNextTokenId","outputs":[{"internalType":"uint256","name":"","type":"uint256"}],"stateMutability":"view","type":"function"},{"inputs":[{"internalType":"uint256","name":"","type":"uint256"},{"internalType":"address","name":"","type":"address"}],"name":"hasCollected","outputs":[{"internalType":"bool","name":"","type":"bool"}],"stateMutability":"view","type":"function"},{"inputs":[{"internalType":"address","name":"account","type":"address"}],"name":"hasCreated","outputs":[{"internalType":"bool","name":"","type":"bool"}],"stateMutability":"view","type":"function"},{"inputs":[{"internalType":"address","name":"account","type":"address"},{"internalType":"address","name":"operator","type":"address"}],"name":"isApprovedForAll","outputs":[{"internalType":"bool","name":"","type":"bool"}],"stateMutability":"view","type":"function"},{"inputs":[],"name":"mintFee","outputs":[{"internalType":"uint256","name":"","type":"uint256"}],"stateMutability":"view","type":"function"},{"inputs":[{"internalType":"uint256","name":"tokenId","type":"uint256"},{"internalType":"string","name":"_uri","type":"string"},{"internalType":"uint256","name":"amount","type":"uint256"},{"internalType":"uint256","name":"deadline","type":"uint256"},{"internalType":"bytes","name":"signature","type":"bytes"}],"name":"mintWithSignature","outputs":[],"stateMutability":"payable","type":"function"},{"inputs":[],"name":"name","outputs":[{"internalType":"string","name":"","type":"string"}],"stateMutability":"view","type":"function"},{"inputs":[{"internalType":"address","name":"","type":"address"}],"name":"nonces","outputs":[{"internalType":"uint256","name":"","type":"uint256"}],"stateMutability":"view","type":"function"},{"inputs":[],"name":"owner","outputs":[{"internalType":"address","name":"","type":"address"}],"stateMutability":"view","type":"function"},{"inputs":[],"name":"pause","outputs":[],"stateMutability":"nonpayable","type":"function"},{"inputs":[],"name":"paused","outputs":[{"internalType":"bool","name":"","type":"bool"}],"stateMutability":"view","type":"function"},{"inputs":[],"name":"renounceOwnership","outputs":[],"stateMutability":"nonpayable","type":"function"},{"inputs":[{"internalType":"address","name":"from","type":"address"},{"internalType":"address","name":"to","type":"address"},{"internalType":"uint256[]","name":"ids","type":"uint256[]"},{"internalType":"uint256[]","name":"values","type":"uint256[]"},{"internalType":"bytes","name":"data","type":"bytes"}],"name":"safeBatchTransferFrom","outputs":[],"stateMutability":"nonpayable","type":"function"},{"inputs":[{"internalType":"address","name":"from","type":"address"},{"internalType":"address","name":"to","type":"address"},{"internalType":"uint256","name":"id","type":"uint256"},{"internalType":"uint256","name":"value","type":"uint256"},{"internalType":"bytes","name":"data","type":"bytes"}],"name":"safeTransferFrom","outputs":[],"stateMutability":"nonpayable","type":"function"},{"inputs":[{"internalType":"address","name":"operator","type":"address"},{"internalType":"bool","name":"approved","type":"bool"}],"name":"setApprovalForAll","outputs":[],"stateMutability":"nonpayable","type":"function"},{"inputs":[{"internalType":"address","name":"_recipient","type":"address"}],"name":"setFeeRecipient","outputs":[],"stateMutability":"nonpayable","type":"function"},{"inputs":[{"internalType":"uint256","name":"_fee","type":"uint256"}],"name":"setMintFee","outputs":[],"stateMutability":"nonpayable","type":"function"},{"inputs":[{"internalType":"uint256","name":"tokenId","type":"uint256"},{"internalType":"string","name":"_uri","type":"string"}],"name":"setTokenURI","outputs":[],"stateMutability":"nonpayable","type":"function"},{"inputs":[{"internalType":"uint256[]","name":"tokenIds","type":"uint256[]"},{"internalType":"string[]","name":"uris","type":"string[]"}],"name":"setTokenURIBatch","outputs":[],"stateMutability":"nonpayable","type":"function"},{"inputs":[{"internalType":"address","name":"_signer","type":"address"}],"name":"setTrustedSigner","outputs":[],"stateMutability":"nonpayable","type":"function"},{"inputs":[{"internalType":"bytes4","name":"interfaceId","type":"bytes4"}],"name":"supportsInterface","outputs":[{"internalType":"bool","name":"","type":"bool"}],"stateMutability":"view","type":"function"},{"inputs":[],"name":"symbol","outputs":[{"internalType":"string","name":"","type":"string"}],"stateMutability":"view","type":"function"},{"inputs":[{"internalType":"uint256","name":"","type":"uint256"}],"name":"tokenCreators","outputs":[{"internalType":"address","name":"","type":"address"}],"stateMutability":"view","type":"function"},{"inputs":[{"internalType":"uint256","name":"","type":"uint256"}],"name":"tokenURIs","outputs":[{"internalType":"string","name":"","type":"string"}],"stateMutability":"view","type":"function"},{"inputs":[],"name":"totalSupply","outputs":[{"internalType":"uint256","name":"","type":"uint256"}],"stateMutability":"view","type":"function"},{"inputs":[{"internalType":"uint256","name":"id","type":"uint256"}],"name":"totalSupply","outputs":[{"internalType":"uint256","name":"","type":"uint256"}],"stateMutability":"view","type":"function"},{"inputs":[{"internalType":"address","name":"newOwner","type":"address"}],"name":"transferOwnership","outputs":[],"stateMutability":"nonpayable","type":"function"},{"inputs":[],"name":"trustedSigner","outputs":[{"internalType":"address","name":"","type":"address"}],"stateMutability":"view","type":"function"},{"inputs":[],"name":"unpause","outputs":[],"stateMutability":"nonpayable","type":"function"},{"inputs":[{"internalType":"uint256","name":"tokenId","type":"uint256"}],"name":"uri","outputs":[{"internalType":"string","name":"","type":"string"}],"stateMutability":"view","type":"function"},{"inputs":[],"name":"withdrawFees","outputs":[],"stateMutability":"nonpayable","type":"function"}],"evm":{"bytecode":{"linkReferences":{},"object":"610160346200030857620032f8906001600160401b0390601f38849003908101601f191682019083821183831017620002f257808391604096879485528339810103126200030857620000528162000329565b9262000062602080930162000329565b9281519262000071846200030d565b600d8452808401946c436f6d7075736f70686c65747360981b86528351906200009a826200030d565b6001976001835283830192603160f81b8452865199858b018b811088821117620002f25788526000809b52600254600181811c91168015620002e7575b87821014620002d357601f8111620002a7575b50508960025533156200028f57600580546001600160a01b031980821633908117909355966001600160a01b03969092909187167f8be0079c531659141344cd1fd0a4f28419497f9722a3daafe3b4186f6b6457e08e80a36200014d8a6200033e565b9a6101209b8c526200015f846200051b565b9a6101409b8c52519020928360e0525190209a6101009b808d524660a0528951928301937f8b73c3c69bb8fe3d512ecc4cf759cc79239f7b179b0ffacaa9a75d522b39400f85528a84015260608301524660808301523060a083015260a0825260c0820197828910908911176200027b57508688525190206080523060c052660110d9316ec00060095582169384156200026c5750169182156200025b57816008541617600855600a541617600a556001600b555191612c249384620006d48539608051846120c3015260a0518461217e015260c0518461208d015260e051846121120152518361213801525182611024015251816110500152f35b835163d92e233d60e01b8152600490fd5b63d92e233d60e01b8152600490fd5b634e487b7160e01b81526041600452602490fd5b8651631e4fbdf760e01b8152600481018b9052602490fd5b60028c52601f878d20910160051c8101905b818110620002c85750620000ea565b8c81558201620002b9565b634e487b7160e01b8c52602260045260248cfd5b90607f1690620000d7565b634e487b7160e01b600052604160045260246000fd5b600080fd5b604081019081106001600160401b03821117620002f257604052565b51906001600160a01b03821682036200030857565b805160209081811015620003db5750601f8251116200037a57808251920151908083106200036b57501790565b82600019910360031b1b161790565b90604051809263305a27a960e01b82528060048301528251908160248401526000935b828510620003c1575050604492506000838284010152601f80199101168101030190fd5b84810182015186860160440152938101938593506200039d565b906001600160401b038211620002f257600654926001938481811c9116801562000510575b83821014620004fa57601f8111620004c0575b5081601f841160011462000454575092829391839260009462000448575b50501b916000199060031b1c19161760065560ff90565b01519250388062000431565b919083601f198116600660005284600020946000905b88838310620004a557505050106200048b575b505050811b0160065560ff90565b015160001960f88460031b161c191690553880806200047d565b8587015188559096019594850194879350908101906200046a565b600660005284601f84600020920160051c820191601f860160051c015b828110620004ed57505062000413565b60008155018590620004dd565b634e487b7160e01b600052602260045260246000fd5b90607f169062000400565b805160209081811015620005a95750601f8251116200054857808251920151908083106200036b57501790565b90604051809263305a27a960e01b82528060048301528251908160248401526000935b8285106200058f575050604492506000838284010152601f80199101168101030190fd5b84810182015186860160440152938101938593506200056b565b906001600160401b038211620002f257600754926001938481811c91168015620006c8575b83821014620004fa57601f81116200068e575b5081601f841160011462000622575092829391839260009462000616575b50501b916000199060031b1c19161760075560ff90565b015192503880620005ff565b919083601f198116600760005284600020946000905b8883831062000673575050501062000659575b505050811b0160075560ff90565b015160001960f88460031b161c191690553880806200064b565b85870151885590960195948501948793509081019062000638565b600760005284601f84600020920160051c820191601f860160051c015b828110620006bb575050620005e1565b60008155018590620006ab565b90607f1690620005ce56fe6080604052600436101561001257600080fd5b60003560e01c8062fdd58e146102a657806301ffc9a7146102a157806306fdde031461029c5780630e89341c1461029757806313966db514610292578063162094c41461028d57806318160ddd146102885780632eb2c2d6146102835780633f4ba83a1461027e5780634690484014610279578063476343ee146102745780634bb993511461026f5780634e1273f41461026a5780634f558e791461026557806356a1c701146102605780635c975abb1461025b5780635cd21bd6146102565780636c8b703f14610251578063715018a61461024c5780637ecebe00146102475780638456cb591461024257806384b0196e1461023d578063859496e1146102385780638da5cb5b1461023357806395d89b411461022e578063a22cb46514610229578063a3f4df7e14610224578063af15c0511461021f578063bd85b0391461021a578063c3a663aa14610215578063caa0f92a14610210578063e0fd045f1461020b578063e74b981b14610206578063e985e9c514610201578063eddd0d9c146101fc578063f242432a146101f7578063f2fde38b146101f2578063f698da25146101ed578063f74d5480146101e8578063f76fc35e146101e35763ffa1ad74146101de57600080fd5b611a8f565b611a54565b611a2b565b611a08565b61197a565b61185d565b6117fd565b6117ac565b61171d565b6116e9565b6116cb565b611679565b61164d565b611613565b6115c5565b611509565b6114c4565b61149b565b6110cd565b61100b565b610fa9565b610f6f565b610f11565b610ed4565b610dc8565b610da2565b610d00565b610cd2565b610c18565b610a89565b6109d0565b6109a7565b610935565b61080d565b610723565b610588565b61053d565b61050a565b6104b8565b61034f565b6102f0565b600435906001600160a01b03821682036102c157565b600080fd5b602435906001600160a01b03821682036102c157565b35906001600160a01b03821682036102c157565b346102c15760403660031901126102c157602061033461030e6102ab565b6024356000526000835260406000209060018060a01b0316600052602052604060002090565b54604051908152f35b6001600160e01b03198116036102c157565b346102c15760203660031901126102c157602060043561036e8161033d565b63ffffffff60e01b16636cdb3d1360e11b81149081156103ac575b811561039b575b506040519015158152f35b6301ffc9a760e01b14905038610390565b6303a24d0760e21b81149150610389565b634e487b7160e01b600052604160045260246000fd5b602081019081106001600160401b038211176103ee57604052565b6103bd565b604081019081106001600160401b038211176103ee57604052565b60c081019081106001600160401b038211176103ee57604052565b90601f801991011681019081106001600160401b038211176103ee57604052565b6001600160401b0381116103ee57601f01601f191660200190565b60405190610472826103d3565b60008252565b919082519283825260005b8481106104a4575050826000602080949584010152601f8019910116010190565b602081830181015184830182015201610483565b346102c15760003660031901126102c1576105066040516104d8816103f3565b600d81526c636f6d7075736f70686c65747360981b6020820152604051918291602083526020830190610478565b0390f35b346102c15760203660031901126102c157610506610529600435611ad1565b604051918291602083526020830190610478565b346102c15760003660031901126102c1576020600954604051908152f35b9181601f840112156102c1578235916001600160401b0383116102c157602083818601950101116102c157565b346102c15760403660031901126102c1576001600160401b036004356024358281116102c1576105bc90369060040161055b565b6105c7929192611f25565b600092828452602094600c60205260018060a01b036040862054161561071157838552600d602052604085209083116103ee5761060e836106088354610e04565b83611bbf565b8495601f84116001146106835750610660838087987f6bb7ff708619ba0610cba295a58592e0451dee2622938c8755667688daf3529b979891610678575b508160011b916000199060031b1c19161790565b90555b61067260405192839283611ce3565b0390a280f35b90508401353861064c565b601f1984169661069883600052602060002090565b9187905b8982106106f9575050847f6bb7ff708619ba0610cba295a58592e0451dee2622938c8755667688daf3529b969798106106df575b5050600183811b019055610663565b830135600019600386901b60f8161c1916905538806106d0565b8060018495829495890135815501940192019061069c565b604051632ce0136b60e01b8152600490fd5b346102c15760003660031901126102c1576020600454604051908152f35b6001600160401b0381116103ee5760051b60200190565b9080601f830112156102c157602090823561077281610741565b936107806040519586610429565b81855260208086019260051b8201019283116102c157602001905b8282106107a9575050505090565b8135815290830190830161079b565b9291926107c48261044a565b916107d26040519384610429565b8294818452818301116102c1578281602093846000960137010152565b9080601f830112156102c15781602061080a933591016107b8565b90565b346102c15760a03660031901126102c1576108266102ab565b61082e6102c6565b90604435916001600160401b03908184116102c15761085260049436908601610758565b906064358381116102c15761086a9036908701610758565b926084359081116102c15761088290369087016107ef565b936001600160a01b03808216903382141580610911575b6108e4578316156108cc57156108b5576108b395506121a4565b005b604051626a0d4560e21b8152600081880152602490fd5b604051632bfa23e760e11b8152600081890152602490fd5b6040805163711bec9160e11b815233818b019081526001600160a01b038616602082015290918291010390fd5b50600082815260016020908152604080832033845290915290205460ff1615610899565b346102c15760003660031901126102c15761094e611f25565b60055460ff8160a01c16156109955760ff60a01b19166005556040513381527f5db9ee0a495bf2e6ff9c91a7834c1ba4fdd244a5e8aa4e537bd38aeae4b073aa90602090a1005b604051638dfc202b60e01b8152600490fd5b346102c15760003660031901126102c157600a546040516001600160a01b039091168152602090f35b346102c157600080600319360112610a56576109ea611f25565b4760018060a01b03828080808585600554165af1610a06611d0b565b5015610a44577fc0819c13be868895eb93e40eaceb96de976442fa1d404e5c55f14bb65a8c489a91604091600554169082519182526020820152a180f35b604051631d42c86760e21b8152600490fd5b80fd5b9181601f840112156102c1578235916001600160401b0383116102c1576020808501948460051b0101116102c157565b346102c1576040806003193601126102c15760048035916001600160401b03928381116102c157610abe903690600401610a59565b936024359081116102c157610ad7903690600401610a59565b90610ae0611f25565b610aeb828714611d3b565b60005b868110610af757005b610b35610b29610b1c610b0b848b89611d8f565b35600052600c602052604060002090565b546001600160a01b031690565b6001600160a01b031690565b15610bc35780610b70610b4b6001938686611da4565b90610b6b610b5a858d8b611d8f565b35600052600d602052604060002090565b611c15565b7f6bb7ff708619ba0610cba295a58592e0451dee2622938c8755667688daf3529b610b9c828686611da4565b610baa848c8a959495611d8f565b3592610bba8a5192839283611ce3565b0390a201610aee565b8451632ce0136b60e01b81528690fd5b90815180825260208080930193019160005b828110610bf3575050505090565b835185529381019392810192600101610be5565b90602061080a928181520190610bd3565b346102c15760403660031901126102c1576004356001600160401b038082116102c157366023830112156102c1578160040135610c5481610741565b92610c626040519485610429565b8184526020916024602086019160051b830101913683116102c157602401905b828210610cbb57856024358681116102c15761050691610ca9610caf923690600401610758565b90611e43565b60405191829182610c07565b838091610cc7846102dc565b815201910190610c82565b346102c15760203660031901126102c157600435600052600360205260206040600020541515604051908152f35b346102c15760203660031901126102c157610d196102ab565b610d21611f25565b6001600160a01b038181168015610d9057600880546001600160a01b031981169092179055604080516001600160a01b0393909216831682529190921660208301527f4a297cf5d32586f80d2b0708a39d2da1f46e6ae7722171e1c51dfd685b5b8aa89190819081015b0390a1005b60405163d92e233d60e01b8152600490fd5b346102c15760003660031901126102c157602060ff60055460a01c166040519015158152f35b346102c15760203660031901126102c1576001600160a01b03610de96102ab565b16600052600e60205260206040600020541515604051908152f35b90600182811c92168015610e34575b6020831014610e1e57565b634e487b7160e01b600052602260045260246000fd5b91607f1691610e13565b805460009392610e4d82610e04565b91828252602093600191600181169081600014610eb55750600114610e74575b5050505050565b90939495506000929192528360002092846000945b838610610ea157505050500101903880808080610e6d565b805485870183015294019385908201610e89565b60ff19168685015250505090151560051b010191503880808080610e6d565b346102c15760203660031901126102c157600435600052600d602052610506610f0a610529604060002060405192838092610e3e565b0382610429565b346102c157600080600319360112610a5657610f2b611f25565b600580546001600160a01b0319811690915581906001600160a01b03167f8be0079c531659141344cd1fd0a4f28419497f9722a3daafe3b4186f6b6457e08280a380f35b346102c15760203660031901126102c1576001600160a01b03610f906102ab565b16600052600f6020526020604060002054604051908152f35b346102c15760003660031901126102c157610fc2611f25565b610fca611f51565b6005805460ff60a01b1916600160a01b1790556040513381527f62e78cea01bee320cd4e420270b5ea74000d11b0c9f74754ebdbfc544b05a25890602090a1005b346102c15760003660031901126102c15761109e6110487f00000000000000000000000000000000000000000000000000000000000000006122d6565b6105066110747f00000000000000000000000000000000000000000000000000000000000000006123d6565b6110ac61107f611de5565b91604051958695600f60f81b875260e0602088015260e0870190610478565b908582036040870152610478565b90466060850152306080850152600060a085015283820360c0850152610bd3565b60a03660031901126102c15760046001600160401b0381356024358281116102c1576110fc903690850161055b565b9260443593606435916084359081116102c15761111c903690880161055b565b611127939193611f51565b600954341061148b5781421161147a57336000908152600f60205260409020549161115183611ef6565b336000908152600f602052604090205586159485156113ec57336000908152600e60205260409020546113db5786600b54988a61118d8b611f16565b600b5561122761123d97611219611237976111ae61122f975b8d36916107b8565b60208151910120926040519586946020860198338a9260c094919796959260e08501987fec542ae32c64d840ee3f8839bd7e51048005316e81a9044aaf547ef82a3ea260865260018060a01b0316602086015260408501526060840152608083015260a08201520152565b03601f198101835282610429565b519020611f72565b9236916107b8565b90611f98565b600854611252906001600160a01b0316610b29565b6001600160a01b03909116036113ca57839161132a575b5050506112ab61129e33611287846000526010602052604060002090565b9060018060a01b0316600052602052604060002090565b805460ff19166001179055565b6112be6112b6610465565b838333611fae565b60405191825233917fde9a65531d1d6233045d2f3cac5d81c03948bdef576b6240ff3b4a64064774be90602090a3600080808034611309610b29610b29600a5460018060a01b031690565b5af1611313611d0b565b501561131b57005b604051631d42c86760e21b8152fd5b6113bf7f0b32aabe5102fd42cf5c1bda2cb26a392ad451295b602b3d36fdb64dda4f20ae916113863361136786600052600c602052604060002090565b80546001600160a01b0319166001600160a01b03909216919091179055565b61139f8186610b6b87600052600d602052604060002090565b336000908152600e60205260409020849055604051918291339683611ce3565b0390a3388181611269565b604051638baa579f60e01b81528690fd5b604051631ac1050b60e21b81528a90fd5b6000888152600c60205260409020889492906001600160a01b039061141090610b1c565b16156114695761143861143133611287886000526010602052604060002090565b5460ff1690565b6114585761123d948a6112276112379561121961122f956111ae8e6111a6565b604051632340e67360e21b81528b90fd5b604051632ce0136b60e01b81528b90fd5b604051630819bdcd60e01b81528890fd5b60405162976f7560e21b81528890fd5b346102c15760003660031901126102c1576005546040516001600160a01b039091168152602090f35b346102c15760003660031901126102c1576105066040516114e4816103f3565b6004815263434d505360e01b6020820152604051918291602083526020830190610478565b346102c15760403660031901126102c1576115226102ab565b60243590811515908183036102c1576001600160a01b0381169283156115ad5761156e61157f9233600052600160205260406000209060018060a01b0316600052602052604060002090565b9060ff801983541691151516179055565b6040519081527f17307eab39ab6107e8899845ad3d59bd9653f200f220920489ca2b5937696c3160203392a3005b60405162ced3e160e81b815260006004820152602490fd5b346102c15760003660031901126102c1576105066040516115e5816103f3565b600d81526c436f6d7075736f70686c65747360981b6020820152604051918291602083526020830190610478565b346102c15760203660031901126102c1576001600160a01b036116346102ab565b16600052600e6020526020604060002054604051908152f35b346102c15760203660031901126102c15760043560005260036020526020604060002054604051908152f35b346102c15760403660031901126102c157602060ff6116bf6116996102c6565b6004356000526010845260406000209060018060a01b0316600052602052604060002090565b54166040519015158152f35b346102c15760003660031901126102c1576020600b54604051908152f35b346102c15760203660031901126102c157600435600052600c602052602060018060a01b0360406000205416604051908152f35b346102c15760203660031901126102c1576117366102ab565b61173e611f25565b6001600160a01b038181168015610d9057600a80546001600160a01b031981169092179055604080516001600160a01b0393909216831682529190921660208301527faaebcf1bfa00580e41d966056b48521fa9f202645c86d4ddf28113e617c1b1d3919081908101610d8b565b346102c15760403660031901126102c157602060ff6116bf6117cc6102ab565b6117d46102c6565b6001600160a01b0391821660009081526001865260408082209290931681526020919091522090565b346102c15760203660031901126102c1577f7864bf708cae822050e5f50960a0de31bd6fe7620a8f67a48582fb95f29c114a60043561183a611f25565b60095481600955610d8b6040519283928360209093929193604081019481520152565b346102c15760a03660031901126102c1576118766102ab565b61187e6102c6565b6084356001600160401b0381116102c15761189d9036906004016107ef565b906001600160a01b03838116903382141580611956575b61192f5782161561191657156118fe576108b3926118f66064356044359160405192600184526020840152604083019160018352606084015260808301604052565b9290916121a4565b604051626a0d4560e21b815260006004820152602490fd5b604051632bfa23e760e11b815260006004820152602490fd5b60405163711bec9160e11b81523360048201526001600160a01b0386166024820152604490fd5b50600082815260016020908152604080832033845290915290205460ff16156118b4565b346102c15760203660031901126102c1576119936102ab565b61199b611f25565b6001600160a01b039081169081156119ef57600554826bffffffffffffffffffffffff60a01b821617600555167f8be0079c531659141344cd1fd0a4f28419497f9722a3daafe3b4186f6b6457e0600080a3005b604051631e4fbdf760e01b815260006004820152602490fd5b346102c15760003660031901126102c1576020611a2361208a565b604051908152f35b346102c15760003660031901126102c1576008546040516001600160a01b039091168152602090f35b346102c15760003660031901126102c15760206040517fec542ae32c64d840ee3f8839bd7e51048005316e81a9044aaf547ef82a3ea2608152f35b346102c15760003660031901126102c157610506604051611aaf816103f3565b60018152603160f81b6020820152604051918291602083526020830190610478565b600052611af16020600d8152611af8604060002060405193848092610e3e565b0383610429565b815115611b03575090565b905060405190816000600254611b1881610e04565b80845290600190818116908115611b9f5750600114611b40575b505061080a92500382610429565b9093915060026000527f405787fa12a823e0f2b7631cc41b3ba8828b3321ca811111fa75cd3aa3bb5ace936000915b818310611b8757505061080a93508201013880611b32565b85548784018501529485019486945091830191611b6f565b91505061080a94925060ff191682840152151560051b8201013880611b32565b90601f8111611bcd57505050565b6000916000526020600020906020601f850160051c83019410611c0b575b601f0160051c01915b828110611c0057505050565b818155600101611bf4565b9092508290611beb565b9092916001600160401b0381116103ee57611c3a81611c348454610e04565b84611bbf565b6000601f8211600114611c7b578190611c6c939495600092611c70575b50508160011b916000199060031b1c19161790565b9055565b013590503880611c57565b601f19821694611c9084600052602060002090565b91805b878110611ccb575083600195969710611cb1575b505050811b019055565b0135600019600384901b60f8161c19169055388080611ca7565b90926020600181928686013581550194019101611c93565b90918060409360208452816020850152848401376000828201840152601f01601f1916010190565b3d15611d36573d90611d1c8261044a565b91611d2a6040519384610429565b82523d6000602084013e565b606090565b15611d4257565b60405162461bcd60e51b815260206004820152600f60248201526e098cadccee8d040dad2e6dac2e8c6d608b1b6044820152606490fd5b634e487b7160e01b600052603260045260246000fd5b9190811015611d9f5760051b0190565b611d79565b9190811015611d9f5760051b81013590601e19813603018212156102c15701908135916001600160401b0383116102c15760200182360381136102c1579190565b604051611df1816103d3565b60008152906000368137565b90611e0782610741565b611e146040519182610429565b8281528092611e25601f1991610741565b0190602036910137565b8051821015611d9f5760209160051b010190565b91909180518351808203611ebe575050611e5d8151611dfd565b9060009060005b8151811015611eb65780611ea460019260051b85602080808489010151938c010151825252604086209060018060a01b0316600052602052604060002090565b54611eaf8287611e2f565b5201611e64565b509193505050565b604051635b05999160e01b815260048101919091526024810191909152604490fd5b634e487b7160e01b600052601160045260246000fd5b9060018201809211611f0457565b611ee0565b91908201809211611f0457565b6000198114611f045760010190565b6005546001600160a01b03163303611f3957565b60405163118cdaa760e01b8152336004820152602490fd5b60ff60055460a01c16611f6057565b60405163d93c066560e01b8152600490fd5b604290611f7d61208a565b906040519161190160f01b8352600283015260228201522090565b61080a91611fa591612496565b909291926124f2565b93916001600160a01b0385161561191657611fe660405192600184526020840152604083019160018352606084015260808301604052565b9091611ff382848761292c565b600094855b84518710156120465761203e6001918860051b9061202c602080848a010151938a0101516000526003602052604060002090565b612037838254611f09565b9055611f09565b960195611ff8565b61206091959492965061205b90600454611f09565b600455565b8051600103612080579060208061207e95930151910151913361280b565b565b61207e9333612611565b307f00000000000000000000000000000000000000000000000000000000000000006001600160a01b0316148061217b575b156120e5577f000000000000000000000000000000000000000000000000000000000000000090565b60405160208101907f8b73c3c69bb8fe3d512ecc4cf759cc79239f7b179b0ffacaa9a75d522b39400f82527f000000000000000000000000000000000000000000000000000000000000000060408201527f000000000000000000000000000000000000000000000000000000000000000060608201524660808201523060a082015260a081526121758161040e565b51902090565b507f000000000000000000000000000000000000000000000000000000000000000046146120bc565b919392906121b482868386612a47565b6001600160a01b0383811615612272575b81161580612211575b156121da575050505050565b8451600103612200576020806121f69601519201519233612840565b3880808080610e6d565b61220c9491923361270c565b6121f6565b94936000939091845b865186101561225a576001908660051b9061224b602080848a010151938b0101516000526003602052604060002090565b8281540390550195019461221a565b61226d9193969792955060045403600455565b6121ce565b959192600094916000955b87518710156122b9576122b16001918860051b9061202c602080848c010151938d0101516000526003602052604060002090565b96019561227d565b6122d19193965061205b909892959498600454611f09565b6121c5565b60ff81146123145760ff811690601f821161230257604051916122f8836103f3565b8252602082015290565b604051632cd44ac360e21b8152600490fd5b5060405160065481600061232783610e04565b808352926020906001908181169081156123b2575060011461235157505061080a92500382610429565b91509260066000527ff652222313e28459528d920b65115c16c04f3efc82aaedc97be59f3f377c0d3f936000925b82841061239a575061080a9450505081016020013880611b32565b8554878501830152948501948694509281019261237f565b9150506020925061080a94915060ff191682840152151560051b8201013880611b32565b60ff81146123f85760ff811690601f821161230257604051916122f8836103f3565b5060405160075481600061240b83610e04565b808352926020906001908181169081156123b2575060011461243557505061080a92500382610429565b91509260076000527fa66cc928b5edb82af9bd49922954155ab7b0942694bea4ce44661d9a8736c688936000925b82841061247e575061080a9450505081016020013880611b32565b85548785018301529485019486945092810192612463565b81519190604183036124c7576124c092506020820151906060604084015193015160001a90612877565b9192909190565b505060009160029190565b600411156124dc57565b634e487b7160e01b600052602160045260246000fd5b6124fb816124d2565b80612504575050565b61250d816124d2565b600181036125275760405163f645eedf60e01b8152600490fd5b612530816124d2565b600281036125515760405163fce698f760e01b815260048101839052602490fd5b8061255d6003926124d2565b146125655750565b6040516335e2f38360e21b81526004810191909152602490fd5b908160209103126102c1575161080a8161033d565b926125c361080a95936125d19360018060a01b031686526000602087015260a0604087015260a0860190610bd3565b908482036060860152610bd3565b916080818403910152610478565b939061080a95936125c3916125d19460018060a01b03809216885216602087015260a0604087015260a0860190610bd3565b9293919093843b612623575050505050565b602091612646604051948593849363bc197c8160e01b9889865260048601612594565b038160006001600160a01b0388165af1600091816126db575b5061269e578261266d611d0b565b805191908261269757604051632bfa23e760e11b81526001600160a01b0383166004820152602490fd5b6020915001fd5b6001600160e01b031916036126b857503880808080610e6d565b604051632bfa23e760e11b81526001600160a01b03919091166004820152602490fd5b6126fe91925060203d602011612705575b6126f68183610429565b81019061257f565b903861265f565b503d6126ec565b939290949194853b612721575b505050505050565b612744602093604051958694859463bc197c8160e01b998a8752600487016125df565b038160006001600160a01b0388165af160009181612786575b5061276b578261266d611d0b565b6001600160e01b031916036126b85750388080808080612719565b6127a091925060203d602011612705576126f68183610429565b903861275d565b909260a09261080a9594600180861b0316835260006020840152604083015260608201528160808201520190610478565b919261080a95949160a094600180871b038092168552166020840152604083015260608201528160808201520190610478565b9293919093843b61281d575050505050565b602091612646604051948593849363f23a6e6160e01b98898652600486016127a7565b939290949194853b61285457505050505050565b612744602093604051958694859463f23a6e6160e01b998a8752600487016127d8565b91907f7fffffffffffffffffffffffffffffff5d576e7357a4501ddfe92f46681b20a084116128fb57926020929160ff608095604051948552168484015260408301526060820152600092839182805260015afa156128ef5780516001600160a01b038116156128e657918190565b50809160019190565b604051903d90823e3d90fd5b50505060009160039190565b909161291e61080a93604084526040840190610bd3565b916020818403910152610bd3565b9190918251825190818103611ebe57505060005b83518110156129a757600581901b84810160209081015191850101516001929184906001600160a01b03821661297a575b50505001612940565b61299d91611287612995926000526000602052604060002090565b918254611f09565b9055388381612971565b50916001815114600014612a08576020908101519181015160408051938452918301526001600160a01b039092169160009133917fc3d58168c5ae7397731d063d5bbf3d657854427343f4c083240f7aacaa2d0f629190819081015b0390a4565b7f4a39dc06d4c0dbc64b70af90fd698a233a518aa5d07e595d983b8c0526c8f7fb612a036000939460405191829160018060a01b031696339583612907565b9392918051835190818103611ebe57505060005b8151811015612b4957600581901b82810160209081015191860101516001600160a01b0392918590898516612ac3575b6001948216612a9e575b50505001612a5b565b612ab991611287612995926000526000602052604060002090565b9055388481612a95565b9192939050612ae089611287846000526000602052604060002090565b54838110612b125791869184600196959403612b0a8c611287856000526000602052604060002090565b559450612a8b565b6040516303dee4c560e01b81526001600160a01b038b16600482015260248101919091526044810184905260648101839052608490fd5b508051939493919291600103612bab576020908101519181015160408051938452918301526001600160a01b03928316939092169133917fc3d58168c5ae7397731d063d5bbf3d657854427343f4c083240f7aacaa2d0f629181908101612a03565b6040516001600160a01b03938416949093169233927f4a39dc06d4c0dbc64b70af90fd698a233a518aa5d07e595d983b8c0526c8f7fb928291612a03918361290756fea2646970667358221220567b0f073527e76b5476367d710ee6450fc54bd1404e73cf1e8b89ad3dbb9f4b64736f6c63430008180033","opcodes":"PUSH2 0x160 CALLVALUE PUSH3 0x308 JUMPI PUSH3 0x32F8 SWAP1 PUSH1 0x1 PUSH1 0x1 PUSH1 0x40 SHL SUB SWAP1 PUSH1 0x1F CODESIZE DUP5 SWAP1 SUB SWAP1 DUP2 ADD PUSH1 0x1F NOT AND DUP3 ADD SWAP1 DUP4 DUP3 GT DUP4 DUP4 LT OR PUSH3 0x2F2 JUMPI DUP1 DUP4 SWAP2 PUSH1 0x40 SWAP7 DUP8 SWAP5 DUP6 MSTORE DUP4 CODECOPY DUP2 ADD SUB SLT PUSH3 0x308 JUMPI PUSH3 0x52 DUP2 PUSH3 0x329 JUMP JUMPDEST SWAP3 PUSH3 0x62 PUSH1 0x20 DUP1 SWAP4 ADD PUSH3 0x329 JUMP JUMPDEST SWAP3 DUP2 MLOAD SWAP3 PUSH3 0x71 DUP5 PUSH3 0x30D JUMP JUMPDEST PUSH1 0xD DUP5 MSTORE DUP1 DUP5 ADD SWAP5 PUSH13 0x436F6D7075736F70686C657473 PUSH1 0x98 SHL DUP7 MSTORE DUP4 MLOAD SWAP1 PUSH3 0x9A DUP3 PUSH3 0x30D JUMP JUMPDEST PUSH1 0x1 SWAP8 PUSH1 0x1 DUP4 MSTORE DUP4 DUP4 ADD SWAP3 PUSH1 0x31 PUSH1 0xF8 SHL DUP5 MSTORE DUP7 MLOAD SWAP10 DUP6 DUP12 ADD DUP12 DUP2 LT DUP9 DUP3 GT OR PUSH3 0x2F2 JUMPI DUP9 MSTORE PUSH1 0x0 DUP1 SWAP12 MSTORE PUSH1 0x2 SLOAD PUSH1 0x1 DUP2 DUP2 SHR SWAP2 AND DUP1 ISZERO PUSH3 0x2E7 JUMPI JUMPDEST DUP8 DUP3 LT EQ PUSH3 0x2D3 JUMPI PUSH1 0x1F DUP2 GT PUSH3 0x2A7 JUMPI JUMPDEST POP POP DUP10 PUSH1 0x2 SSTORE CALLER ISZERO PUSH3 0x28F JUMPI PUSH1 0x5 DUP1 SLOAD PUSH1 0x1 PUSH1 0x1 PUSH1 0xA0 SHL SUB NOT DUP1 DUP3 AND CALLER SWAP1 DUP2 OR SWAP1 SWAP4 SSTORE SWAP7 PUSH1 0x1 PUSH1 0x1 PUSH1 0xA0 SHL SUB SWAP7 SWAP1 SWAP3 SWAP1 SWAP2 DUP8 AND PUSH32 0x8BE0079C531659141344CD1FD0A4F28419497F9722A3DAAFE3B4186F6B6457E0 DUP15 DUP1 LOG3 PUSH3 0x14D DUP11 PUSH3 0x33E JUMP JUMPDEST SWAP11 PUSH2 0x120 SWAP12 DUP13 MSTORE PUSH3 0x15F DUP5 PUSH3 0x51B JUMP JUMPDEST SWAP11 PUSH2 0x140 SWAP12 DUP13 MSTORE MLOAD SWAP1 KECCAK256 SWAP3 DUP4 PUSH1 0xE0 MSTORE MLOAD SWAP1 KECCAK256 SWAP11 PUSH2 0x100 SWAP12 DUP1 DUP14 MSTORE CHAINID PUSH1 0xA0 MSTORE DUP10 MLOAD SWAP3 DUP4 ADD SWAP4 PUSH32 0x8B73C3C69BB8FE3D512ECC4CF759CC79239F7B179B0FFACAA9A75D522B39400F DUP6 MSTORE DUP11 DUP5 ADD MSTORE PUSH1 0x60 DUP4 ADD MSTORE CHAINID PUSH1 0x80 DUP4 ADD MSTORE ADDRESS PUSH1 0xA0 DUP4 ADD MSTORE PUSH1 0xA0 DUP3 MSTORE PUSH1 0xC0 DUP3 ADD SWAP8 DUP3 DUP10 LT SWAP1 DUP10 GT OR PUSH3 0x27B JUMPI POP DUP7 DUP9 MSTORE MLOAD SWAP1 KECCAK256 PUSH1 0x80 MSTORE ADDRESS PUSH1 0xC0 MSTORE PUSH7 0x110D9316EC000 PUSH1 0x9 SSTORE DUP3 AND SWAP4 DUP5 ISZERO PUSH3 0x26C JUMPI POP AND SWAP2 DUP3 ISZERO PUSH3 0x25B JUMPI DUP2 PUSH1 0x8 SLOAD AND OR PUSH1 0x8 SSTORE PUSH1 0xA SLOAD AND OR PUSH1 0xA SSTORE PUSH1 0x1 PUSH1 0xB SSTORE MLOAD SWAP2 PUSH2 0x2C24 SWAP4 DUP5 PUSH3 0x6D4 DUP6 CODECOPY PUSH1 0x80 MLOAD DUP5 PUSH2 0x20C3 ADD MSTORE PUSH1 0xA0 MLOAD DUP5 PUSH2 0x217E ADD MSTORE PUSH1 0xC0 MLOAD DUP5 PUSH2 0x208D ADD MSTORE PUSH1 0xE0 MLOAD DUP5 PUSH2 0x2112 ADD MSTORE MLOAD DUP4 PUSH2 0x2138 ADD MSTORE MLOAD DUP3 PUSH2 0x1024 ADD MSTORE MLOAD DUP2 PUSH2 0x1050 ADD MSTORE RETURN JUMPDEST DUP4 MLOAD PUSH4 0xD92E233D PUSH1 0xE0 SHL DUP2 MSTORE PUSH1 0x4 SWAP1 REVERT JUMPDEST PUSH4 0xD92E233D PUSH1 0xE0 SHL DUP2 MSTORE PUSH1 0x4 SWAP1 REVERT JUMPDEST PUSH4 0x4E487B71 PUSH1 0xE0 SHL DUP2 MSTORE PUSH1 0x41 PUSH1 0x4 MSTORE PUSH1 0x24 SWAP1 REVERT JUMPDEST DUP7 MLOAD PUSH4 0x1E4FBDF7 PUSH1 0xE0 SHL DUP2 MSTORE PUSH1 0x4 DUP2 ADD DUP12 SWAP1 MSTORE PUSH1 0x24 SWAP1 REVERT JUMPDEST PUSH1 0x2 DUP13 MSTORE PUSH1 0x1F DUP8 DUP14 KECCAK256 SWAP2 ADD PUSH1 0x5 SHR DUP2 ADD SWAP1 JUMPDEST DUP2 DUP2 LT PUSH3 0x2C8 JUMPI POP PUSH3 0xEA JUMP JUMPDEST DUP13 DUP2 SSTORE DUP3 ADD PUSH3 0x2B9 JUMP JUMPDEST PUSH4 0x4E487B71 PUSH1 0xE0 SHL DUP13 MSTORE PUSH1 0x22 PUSH1 0x4 MSTORE PUSH1 0x24 DUP13 REVERT JUMPDEST SWAP1 PUSH1 0x7F AND SWAP1 PUSH3 0xD7 JUMP JUMPDEST PUSH4 0x4E487B71 PUSH1 0xE0 SHL PUSH1 0x0 MSTORE PUSH1 0x41 PUSH1 0x4 MSTORE PUSH1 0x24 PUSH1 0x0 REVERT JUMPDEST PUSH1 0x0 DUP1 REVERT JUMPDEST PUSH1 0x40 DUP2 ADD SWAP1 DUP2 LT PUSH1 0x1 PUSH1 0x1 PUSH1 0x40 SHL SUB DUP3 GT OR PUSH3 0x2F2 JUMPI PUSH1 0x40 MSTORE JUMP JUMPDEST MLOAD SWAP1 PUSH1 0x1 PUSH1 0x1 PUSH1 0xA0 SHL SUB DUP3 AND DUP3 SUB PUSH3 0x308 JUMPI JUMP JUMPDEST DUP1 MLOAD PUSH1 0x20 SWAP1 DUP2 DUP2 LT ISZERO PUSH3 0x3DB JUMPI POP PUSH1 0x1F DUP3 MLOAD GT PUSH3 0x37A JUMPI DUP1 DUP3 MLOAD SWAP3 ADD MLOAD SWAP1 DUP1 DUP4 LT PUSH3 0x36B JUMPI POP OR SWAP1 JUMP JUMPDEST DUP3 PUSH1 0x0 NOT SWAP2 SUB PUSH1 0x3 SHL SHL AND OR SWAP1 JUMP JUMPDEST SWAP1 PUSH1 0x40 MLOAD DUP1 SWAP3 PUSH4 0x305A27A9 PUSH1 0xE0 SHL DUP3 MSTORE DUP1 PUSH1 0x4 DUP4 ADD MSTORE DUP3 MLOAD SWAP1 DUP2 PUSH1 0x24 DUP5 ADD MSTORE PUSH1 0x0 SWAP4 JUMPDEST DUP3 DUP6 LT PUSH3 0x3C1 JUMPI POP POP PUSH1 0x44 SWAP3 POP PUSH1 0x0 DUP4 DUP3 DUP5 ADD ADD MSTORE PUSH1 0x1F DUP1 NOT SWAP2 ADD AND DUP2 ADD SUB ADD SWAP1 REVERT JUMPDEST DUP5 DUP2 ADD DUP3 ADD MLOAD DUP7 DUP7 ADD PUSH1 0x44 ADD MSTORE SWAP4 DUP2 ADD SWAP4 DUP6 SWAP4 POP PUSH3 0x39D JUMP JUMPDEST SWAP1 PUSH1 0x1 PUSH1 0x1 PUSH1 0x40 SHL SUB DUP3 GT PUSH3 0x2F2 JUMPI PUSH1 0x6 SLOAD SWAP3 PUSH1 0x1 SWAP4 DUP5 DUP2 DUP2 SHR SWAP2 AND DUP1 ISZERO PUSH3 0x510 JUMPI JUMPDEST DUP4 DUP3 LT EQ PUSH3 0x4FA JUMPI PUSH1 0x1F DUP2 GT PUSH3 0x4C0 JUMPI JUMPDEST POP DUP2 PUSH1 0x1F DUP5 GT PUSH1 0x1 EQ PUSH3 0x454 JUMPI POP SWAP3 DUP3 SWAP4 SWAP2 DUP4 SWAP3 PUSH1 0x0 SWAP5 PUSH3 0x448 JUMPI JUMPDEST POP POP SHL SWAP2 PUSH1 0x0 NOT SWAP1 PUSH1 0x3 SHL SHR NOT AND OR PUSH1 0x6 SSTORE PUSH1 0xFF SWAP1 JUMP JUMPDEST ADD MLOAD SWAP3 POP CODESIZE DUP1 PUSH3 0x431 JUMP JUMPDEST SWAP2 SWAP1 DUP4 PUSH1 0x1F NOT DUP2 AND PUSH1 0x6 PUSH1 0x0 MSTORE DUP5 PUSH1 0x0 KECCAK256 SWAP5 PUSH1 0x0 SWAP1 JUMPDEST DUP9 DUP4 DUP4 LT PUSH3 0x4A5 JUMPI POP POP POP LT PUSH3 0x48B JUMPI JUMPDEST POP POP POP DUP2 SHL ADD PUSH1 0x6 SSTORE PUSH1 0xFF SWAP1 JUMP JUMPDEST ADD MLOAD PUSH1 0x0 NOT PUSH1 0xF8 DUP5 PUSH1 0x3 SHL AND SHR NOT AND SWAP1 SSTORE CODESIZE DUP1 DUP1 PUSH3 0x47D JUMP JUMPDEST DUP6 DUP8 ADD MLOAD DUP9 SSTORE SWAP1 SWAP7 ADD SWAP6 SWAP5 DUP6 ADD SWAP5 DUP8 SWAP4 POP SWAP1 DUP2 ADD SWAP1 PUSH3 0x46A JUMP JUMPDEST PUSH1 0x6 PUSH1 0x0 MSTORE DUP5 PUSH1 0x1F DUP5 PUSH1 0x0 KECCAK256 SWAP3 ADD PUSH1 0x5 SHR DUP3 ADD SWAP2 PUSH1 0x1F DUP7 ADD PUSH1 0x5 SHR ADD JUMPDEST DUP3 DUP2 LT PUSH3 0x4ED JUMPI POP POP PUSH3 0x413 JUMP JUMPDEST PUSH1 0x0 DUP2 SSTORE ADD DUP6 SWAP1 PUSH3 0x4DD JUMP JUMPDEST PUSH4 0x4E487B71 PUSH1 0xE0 SHL PUSH1 0x0 MSTORE PUSH1 0x22 PUSH1 0x4 MSTORE PUSH1 0x24 PUSH1 0x0 REVERT JUMPDEST SWAP1 PUSH1 0x7F AND SWAP1 PUSH3 0x400 JUMP JUMPDEST DUP1 MLOAD PUSH1 0x20 SWAP1 DUP2 DUP2 LT ISZERO PUSH3 0x5A9 JUMPI POP PUSH1 0x1F DUP3 MLOAD GT PUSH3 0x548 JUMPI DUP1 DUP3 MLOAD SWAP3 ADD MLOAD SWAP1 DUP1 DUP4 LT PUSH3 0x36B JUMPI POP OR SWAP1 JUMP JUMPDEST SWAP1 PUSH1 0x40 MLOAD DUP1 SWAP3 PUSH4 0x305A27A9 PUSH1 0xE0 SHL DUP3 MSTORE DUP1 PUSH1 0x4 DUP4 ADD MSTORE DUP3 MLOAD SWAP1 DUP2 PUSH1 0x24 DUP5 ADD MSTORE PUSH1 0x0 SWAP4 JUMPDEST DUP3 DUP6 LT PUSH3 0x58F JUMPI POP POP PUSH1 0x44 SWAP3 POP PUSH1 0x0 DUP4 DUP3 DUP5 ADD ADD MSTORE PUSH1 0x1F DUP1 NOT SWAP2 ADD AND DUP2 ADD SUB ADD SWAP1 REVERT JUMPDEST DUP5 DUP2 ADD DUP3 ADD MLOAD DUP7 DUP7 ADD PUSH1 0x44 ADD MSTORE SWAP4 DUP2 ADD SWAP4 DUP6 SWAP4 POP PUSH3 0x56B JUMP JUMPDEST SWAP1 PUSH1 0x1 PUSH1 0x1 PUSH1 0x40 SHL SUB DUP3 GT PUSH3 0x2F2 JUMPI PUSH1 0x7 SLOAD SWAP3 PUSH1 0x1 SWAP4 DUP5 DUP2 DUP2 SHR SWAP2 AND DUP1 ISZERO PUSH3 0x6C8 JUMPI JUMPDEST DUP4 DUP3 LT EQ PUSH3 0x4FA JUMPI PUSH1 0x1F DUP2 GT PUSH3 0x68E JUMPI JUMPDEST POP DUP2 PUSH1 0x1F DUP5 GT PUSH1 0x1 EQ PUSH3 0x622 JUMPI POP SWAP3 DUP3 SWAP4 SWAP2 DUP4 SWAP3 PUSH1 0x0 SWAP5 PUSH3 0x616 JUMPI JUMPDEST POP POP SHL SWAP2 PUSH1 0x0 NOT SWAP1 PUSH1 0x3 SHL SHR NOT AND OR PUSH1 0x7 SSTORE PUSH1 0xFF SWAP1 JUMP JUMPDEST ADD MLOAD SWAP3 POP CODESIZE DUP1 PUSH3 0x5FF JUMP JUMPDEST SWAP2 SWAP1 DUP4 PUSH1 0x1F NOT DUP2 AND PUSH1 0x7 PUSH1 0x0 MSTORE DUP5 PUSH1 0x0 KECCAK256 SWAP5 PUSH1 0x0 SWAP1 JUMPDEST DUP9 DUP4 DUP4 LT PUSH3 0x673 JUMPI POP POP POP LT PUSH3 0x659 JUMPI JUMPDEST POP POP POP DUP2 SHL ADD PUSH1 0x7 SSTORE PUSH1 0xFF SWAP1 JUMP JUMPDEST ADD MLOAD PUSH1 0x0 NOT PUSH1 0xF8 DUP5 PUSH1 0x3 SHL AND SHR NOT AND SWAP1 SSTORE CODESIZE DUP1 DUP1 PUSH3 0x64B JUMP JUMPDEST DUP6 DUP8 ADD MLOAD DUP9 SSTORE SWAP1 SWAP7 ADD SWAP6 SWAP5 DUP6 ADD SWAP5 DUP8 SWAP4 POP SWAP1 DUP2 ADD SWAP1 PUSH3 0x638 JUMP JUMPDEST PUSH1 0x7 PUSH1 0x0 MSTORE DUP5 PUSH1 0x1F DUP5 PUSH1 0x0 KECCAK256 SWAP3 ADD PUSH1 0x5 SHR DUP3 ADD SWAP2 PUSH1 0x1F DUP7 ADD PUSH1 0x5 SHR ADD JUMPDEST DUP3 DUP2 LT PUSH3 0x6BB JUMPI POP POP PUSH3 0x5E1 JUMP JUMPDEST PUSH1 0x0 DUP2 SSTORE ADD DUP6 SWAP1 PUSH3 0x6AB JUMP JUMPDEST SWAP1 PUSH1 0x7F AND SWAP1 PUSH3 0x5CE JUMP INVALID PUSH1 0x80 PUSH1 0x40 MSTORE PUSH1 0x4 CALLDATASIZE LT ISZERO PUSH2 0x12 JUMPI PUSH1 0x0 DUP1 REVERT JUMPDEST PUSH1 0x0 CALLDATALOAD PUSH1 0xE0 SHR DUP1 PUSH3 0xFDD58E EQ PUSH2 0x2A6 JUMPI DUP1 PUSH4 0x1FFC9A7 EQ PUSH2 0x2A1 JUMPI DUP1 PUSH4 0x6FDDE03 EQ PUSH2 0x29C JUMPI DUP1 PUSH4 0xE89341C EQ PUSH2 0x297 JUMPI DUP1 PUSH4 0x13966DB5 EQ PUSH2 0x292 JUMPI DUP1 PUSH4 0x162094C4 EQ PUSH2 0x28D JUMPI DUP1 PUSH4 0x18160DDD EQ PUSH2 0x288 JUMPI DUP1 PUSH4 0x2EB2C2D6 EQ PUSH2 0x283 JUMPI DUP1 PUSH4 0x3F4BA83A EQ PUSH2 0x27E JUMPI DUP1 PUSH4 0x46904840 EQ PUSH2 0x279 JUMPI DUP1 PUSH4 0x476343EE EQ PUSH2 0x274 JUMPI DUP1 PUSH4 0x4BB99351 EQ PUSH2 0x26F JUMPI DUP1 PUSH4 0x4E1273F4 EQ PUSH2 0x26A JUMPI DUP1 PUSH4 0x4F558E79 EQ PUSH2 0x265 JUMPI DUP1 PUSH4 0x56A1C701 EQ PUSH2 0x260 JUMPI DUP1 PUSH4 0x5C975ABB EQ PUSH2 0x25B JUMPI DUP1 PUSH4 0x5CD21BD6 EQ PUSH2 0x256 JUMPI DUP1 PUSH4 0x6C8B703F EQ PUSH2 0x251 JUMPI DUP1 PUSH4 0x715018A6 EQ PUSH2 0x24C JUMPI DUP1 PUSH4 0x7ECEBE00 EQ PUSH2 0x247 JUMPI DUP1 PUSH4 0x8456CB59 EQ PUSH2 0x242 JUMPI DUP1 PUSH4 0x84B0196E EQ PUSH2 0x23D JUMPI DUP1 PUSH4 0x859496E1 EQ PUSH2 0x238 JUMPI DUP1 PUSH4 0x8DA5CB5B EQ PUSH2 0x233 JUMPI DUP1 PUSH4 0x95D89B41 EQ PUSH2 0x22E JUMPI DUP1 PUSH4 0xA22CB465 EQ PUSH2 0x229 JUMPI DUP1 PUSH4 0xA3F4DF7E EQ PUSH2 0x224 JUMPI DUP1 PUSH4 0xAF15C051 EQ PUSH2 0x21F JUMPI DUP1 PUSH4 0xBD85B039 EQ PUSH2 0x21A JUMPI DUP1 PUSH4 0xC3A663AA EQ PUSH2 0x215 JUMPI DUP1 PUSH4 0xCAA0F92A EQ PUSH2 0x210 JUMPI DUP1 PUSH4 0xE0FD045F EQ PUSH2 0x20B JUMPI DUP1 PUSH4 0xE74B981B EQ PUSH2 0x206 JUMPI DUP1 PUSH4 0xE985E9C5 EQ PUSH2 0x201 JUMPI DUP1 PUSH4 0xEDDD0D9C EQ PUSH2 0x1FC JUMPI DUP1 PUSH4 0xF242432A EQ PUSH2 0x1F7 JUMPI DUP1 PUSH4 0xF2FDE38B EQ PUSH2 0x1F2 JUMPI DUP1 PUSH4 0xF698DA25 EQ PUSH2 0x1ED JUMPI DUP1 PUSH4 0xF74D5480 EQ PUSH2 0x1E8 JUMPI DUP1 PUSH4 0xF76FC35E EQ PUSH2 0x1E3 JUMPI PUSH4 0xFFA1AD74 EQ PUSH2 0x1DE JUMPI PUSH1 0x0 DUP1 REVERT JUMPDEST PUSH2 0x1A8F JUMP JUMPDEST PUSH2 0x1A54 JUMP JUMPDEST PUSH2 0x1A2B JUMP JUMPDEST PUSH2 0x1A08 JUMP JUMPDEST PUSH2 0x197A JUMP JUMPDEST PUSH2 0x185D JUMP JUMPDEST PUSH2 0x17FD JUMP JUMPDEST PUSH2 0x17AC JUMP JUMPDEST PUSH2 0x171D JUMP JUMPDEST PUSH2 0x16E9 JUMP JUMPDEST PUSH2 0x16CB JUMP JUMPDEST PUSH2 0x1679 JUMP JUMPDEST PUSH2 0x164D JUMP JUMPDEST PUSH2 0x1613 JUMP JUMPDEST PUSH2 0x15C5 JUMP JUMPDEST PUSH2 0x1509 JUMP JUMPDEST PUSH2 0x14C4 JUMP JUMPDEST PUSH2 0x149B JUMP JUMPDEST PUSH2 0x10CD JUMP JUMPDEST PUSH2 0x100B JUMP JUMPDEST PUSH2 0xFA9 JUMP JUMPDEST PUSH2 0xF6F JUMP JUMPDEST PUSH2 0xF11 JUMP JUMPDEST PUSH2 0xED4 JUMP JUMPDEST PUSH2 0xDC8 JUMP JUMPDEST PUSH2 0xDA2 JUMP JUMPDEST PUSH2 0xD00 JUMP JUMPDEST PUSH2 0xCD2 JUMP JUMPDEST PUSH2 0xC18 JUMP JUMPDEST PUSH2 0xA89 JUMP JUMPDEST PUSH2 0x9D0 JUMP JUMPDEST PUSH2 0x9A7 JUMP JUMPDEST PUSH2 0x935 JUMP JUMPDEST PUSH2 0x80D JUMP JUMPDEST PUSH2 0x723 JUMP JUMPDEST PUSH2 0x588 JUMP JUMPDEST PUSH2 0x53D JUMP JUMPDEST PUSH2 0x50A JUMP JUMPDEST PUSH2 0x4B8 JUMP JUMPDEST PUSH2 0x34F JUMP JUMPDEST PUSH2 0x2F0 JUMP JUMPDEST PUSH1 0x4 CALLDATALOAD SWAP1 PUSH1 0x1 PUSH1 0x1 PUSH1 0xA0 SHL SUB DUP3 AND DUP3 SUB PUSH2 0x2C1 JUMPI JUMP JUMPDEST PUSH1 0x0 DUP1 REVERT JUMPDEST PUSH1 0x24 CALLDATALOAD SWAP1 PUSH1 0x1 PUSH1 0x1 PUSH1 0xA0 SHL SUB DUP3 AND DUP3 SUB PUSH2 0x2C1 JUMPI JUMP JUMPDEST CALLDATALOAD SWAP1 PUSH1 0x1 PUSH1 0x1 PUSH1 0xA0 SHL SUB DUP3 AND DUP3 SUB PUSH2 0x2C1 JUMPI JUMP JUMPDEST CALLVALUE PUSH2 0x2C1 JUMPI PUSH1 0x40 CALLDATASIZE PUSH1 0x3 NOT ADD SLT PUSH2 0x2C1 JUMPI PUSH1 0x20 PUSH2 0x334 PUSH2 0x30E PUSH2 0x2AB JUMP JUMPDEST PUSH1 0x24 CALLDATALOAD PUSH1 0x0 MSTORE PUSH1 0x0 DUP4 MSTORE PUSH1 0x40 PUSH1 0x0 KECCAK256 SWAP1 PUSH1 0x1 DUP1 PUSH1 0xA0 SHL SUB AND PUSH1 0x0 MSTORE PUSH1 0x20 MSTORE PUSH1 0x40 PUSH1 0x0 KECCAK256 SWAP1 JUMP JUMPDEST SLOAD PUSH1 0x40 MLOAD SWAP1 DUP2 MSTORE RETURN JUMPDEST PUSH1 0x1 PUSH1 0x1 PUSH1 0xE0 SHL SUB NOT DUP2 AND SUB PUSH2 0x2C1 JUMPI JUMP JUMPDEST CALLVALUE PUSH2 0x2C1 JUMPI PUSH1 0x20 CALLDATASIZE PUSH1 0x3 NOT ADD SLT PUSH2 0x2C1 JUMPI PUSH1 0x20 PUSH1 0x4 CALLDATALOAD PUSH2 0x36E DUP2 PUSH2 0x33D JUMP JUMPDEST PUSH4 0xFFFFFFFF PUSH1 0xE0 SHL AND PUSH4 0x6CDB3D13 PUSH1 0xE1 SHL DUP2 EQ SWAP1 DUP2 ISZERO PUSH2 0x3AC JUMPI JUMPDEST DUP2 ISZERO PUSH2 0x39B JUMPI JUMPDEST POP PUSH1 0x40 MLOAD SWAP1 ISZERO ISZERO DUP2 MSTORE RETURN JUMPDEST PUSH4 0x1FFC9A7 PUSH1 0xE0 SHL EQ SWAP1 POP CODESIZE PUSH2 0x390 JUMP JUMPDEST PUSH4 0x3A24D07 PUSH1 0xE2 SHL DUP2 EQ SWAP2 POP PUSH2 0x389 JUMP JUMPDEST PUSH4 0x4E487B71 PUSH1 0xE0 SHL PUSH1 0x0 MSTORE PUSH1 0x41 PUSH1 0x4 MSTORE PUSH1 0x24 PUSH1 0x0 REVERT JUMPDEST PUSH1 0x20 DUP2 ADD SWAP1 DUP2 LT PUSH1 0x1 PUSH1 0x1 PUSH1 0x40 SHL SUB DUP3 GT OR PUSH2 0x3EE JUMPI PUSH1 0x40 MSTORE JUMP JUMPDEST PUSH2 0x3BD JUMP JUMPDEST PUSH1 0x40 DUP2 ADD SWAP1 DUP2 LT PUSH1 0x1 PUSH1 0x1 PUSH1 0x40 SHL SUB DUP3 GT OR PUSH2 0x3EE JUMPI PUSH1 0x40 MSTORE JUMP JUMPDEST PUSH1 0xC0 DUP2 ADD SWAP1 DUP2 LT PUSH1 0x1 PUSH1 0x1 PUSH1 0x40 SHL SUB DUP3 GT OR PUSH2 0x3EE JUMPI PUSH1 0x40 MSTORE JUMP JUMPDEST SWAP1 PUSH1 0x1F DUP1 NOT SWAP2 ADD AND DUP2 ADD SWAP1 DUP2 LT PUSH1 0x1 PUSH1 0x1 PUSH1 0x40 SHL SUB DUP3 GT OR PUSH2 0x3EE JUMPI PUSH1 0x40 MSTORE JUMP JUMPDEST PUSH1 0x1 PUSH1 0x1 PUSH1 0x40 SHL SUB DUP2 GT PUSH2 0x3EE JUMPI PUSH1 0x1F ADD PUSH1 0x1F NOT AND PUSH1 0x20 ADD SWAP1 JUMP JUMPDEST PUSH1 0x40 MLOAD SWAP1 PUSH2 0x472 DUP3 PUSH2 0x3D3 JUMP JUMPDEST PUSH1 0x0 DUP3 MSTORE JUMP JUMPDEST SWAP2 SWAP1 DUP3 MLOAD SWAP3 DUP4 DUP3 MSTORE PUSH1 0x0 JUMPDEST DUP5 DUP2 LT PUSH2 0x4A4 JUMPI POP POP DUP3 PUSH1 0x0 PUSH1 0x20 DUP1 SWAP5 SWAP6 DUP5 ADD ADD MSTORE PUSH1 0x1F DUP1 NOT SWAP2 ADD AND ADD ADD SWAP1 JUMP JUMPDEST PUSH1 0x20 DUP2 DUP4 ADD DUP2 ADD MLOAD DUP5 DUP4 ADD DUP3 ADD MSTORE ADD PUSH2 0x483 JUMP JUMPDEST CALLVALUE PUSH2 0x2C1 JUMPI PUSH1 0x0 CALLDATASIZE PUSH1 0x3 NOT ADD SLT PUSH2 0x2C1 JUMPI PUSH2 0x506 PUSH1 0x40 MLOAD PUSH2 0x4D8 DUP2 PUSH2 0x3F3 JUMP JUMPDEST PUSH1 0xD DUP2 MSTORE PUSH13 0x636F6D7075736F70686C657473 PUSH1 0x98 SHL PUSH1 0x20 DUP3 ADD MSTORE PUSH1 0x40 MLOAD SWAP2 DUP3 SWAP2 PUSH1 0x20 DUP4 MSTORE PUSH1 0x20 DUP4 ADD SWAP1 PUSH2 0x478 JUMP JUMPDEST SUB SWAP1 RETURN JUMPDEST CALLVALUE PUSH2 0x2C1 JUMPI PUSH1 0x20 CALLDATASIZE PUSH1 0x3 NOT ADD SLT PUSH2 0x2C1 JUMPI PUSH2 0x506 PUSH2 0x529 PUSH1 0x4 CALLDATALOAD PUSH2 0x1AD1 JUMP JUMPDEST PUSH1 0x40 MLOAD SWAP2 DUP3 SWAP2 PUSH1 0x20 DUP4 MSTORE PUSH1 0x20 DUP4 ADD SWAP1 PUSH2 0x478 JUMP JUMPDEST CALLVALUE PUSH2 0x2C1 JUMPI PUSH1 0x0 CALLDATASIZE PUSH1 0x3 NOT ADD SLT PUSH2 0x2C1 JUMPI PUSH1 0x20 PUSH1 0x9 SLOAD PUSH1 0x40 MLOAD SWAP1 DUP2 MSTORE RETURN JUMPDEST SWAP2 DUP2 PUSH1 0x1F DUP5 ADD SLT ISZERO PUSH2 0x2C1 JUMPI DUP3 CALLDATALOAD SWAP2 PUSH1 0x1 PUSH1 0x1 PUSH1 0x40 SHL SUB DUP4 GT PUSH2 0x2C1 JUMPI PUSH1 0x20 DUP4 DUP2 DUP7 ADD SWAP6 ADD ADD GT PUSH2 0x2C1 JUMPI JUMP JUMPDEST CALLVALUE PUSH2 0x2C1 JUMPI PUSH1 0x40 CALLDATASIZE PUSH1 0x3 NOT ADD SLT PUSH2 0x2C1 JUMPI PUSH1 0x1 PUSH1 0x1 PUSH1 0x40 SHL SUB PUSH1 0x4 CALLDATALOAD PUSH1 0x24 CALLDATALOAD DUP3 DUP2 GT PUSH2 0x2C1 JUMPI PUSH2 0x5BC SWAP1 CALLDATASIZE SWAP1 PUSH1 0x4 ADD PUSH2 0x55B JUMP JUMPDEST PUSH2 0x5C7 SWAP3 SWAP2 SWAP3 PUSH2 0x1F25 JUMP JUMPDEST PUSH1 0x0 SWAP3 DUP3 DUP5 MSTORE PUSH1 0x20 SWAP5 PUSH1 0xC PUSH1 0x20 MSTORE PUSH1 0x1 DUP1 PUSH1 0xA0 SHL SUB PUSH1 0x40 DUP7 KECCAK256 SLOAD AND ISZERO PUSH2 0x711 JUMPI DUP4 DUP6 MSTORE PUSH1 0xD PUSH1 0x20 MSTORE PUSH1 0x40 DUP6 KECCAK256 SWAP1 DUP4 GT PUSH2 0x3EE JUMPI PUSH2 0x60E DUP4 PUSH2 0x608 DUP4 SLOAD PUSH2 0xE04 JUMP JUMPDEST DUP4 PUSH2 0x1BBF JUMP JUMPDEST DUP5 SWAP6 PUSH1 0x1F DUP5 GT PUSH1 0x1 EQ PUSH2 0x683 JUMPI POP PUSH2 0x660 DUP4 DUP1 DUP8 SWAP9 PUSH32 0x6BB7FF708619BA0610CBA295A58592E0451DEE2622938C8755667688DAF3529B SWAP8 SWAP9 SWAP2 PUSH2 0x678 JUMPI JUMPDEST POP DUP2 PUSH1 0x1 SHL SWAP2 PUSH1 0x0 NOT SWAP1 PUSH1 0x3 SHL SHR NOT AND OR SWAP1 JUMP JUMPDEST SWAP1 SSTORE JUMPDEST PUSH2 0x672 PUSH1 0x40 MLOAD SWAP3 DUP4 SWAP3 DUP4 PUSH2 0x1CE3 JUMP JUMPDEST SUB SWAP1 LOG2 DUP1 RETURN JUMPDEST SWAP1 POP DUP5 ADD CALLDATALOAD CODESIZE PUSH2 0x64C JUMP JUMPDEST PUSH1 0x1F NOT DUP5 AND SWAP7 PUSH2 0x698 DUP4 PUSH1 0x0 MSTORE PUSH1 0x20 PUSH1 0x0 KECCAK256 SWAP1 JUMP JUMPDEST SWAP2 DUP8 SWAP1 JUMPDEST DUP10 DUP3 LT PUSH2 0x6F9 JUMPI POP POP DUP5 PUSH32 0x6BB7FF708619BA0610CBA295A58592E0451DEE2622938C8755667688DAF3529B SWAP7 SWAP8 SWAP9 LT PUSH2 0x6DF JUMPI JUMPDEST POP POP PUSH1 0x1 DUP4 DUP2 SHL ADD SWAP1 SSTORE PUSH2 0x663 JUMP JUMPDEST DUP4 ADD CALLDATALOAD PUSH1 0x0 NOT PUSH1 0x3 DUP7 SWAP1 SHL PUSH1 0xF8 AND SHR NOT AND SWAP1 SSTORE CODESIZE DUP1 PUSH2 0x6D0 JUMP JUMPDEST DUP1 PUSH1 0x1 DUP5 SWAP6 DUP3 SWAP5 SWAP6 DUP10 ADD CALLDATALOAD DUP2 SSTORE ADD SWAP5 ADD SWAP3 ADD SWAP1 PUSH2 0x69C JUMP JUMPDEST PUSH1 0x40 MLOAD PUSH4 0x2CE0136B PUSH1 0xE0 SHL DUP2 MSTORE PUSH1 0x4 SWAP1 REVERT JUMPDEST CALLVALUE PUSH2 0x2C1 JUMPI PUSH1 0x0 CALLDATASIZE PUSH1 0x3 NOT ADD SLT PUSH2 0x2C1 JUMPI PUSH1 0x20 PUSH1 0x4 SLOAD PUSH1 0x40 MLOAD SWAP1 DUP2 MSTORE RETURN JUMPDEST PUSH1 0x1 PUSH1 0x1 PUSH1 0x40 SHL SUB DUP2 GT PUSH2 0x3EE JUMPI PUSH1 0x5 SHL PUSH1 0x20 ADD SWAP1 JUMP JUMPDEST SWAP1 DUP1 PUSH1 0x1F DUP4 ADD SLT ISZERO PUSH2 0x2C1 JUMPI PUSH1 0x20 SWAP1 DUP3 CALLDATALOAD PUSH2 0x772 DUP2 PUSH2 0x741 JUMP JUMPDEST SWAP4 PUSH2 0x780 PUSH1 0x40 MLOAD SWAP6 DUP7 PUSH2 0x429 JUMP JUMPDEST DUP2 DUP6 MSTORE PUSH1 0x20 DUP1 DUP7 ADD SWAP3 PUSH1 0x5 SHL DUP3 ADD ADD SWAP3 DUP4 GT PUSH2 0x2C1 JUMPI PUSH1 0x20 ADD SWAP1 JUMPDEST DUP3 DUP3 LT PUSH2 0x7A9 JUMPI POP POP POP POP SWAP1 JUMP JUMPDEST DUP2 CALLDATALOAD DUP2 MSTORE SWAP1 DUP4 ADD SWAP1 DUP4 ADD PUSH2 0x79B JUMP JUMPDEST SWAP3 SWAP2 SWAP3 PUSH2 0x7C4 DUP3 PUSH2 0x44A JUMP JUMPDEST SWAP2 PUSH2 0x7D2 PUSH1 0x40 MLOAD SWAP4 DUP5 PUSH2 0x429 JUMP JUMPDEST DUP3 SWAP5 DUP2 DUP5 MSTORE DUP2 DUP4 ADD GT PUSH2 0x2C1 JUMPI DUP3 DUP2 PUSH1 0x20 SWAP4 DUP5 PUSH1 0x0 SWAP7 ADD CALLDATACOPY ADD ADD MSTORE JUMP JUMPDEST SWAP1 DUP1 PUSH1 0x1F DUP4 ADD SLT ISZERO PUSH2 0x2C1 JUMPI DUP2 PUSH1 0x20 PUSH2 0x80A SWAP4 CALLDATALOAD SWAP2 ADD PUSH2 0x7B8 JUMP JUMPDEST SWAP1 JUMP JUMPDEST CALLVALUE PUSH2 0x2C1 JUMPI PUSH1 0xA0 CALLDATASIZE PUSH1 0x3 NOT ADD SLT PUSH2 0x2C1 JUMPI PUSH2 0x826 PUSH2 0x2AB JUMP JUMPDEST PUSH2 0x82E PUSH2 0x2C6 JUMP JUMPDEST SWAP1 PUSH1 0x44 CALLDATALOAD SWAP2 PUSH1 0x1 PUSH1 0x1 PUSH1 0x40 SHL SUB SWAP1 DUP2 DUP5 GT PUSH2 0x2C1 JUMPI PUSH2 0x852 PUSH1 0x4 SWAP5 CALLDATASIZE SWAP1 DUP7 ADD PUSH2 0x758 JUMP JUMPDEST SWAP1 PUSH1 0x64 CALLDATALOAD DUP4 DUP2 GT PUSH2 0x2C1 JUMPI PUSH2 0x86A SWAP1 CALLDATASIZE SWAP1 DUP8 ADD PUSH2 0x758 JUMP JUMPDEST SWAP3 PUSH1 0x84 CALLDATALOAD SWAP1 DUP2 GT PUSH2 0x2C1 JUMPI PUSH2 0x882 SWAP1 CALLDATASIZE SWAP1 DUP8 ADD PUSH2 0x7EF JUMP JUMPDEST SWAP4 PUSH1 0x1 PUSH1 0x1 PUSH1 0xA0 SHL SUB DUP1 DUP3 AND SWAP1 CALLER DUP3 EQ ISZERO DUP1 PUSH2 0x911 JUMPI JUMPDEST PUSH2 0x8E4 JUMPI DUP4 AND ISZERO PUSH2 0x8CC JUMPI ISZERO PUSH2 0x8B5 JUMPI PUSH2 0x8B3 SWAP6 POP PUSH2 0x21A4 JUMP JUMPDEST STOP JUMPDEST PUSH1 0x40 MLOAD PUSH3 0x6A0D45 PUSH1 0xE2 SHL DUP2 MSTORE PUSH1 0x0 DUP2 DUP9 ADD MSTORE PUSH1 0x24 SWAP1 REVERT JUMPDEST PUSH1 0x40 MLOAD PUSH4 0x2BFA23E7 PUSH1 0xE1 SHL DUP2 MSTORE PUSH1 0x0 DUP2 DUP10 ADD MSTORE PUSH1 0x24 SWAP1 REVERT JUMPDEST PUSH1 0x40 DUP1 MLOAD PUSH4 0x711BEC91 PUSH1 0xE1 SHL DUP2 MSTORE CALLER DUP2 DUP12 ADD SWAP1 DUP2 MSTORE PUSH1 0x1 PUSH1 0x1 PUSH1 0xA0 SHL SUB DUP7 AND PUSH1 0x20 DUP3 ADD MSTORE SWAP1 SWAP2 DUP3 SWAP2 ADD SUB SWAP1 REVERT JUMPDEST POP PUSH1 0x0 DUP3 DUP2 MSTORE PUSH1 0x1 PUSH1 0x20 SWAP1 DUP2 MSTORE PUSH1 0x40 DUP1 DUP4 KECCAK256 CALLER DUP5 MSTORE SWAP1 SWAP2 MSTORE SWAP1 KECCAK256 SLOAD PUSH1 0xFF AND ISZERO PUSH2 0x899 JUMP JUMPDEST CALLVALUE PUSH2 0x2C1 JUMPI PUSH1 0x0 CALLDATASIZE PUSH1 0x3 NOT ADD SLT PUSH2 0x2C1 JUMPI PUSH2 0x94E PUSH2 0x1F25 JUMP JUMPDEST PUSH1 0x5 SLOAD PUSH1 0xFF DUP2 PUSH1 0xA0 SHR AND ISZERO PUSH2 0x995 JUMPI PUSH1 0xFF PUSH1 0xA0 SHL NOT AND PUSH1 0x5 SSTORE PUSH1 0x40 MLOAD CALLER DUP2 MSTORE PUSH32 0x5DB9EE0A495BF2E6FF9C91A7834C1BA4FDD244A5E8AA4E537BD38AEAE4B073AA SWAP1 PUSH1 0x20 SWAP1 LOG1 STOP JUMPDEST PUSH1 0x40 MLOAD PUSH4 0x8DFC202B PUSH1 0xE0 SHL DUP2 MSTORE PUSH1 0x4 SWAP1 REVERT JUMPDEST CALLVALUE PUSH2 0x2C1 JUMPI PUSH1 0x0 CALLDATASIZE PUSH1 0x3 NOT ADD SLT PUSH2 0x2C1 JUMPI PUSH1 0xA SLOAD PUSH1 0x40 MLOAD PUSH1 0x1 PUSH1 0x1 PUSH1 0xA0 SHL SUB SWAP1 SWAP2 AND DUP2 MSTORE PUSH1 0x20 SWAP1 RETURN JUMPDEST CALLVALUE PUSH2 0x2C1 JUMPI PUSH1 0x0 DUP1 PUSH1 0x3 NOT CALLDATASIZE ADD SLT PUSH2 0xA56 JUMPI PUSH2 0x9EA PUSH2 0x1F25 JUMP JUMPDEST SELFBALANCE PUSH1 0x1 DUP1 PUSH1 0xA0 SHL SUB DUP3 DUP1 DUP1 DUP1 DUP6 DUP6 PUSH1 0x5 SLOAD AND GAS CALL PUSH2 0xA06 PUSH2 0x1D0B JUMP JUMPDEST POP ISZERO PUSH2 0xA44 JUMPI PUSH32 0xC0819C13BE868895EB93E40EACEB96DE976442FA1D404E5C55F14BB65A8C489A SWAP2 PUSH1 0x40 SWAP2 PUSH1 0x5 SLOAD AND SWAP1 DUP3 MLOAD SWAP2 DUP3 MSTORE PUSH1 0x20 DUP3 ADD MSTORE LOG1 DUP1 RETURN JUMPDEST PUSH1 0x40 MLOAD PUSH4 0x1D42C867 PUSH1 0xE2 SHL DUP2 MSTORE PUSH1 0x4 SWAP1 REVERT JUMPDEST DUP1 REVERT JUMPDEST SWAP2 DUP2 PUSH1 0x1F DUP5 ADD SLT ISZERO PUSH2 0x2C1 JUMPI DUP3 CALLDATALOAD SWAP2 PUSH1 0x1 PUSH1 0x1 PUSH1 0x40 SHL SUB DUP4 GT PUSH2 0x2C1 JUMPI PUSH1 0x20 DUP1 DUP6 ADD SWAP5 DUP5 PUSH1 0x5 SHL ADD ADD GT PUSH2 0x2C1 JUMPI JUMP JUMPDEST CALLVALUE PUSH2 0x2C1 JUMPI PUSH1 0x40 DUP1 PUSH1 0x3 NOT CALLDATASIZE ADD SLT PUSH2 0x2C1 JUMPI PUSH1 0x4 DUP1 CALLDATALOAD SWAP2 PUSH1 0x1 PUSH1 0x1 PUSH1 0x40 SHL SUB SWAP3 DUP4 DUP2 GT PUSH2 0x2C1 JUMPI PUSH2 0xABE SWAP1 CALLDATASIZE SWAP1 PUSH1 0x4 ADD PUSH2 0xA59 JUMP JUMPDEST SWAP4 PUSH1 0x24 CALLDATALOAD SWAP1 DUP2 GT PUSH2 0x2C1 JUMPI PUSH2 0xAD7 SWAP1 CALLDATASIZE SWAP1 PUSH1 0x4 ADD PUSH2 0xA59 JUMP JUMPDEST SWAP1 PUSH2 0xAE0 PUSH2 0x1F25 JUMP JUMPDEST PUSH2 0xAEB DUP3 DUP8 EQ PUSH2 0x1D3B JUMP JUMPDEST PUSH1 0x0 JUMPDEST DUP7 DUP2 LT PUSH2 0xAF7 JUMPI STOP JUMPDEST PUSH2 0xB35 PUSH2 0xB29 PUSH2 0xB1C PUSH2 0xB0B DUP5 DUP12 DUP10 PUSH2 0x1D8F JUMP JUMPDEST CALLDATALOAD PUSH1 0x0 MSTORE PUSH1 0xC PUSH1 0x20 MSTORE PUSH1 0x40 PUSH1 0x0 KECCAK256 SWAP1 JUMP JUMPDEST SLOAD PUSH1 0x1 PUSH1 0x1 PUSH1 0xA0 SHL SUB AND SWAP1 JUMP JUMPDEST PUSH1 0x1 PUSH1 0x1 PUSH1 0xA0 SHL SUB AND SWAP1 JUMP JUMPDEST ISZERO PUSH2 0xBC3 JUMPI DUP1 PUSH2 0xB70 PUSH2 0xB4B PUSH1 0x1 SWAP4 DUP7 DUP7 PUSH2 0x1DA4 JUMP JUMPDEST SWAP1 PUSH2 0xB6B PUSH2 0xB5A DUP6 DUP14 DUP12 PUSH2 0x1D8F JUMP JUMPDEST CALLDATALOAD PUSH1 0x0 MSTORE PUSH1 0xD PUSH1 0x20 MSTORE PUSH1 0x40 PUSH1 0x0 KECCAK256 SWAP1 JUMP JUMPDEST PUSH2 0x1C15 JUMP JUMPDEST PUSH32 0x6BB7FF708619BA0610CBA295A58592E0451DEE2622938C8755667688DAF3529B PUSH2 0xB9C DUP3 DUP7 DUP7 PUSH2 0x1DA4 JUMP JUMPDEST PUSH2 0xBAA DUP5 DUP13 DUP11 SWAP6 SWAP5 SWAP6 PUSH2 0x1D8F JUMP JUMPDEST CALLDATALOAD SWAP3 PUSH2 0xBBA DUP11 MLOAD SWAP3 DUP4 SWAP3 DUP4 PUSH2 0x1CE3 JUMP JUMPDEST SUB SWAP1 LOG2 ADD PUSH2 0xAEE JUMP JUMPDEST DUP5 MLOAD PUSH4 0x2CE0136B PUSH1 0xE0 SHL DUP2 MSTORE DUP7 SWAP1 REVERT JUMPDEST SWAP1 DUP2 MLOAD DUP1 DUP3 MSTORE PUSH1 0x20 DUP1 DUP1 SWAP4 ADD SWAP4 ADD SWAP2 PUSH1 0x0 JUMPDEST DUP3 DUP2 LT PUSH2 0xBF3 JUMPI POP POP POP POP SWAP1 JUMP JUMPDEST DUP4 MLOAD DUP6 MSTORE SWAP4 DUP2 ADD SWAP4 SWAP3 DUP2 ADD SWAP3 PUSH1 0x1 ADD PUSH2 0xBE5 JUMP JUMPDEST SWAP1 PUSH1 0x20 PUSH2 0x80A SWAP3 DUP2 DUP2 MSTORE ADD SWAP1 PUSH2 0xBD3 JUMP JUMPDEST CALLVALUE PUSH2 0x2C1 JUMPI PUSH1 0x40 CALLDATASIZE PUSH1 0x3 NOT ADD SLT PUSH2 0x2C1 JUMPI PUSH1 0x4 CALLDATALOAD PUSH1 0x1 PUSH1 0x1 PUSH1 0x40 SHL SUB DUP1 DUP3 GT PUSH2 0x2C1 JUMPI CALLDATASIZE PUSH1 0x23 DUP4 ADD SLT ISZERO PUSH2 0x2C1 JUMPI DUP2 PUSH1 0x4 ADD CALLDATALOAD PUSH2 0xC54 DUP2 PUSH2 0x741 JUMP JUMPDEST SWAP3 PUSH2 0xC62 PUSH1 0x40 MLOAD SWAP5 DUP6 PUSH2 0x429 JUMP JUMPDEST DUP2 DUP5 MSTORE PUSH1 0x20 SWAP2 PUSH1 0x24 PUSH1 0x20 DUP7 ADD SWAP2 PUSH1 0x5 SHL DUP4 ADD ADD SWAP2 CALLDATASIZE DUP4 GT PUSH2 0x2C1 JUMPI PUSH1 0x24 ADD SWAP1 JUMPDEST DUP3 DUP3 LT PUSH2 0xCBB JUMPI DUP6 PUSH1 0x24 CALLDATALOAD DUP7 DUP2 GT PUSH2 0x2C1 JUMPI PUSH2 0x506 SWAP2 PUSH2 0xCA9 PUSH2 0xCAF SWAP3 CALLDATASIZE SWAP1 PUSH1 0x4 ADD PUSH2 0x758 JUMP JUMPDEST SWAP1 PUSH2 0x1E43 JUMP JUMPDEST PUSH1 0x40 MLOAD SWAP2 DUP3 SWAP2 DUP3 PUSH2 0xC07 JUMP JUMPDEST DUP4 DUP1 SWAP2 PUSH2 0xCC7 DUP5 PUSH2 0x2DC JUMP JUMPDEST DUP2 MSTORE ADD SWAP2 ADD SWAP1 PUSH2 0xC82 JUMP JUMPDEST CALLVALUE PUSH2 0x2C1 JUMPI PUSH1 0x20 CALLDATASIZE PUSH1 0x3 NOT ADD SLT PUSH2 0x2C1 JUMPI PUSH1 0x4 CALLDATALOAD PUSH1 0x0 MSTORE PUSH1 0x3 PUSH1 0x20 MSTORE PUSH1 0x20 PUSH1 0x40 PUSH1 0x0 KECCAK256 SLOAD ISZERO ISZERO PUSH1 0x40 MLOAD SWAP1 DUP2 MSTORE RETURN JUMPDEST CALLVALUE PUSH2 0x2C1 JUMPI PUSH1 0x20 CALLDATASIZE PUSH1 0x3 NOT ADD SLT PUSH2 0x2C1 JUMPI PUSH2 0xD19 PUSH2 0x2AB JUMP JUMPDEST PUSH2 0xD21 PUSH2 0x1F25 JUMP JUMPDEST PUSH1 0x1 PUSH1 0x1 PUSH1 0xA0 SHL SUB DUP2 DUP2 AND DUP1 ISZERO PUSH2 0xD90 JUMPI PUSH1 0x8 DUP1 SLOAD PUSH1 0x1 PUSH1 0x1 PUSH1 0xA0 SHL SUB NOT DUP2 AND SWAP1 SWAP3 OR SWAP1 SSTORE PUSH1 0x40 DUP1 MLOAD PUSH1 0x1 PUSH1 0x1 PUSH1 0xA0 SHL SUB SWAP4 SWAP1 SWAP3 AND DUP4 AND DUP3 MSTORE SWAP2 SWAP1 SWAP3 AND PUSH1 0x20 DUP4 ADD MSTORE PUSH32 0x4A297CF5D32586F80D2B0708A39D2DA1F46E6AE7722171E1C51DFD685B5B8AA8 SWAP2 SWAP1 DUP2 SWAP1 DUP2 ADD JUMPDEST SUB SWAP1 LOG1 STOP JUMPDEST PUSH1 0x40 MLOAD PUSH4 0xD92E233D PUSH1 0xE0 SHL DUP2 MSTORE PUSH1 0x4 SWAP1 REVERT JUMPDEST CALLVALUE PUSH2 0x2C1 JUMPI PUSH1 0x0 CALLDATASIZE PUSH1 0x3 NOT ADD SLT PUSH2 0x2C1 JUMPI PUSH1 0x20 PUSH1 0xFF PUSH1 0x5 SLOAD PUSH1 0xA0 SHR AND PUSH1 0x40 MLOAD SWAP1 ISZERO ISZERO DUP2 MSTORE RETURN JUMPDEST CALLVALUE PUSH2 0x2C1 JUMPI PUSH1 0x20 CALLDATASIZE PUSH1 0x3 NOT ADD SLT PUSH2 0x2C1 JUMPI PUSH1 0x1 PUSH1 0x1 PUSH1 0xA0 SHL SUB PUSH2 0xDE9 PUSH2 0x2AB JUMP JUMPDEST AND PUSH1 0x0 MSTORE PUSH1 0xE PUSH1 0x20 MSTORE PUSH1 0x20 PUSH1 0x40 PUSH1 0x0 KECCAK256 SLOAD ISZERO ISZERO PUSH1 0x40 MLOAD SWAP1 DUP2 MSTORE RETURN JUMPDEST SWAP1 PUSH1 0x1 DUP3 DUP2 SHR SWAP3 AND DUP1 ISZERO PUSH2 0xE34 JUMPI JUMPDEST PUSH1 0x20 DUP4 LT EQ PUSH2 0xE1E JUMPI JUMP JUMPDEST PUSH4 0x4E487B71 PUSH1 0xE0 SHL PUSH1 0x0 MSTORE PUSH1 0x22 PUSH1 0x4 MSTORE PUSH1 0x24 PUSH1 0x0 REVERT JUMPDEST SWAP2 PUSH1 0x7F AND SWAP2 PUSH2 0xE13 JUMP JUMPDEST DUP1 SLOAD PUSH1 0x0 SWAP4 SWAP3 PUSH2 0xE4D DUP3 PUSH2 0xE04 JUMP JUMPDEST SWAP2 DUP3 DUP3 MSTORE PUSH1 0x20 SWAP4 PUSH1 0x1 SWAP2 PUSH1 0x1 DUP2 AND SWAP1 DUP2 PUSH1 0x0 EQ PUSH2 0xEB5 JUMPI POP PUSH1 0x1 EQ PUSH2 0xE74 JUMPI JUMPDEST POP POP POP POP POP JUMP JUMPDEST SWAP1 SWAP4 SWAP5 SWAP6 POP PUSH1 0x0 SWAP3 SWAP2 SWAP3 MSTORE DUP4 PUSH1 0x0 KECCAK256 SWAP3 DUP5 PUSH1 0x0 SWAP5 JUMPDEST DUP4 DUP7 LT PUSH2 0xEA1 JUMPI POP POP POP POP ADD ADD SWAP1 CODESIZE DUP1 DUP1 DUP1 DUP1 PUSH2 0xE6D JUMP JUMPDEST DUP1 SLOAD DUP6 DUP8 ADD DUP4 ADD MSTORE SWAP5 ADD SWAP4 DUP6 SWAP1 DUP3 ADD PUSH2 0xE89 JUMP JUMPDEST PUSH1 0xFF NOT AND DUP7 DUP6 ADD MSTORE POP POP POP SWAP1 ISZERO ISZERO PUSH1 0x5 SHL ADD ADD SWAP2 POP CODESIZE DUP1 DUP1 DUP1 DUP1 PUSH2 0xE6D JUMP JUMPDEST CALLVALUE PUSH2 0x2C1 JUMPI PUSH1 0x20 CALLDATASIZE PUSH1 0x3 NOT ADD SLT PUSH2 0x2C1 JUMPI PUSH1 0x4 CALLDATALOAD PUSH1 0x0 MSTORE PUSH1 0xD PUSH1 0x20 MSTORE PUSH2 0x506 PUSH2 0xF0A PUSH2 0x529 PUSH1 0x40 PUSH1 0x0 KECCAK256 PUSH1 0x40 MLOAD SWAP3 DUP4 DUP1 SWAP3 PUSH2 0xE3E JUMP JUMPDEST SUB DUP3 PUSH2 0x429 JUMP JUMPDEST CALLVALUE PUSH2 0x2C1 JUMPI PUSH1 0x0 DUP1 PUSH1 0x3 NOT CALLDATASIZE ADD SLT PUSH2 0xA56 JUMPI PUSH2 0xF2B PUSH2 0x1F25 JUMP JUMPDEST PUSH1 0x5 DUP1 SLOAD PUSH1 0x1 PUSH1 0x1 PUSH1 0xA0 SHL SUB NOT DUP2 AND SWAP1 SWAP2 SSTORE DUP2 SWAP1 PUSH1 0x1 PUSH1 0x1 PUSH1 0xA0 SHL SUB AND PUSH32 0x8BE0079C531659141344CD1FD0A4F28419497F9722A3DAAFE3B4186F6B6457E0 DUP3 DUP1 LOG3 DUP1 RETURN JUMPDEST CALLVALUE PUSH2 0x2C1 JUMPI PUSH1 0x20 CALLDATASIZE PUSH1 0x3 NOT ADD SLT PUSH2 0x2C1 JUMPI PUSH1 0x1 PUSH1 0x1 PUSH1 0xA0 SHL SUB PUSH2 0xF90 PUSH2 0x2AB JUMP JUMPDEST AND PUSH1 0x0 MSTORE PUSH1 0xF PUSH1 0x20 MSTORE PUSH1 0x20 PUSH1 0x40 PUSH1 0x0 KECCAK256 SLOAD PUSH1 0x40 MLOAD SWAP1 DUP2 MSTORE RETURN JUMPDEST CALLVALUE PUSH2 0x2C1 JUMPI PUSH1 0x0 CALLDATASIZE PUSH1 0x3 NOT ADD SLT PUSH2 0x2C1 JUMPI PUSH2 0xFC2 PUSH2 0x1F25 JUMP JUMPDEST PUSH2 0xFCA PUSH2 0x1F51 JUMP JUMPDEST PUSH1 0x5 DUP1 SLOAD PUSH1 0xFF PUSH1 0xA0 SHL NOT AND PUSH1 0x1 PUSH1 0xA0 SHL OR SWAP1 SSTORE PUSH1 0x40 MLOAD CALLER DUP2 MSTORE PUSH32 0x62E78CEA01BEE320CD4E420270B5EA74000D11B0C9F74754EBDBFC544B05A258 SWAP1 PUSH1 0x20 SWAP1 LOG1 STOP JUMPDEST CALLVALUE PUSH2 0x2C1 JUMPI PUSH1 0x0 CALLDATASIZE PUSH1 0x3 NOT ADD SLT PUSH2 0x2C1 JUMPI PUSH2 0x109E PUSH2 0x1048 PUSH32 0x0 PUSH2 0x22D6 JUMP JUMPDEST PUSH2 0x506 PUSH2 0x1074 PUSH32 0x0 PUSH2 0x23D6 JUMP JUMPDEST PUSH2 0x10AC PUSH2 0x107F PUSH2 0x1DE5 JUMP JUMPDEST SWAP2 PUSH1 0x40 MLOAD SWAP6 DUP7 SWAP6 PUSH1 0xF PUSH1 0xF8 SHL DUP8 MSTORE PUSH1 0xE0 PUSH1 0x20 DUP9 ADD MSTORE PUSH1 0xE0 DUP8 ADD SWAP1 PUSH2 0x478 JUMP JUMPDEST SWAP1 DUP6 DUP3 SUB PUSH1 0x40 DUP8 ADD MSTORE PUSH2 0x478 JUMP JUMPDEST SWAP1 CHAINID PUSH1 0x60 DUP6 ADD MSTORE ADDRESS PUSH1 0x80 DUP6 ADD MSTORE PUSH1 0x0 PUSH1 0xA0 DUP6 ADD MSTORE DUP4 DUP3 SUB PUSH1 0xC0 DUP6 ADD MSTORE PUSH2 0xBD3 JUMP JUMPDEST PUSH1 0xA0 CALLDATASIZE PUSH1 0x3 NOT ADD SLT PUSH2 0x2C1 JUMPI PUSH1 0x4 PUSH1 0x1 PUSH1 0x1 PUSH1 0x40 SHL SUB DUP2 CALLDATALOAD PUSH1 0x24 CALLDATALOAD DUP3 DUP2 GT PUSH2 0x2C1 JUMPI PUSH2 0x10FC SWAP1 CALLDATASIZE SWAP1 DUP6 ADD PUSH2 0x55B JUMP JUMPDEST SWAP3 PUSH1 0x44 CALLDATALOAD SWAP4 PUSH1 0x64 CALLDATALOAD SWAP2 PUSH1 0x84 CALLDATALOAD SWAP1 DUP2 GT PUSH2 0x2C1 JUMPI PUSH2 0x111C SWAP1 CALLDATASIZE SWAP1 DUP9 ADD PUSH2 0x55B JUMP JUMPDEST PUSH2 0x1127 SWAP4 SWAP2 SWAP4 PUSH2 0x1F51 JUMP JUMPDEST PUSH1 0x9 SLOAD CALLVALUE LT PUSH2 0x148B JUMPI DUP2 TIMESTAMP GT PUSH2 0x147A JUMPI CALLER PUSH1 0x0 SWAP1 DUP2 MSTORE PUSH1 0xF PUSH1 0x20 MSTORE PUSH1 0x40 SWAP1 KECCAK256 SLOAD SWAP2 PUSH2 0x1151 DUP4 PUSH2 0x1EF6 JUMP JUMPDEST CALLER PUSH1 0x0 SWAP1 DUP2 MSTORE PUSH1 0xF PUSH1 0x20 MSTORE PUSH1 0x40 SWAP1 KECCAK256 SSTORE DUP7 ISZERO SWAP5 DUP6 ISZERO PUSH2 0x13EC JUMPI CALLER PUSH1 0x0 SWAP1 DUP2 MSTORE PUSH1 0xE PUSH1 0x20 MSTORE PUSH1 0x40 SWAP1 KECCAK256 SLOAD PUSH2 0x13DB JUMPI DUP7 PUSH1 0xB SLOAD SWAP9 DUP11 PUSH2 0x118D DUP12 PUSH2 0x1F16 JUMP JUMPDEST PUSH1 0xB SSTORE PUSH2 0x1227 PUSH2 0x123D SWAP8 PUSH2 0x1219 PUSH2 0x1237 SWAP8 PUSH2 0x11AE PUSH2 0x122F SWAP8 JUMPDEST DUP14 CALLDATASIZE SWAP2 PUSH2 0x7B8 JUMP JUMPDEST PUSH1 0x20 DUP2 MLOAD SWAP2 ADD KECCAK256 SWAP3 PUSH1 0x40 MLOAD SWAP6 DUP7 SWAP5 PUSH1 0x20 DUP7 ADD SWAP9 CALLER DUP11 SWAP3 PUSH1 0xC0 SWAP5 SWAP2 SWAP8 SWAP7 SWAP6 SWAP3 PUSH1 0xE0 DUP6 ADD SWAP9 PUSH32 0xEC542AE32C64D840EE3F8839BD7E51048005316E81A9044AAF547EF82A3EA260 DUP7 MSTORE PUSH1 0x1 DUP1 PUSH1 0xA0 SHL SUB AND PUSH1 0x20 DUP7 ADD MSTORE PUSH1 0x40 DUP6 ADD MSTORE PUSH1 0x60 DUP5 ADD MSTORE PUSH1 0x80 DUP4 ADD MSTORE PUSH1 0xA0 DUP3 ADD MSTORE ADD MSTORE JUMP JUMPDEST SUB PUSH1 0x1F NOT DUP2 ADD DUP4 MSTORE DUP3 PUSH2 0x429 JUMP JUMPDEST MLOAD SWAP1 KECCAK256 PUSH2 0x1F72 JUMP JUMPDEST SWAP3 CALLDATASIZE SWAP2 PUSH2 0x7B8 JUMP JUMPDEST SWAP1 PUSH2 0x1F98 JUMP JUMPDEST PUSH1 0x8 SLOAD PUSH2 0x1252 SWAP1 PUSH1 0x1 PUSH1 0x1 PUSH1 0xA0 SHL SUB AND PUSH2 0xB29 JUMP JUMPDEST PUSH1 0x1 PUSH1 0x1 PUSH1 0xA0 SHL SUB SWAP1 SWAP2 AND SUB PUSH2 0x13CA JUMPI DUP4 SWAP2 PUSH2 0x132A JUMPI JUMPDEST POP POP POP PUSH2 0x12AB PUSH2 0x129E CALLER PUSH2 0x1287 DUP5 PUSH1 0x0 MSTORE PUSH1 0x10 PUSH1 0x20 MSTORE PUSH1 0x40 PUSH1 0x0 KECCAK256 SWAP1 JUMP JUMPDEST SWAP1 PUSH1 0x1 DUP1 PUSH1 0xA0 SHL SUB AND PUSH1 0x0 MSTORE PUSH1 0x20 MSTORE PUSH1 0x40 PUSH1 0x0 KECCAK256 SWAP1 JUMP JUMPDEST DUP1 SLOAD PUSH1 0xFF NOT AND PUSH1 0x1 OR SWAP1 SSTORE JUMP JUMPDEST PUSH2 0x12BE PUSH2 0x12B6 PUSH2 0x465 JUMP JUMPDEST DUP4 DUP4 CALLER PUSH2 0x1FAE JUMP JUMPDEST PUSH1 0x40 MLOAD SWAP2 DUP3 MSTORE CALLER SWAP2 PUSH32 0xDE9A65531D1D6233045D2F3CAC5D81C03948BDEF576B6240FF3B4A64064774BE SWAP1 PUSH1 0x20 SWAP1 LOG3 PUSH1 0x0 DUP1 DUP1 DUP1 CALLVALUE PUSH2 0x1309 PUSH2 0xB29 PUSH2 0xB29 PUSH1 0xA SLOAD PUSH1 0x1 DUP1 PUSH1 0xA0 SHL SUB AND SWAP1 JUMP JUMPDEST GAS CALL PUSH2 0x1313 PUSH2 0x1D0B JUMP JUMPDEST POP ISZERO PUSH2 0x131B JUMPI STOP JUMPDEST PUSH1 0x40 MLOAD PUSH4 0x1D42C867 PUSH1 0xE2 SHL DUP2 MSTORE REVERT JUMPDEST PUSH2 0x13BF PUSH32 0xB32AABE5102FD42CF5C1BDA2CB26A392AD451295B602B3D36FDB64DDA4F20AE SWAP2 PUSH2 0x1386 CALLER PUSH2 0x1367 DUP7 PUSH1 0x0 MSTORE PUSH1 0xC PUSH1 0x20 MSTORE PUSH1 0x40 PUSH1 0x0 KECCAK256 SWAP1 JUMP JUMPDEST DUP1 SLOAD PUSH1 0x1 PUSH1 0x1 PUSH1 0xA0 SHL SUB NOT AND PUSH1 0x1 PUSH1 0x1 PUSH1 0xA0 SHL SUB SWAP1 SWAP3 AND SWAP2 SWAP1 SWAP2 OR SWAP1 SSTORE JUMP JUMPDEST PUSH2 0x139F DUP2 DUP7 PUSH2 0xB6B DUP8 PUSH1 0x0 MSTORE PUSH1 0xD PUSH1 0x20 MSTORE PUSH1 0x40 PUSH1 0x0 KECCAK256 SWAP1 JUMP JUMPDEST CALLER PUSH1 0x0 SWAP1 DUP2 MSTORE PUSH1 0xE PUSH1 0x20 MSTORE PUSH1 0x40 SWAP1 KECCAK256 DUP5 SWAP1 SSTORE PUSH1 0x40 MLOAD SWAP2 DUP3 SWAP2 CALLER SWAP7 DUP4 PUSH2 0x1CE3 JUMP JUMPDEST SUB SWAP1 LOG3 CODESIZE DUP2 DUP2 PUSH2 0x1269 JUMP JUMPDEST PUSH1 0x40 MLOAD PUSH4 0x8BAA579F PUSH1 0xE0 SHL DUP2 MSTORE DUP7 SWAP1 REVERT JUMPDEST PUSH1 0x40 MLOAD PUSH4 0x1AC1050B PUSH1 0xE2 SHL DUP2 MSTORE DUP11 SWAP1 REVERT JUMPDEST PUSH1 0x0 DUP9 DUP2 MSTORE PUSH1 0xC PUSH1 0x20 MSTORE PUSH1 0x40 SWAP1 KECCAK256 DUP9 SWAP5 SWAP3 SWAP1 PUSH1 0x1 PUSH1 0x1 PUSH1 0xA0 SHL SUB SWAP1 PUSH2 0x1410 SWAP1 PUSH2 0xB1C JUMP JUMPDEST AND ISZERO PUSH2 0x1469 JUMPI PUSH2 0x1438 PUSH2 0x1431 CALLER PUSH2 0x1287 DUP9 PUSH1 0x0 MSTORE PUSH1 0x10 PUSH1 0x20 MSTORE PUSH1 0x40 PUSH1 0x0 KECCAK256 SWAP1 JUMP JUMPDEST SLOAD PUSH1 0xFF AND SWAP1 JUMP JUMPDEST PUSH2 0x1458 JUMPI PUSH2 0x123D SWAP5 DUP11 PUSH2 0x1227 PUSH2 0x1237 SWAP6 PUSH2 0x1219 PUSH2 0x122F SWAP6 PUSH2 0x11AE DUP15 PUSH2 0x11A6 JUMP JUMPDEST PUSH1 0x40 MLOAD PUSH4 0x2340E673 PUSH1 0xE2 SHL DUP2 MSTORE DUP12 SWAP1 REVERT JUMPDEST PUSH1 0x40 MLOAD PUSH4 0x2CE0136B PUSH1 0xE0 SHL DUP2 MSTORE DUP12 SWAP1 REVERT JUMPDEST PUSH1 0x40 MLOAD PUSH4 0x819BDCD PUSH1 0xE0 SHL DUP2 MSTORE DUP9 SWAP1 REVERT JUMPDEST PUSH1 0x40 MLOAD PUSH3 0x976F75 PUSH1 0xE2 SHL DUP2 MSTORE DUP9 SWAP1 REVERT JUMPDEST CALLVALUE PUSH2 0x2C1 JUMPI PUSH1 0x0 CALLDATASIZE PUSH1 0x3 NOT ADD SLT PUSH2 0x2C1 JUMPI PUSH1 0x5 SLOAD PUSH1 0x40 MLOAD PUSH1 0x1 PUSH1 0x1 PUSH1 0xA0 SHL SUB SWAP1 SWAP2 AND DUP2 MSTORE PUSH1 0x20 SWAP1 RETURN JUMPDEST CALLVALUE PUSH2 0x2C1 JUMPI PUSH1 0x0 CALLDATASIZE PUSH1 0x3 NOT ADD SLT PUSH2 0x2C1 JUMPI PUSH2 0x506 PUSH1 0x40 MLOAD PUSH2 0x14E4 DUP2 PUSH2 0x3F3 JUMP JUMPDEST PUSH1 0x4 DUP2 MSTORE PUSH4 0x434D5053 PUSH1 0xE0 SHL PUSH1 0x20 DUP3 ADD MSTORE PUSH1 0x40 MLOAD SWAP2 DUP3 SWAP2 PUSH1 0x20 DUP4 MSTORE PUSH1 0x20 DUP4 ADD SWAP1 PUSH2 0x478 JUMP JUMPDEST CALLVALUE PUSH2 0x2C1 JUMPI PUSH1 0x40 CALLDATASIZE PUSH1 0x3 NOT ADD SLT PUSH2 0x2C1 JUMPI PUSH2 0x1522 PUSH2 0x2AB JUMP JUMPDEST PUSH1 0x24 CALLDATALOAD SWAP1 DUP2 ISZERO ISZERO SWAP1 DUP2 DUP4 SUB PUSH2 0x2C1 JUMPI PUSH1 0x1 PUSH1 0x1 PUSH1 0xA0 SHL SUB DUP2 AND SWAP3 DUP4 ISZERO PUSH2 0x15AD JUMPI PUSH2 0x156E PUSH2 0x157F SWAP3 CALLER PUSH1 0x0 MSTORE PUSH1 0x1 PUSH1 0x20 MSTORE PUSH1 0x40 PUSH1 0x0 KECCAK256 SWAP1 PUSH1 0x1 DUP1 PUSH1 0xA0 SHL SUB AND PUSH1 0x0 MSTORE PUSH1 0x20 MSTORE PUSH1 0x40 PUSH1 0x0 KECCAK256 SWAP1 JUMP JUMPDEST SWAP1 PUSH1 0xFF DUP1 NOT DUP4 SLOAD AND SWAP2 ISZERO ISZERO AND OR SWAP1 SSTORE JUMP JUMPDEST PUSH1 0x40 MLOAD SWAP1 DUP2 MSTORE PUSH32 0x17307EAB39AB6107E8899845AD3D59BD9653F200F220920489CA2B5937696C31 PUSH1 0x20 CALLER SWAP3 LOG3 STOP JUMPDEST PUSH1 0x40 MLOAD PUSH3 0xCED3E1 PUSH1 0xE8 SHL DUP2 MSTORE PUSH1 0x0 PUSH1 0x4 DUP3 ADD MSTORE PUSH1 0x24 SWAP1 REVERT JUMPDEST CALLVALUE PUSH2 0x2C1 JUMPI PUSH1 0x0 CALLDATASIZE PUSH1 0x3 NOT ADD SLT PUSH2 0x2C1 JUMPI PUSH2 0x506 PUSH1 0x40 MLOAD PUSH2 0x15E5 DUP2 PUSH2 0x3F3 JUMP JUMPDEST PUSH1 0xD DUP2 MSTORE PUSH13 0x436F6D7075736F70686C657473 PUSH1 0x98 SHL PUSH1 0x20 DUP3 ADD MSTORE PUSH1 0x40 MLOAD SWAP2 DUP3 SWAP2 PUSH1 0x20 DUP4 MSTORE PUSH1 0x20 DUP4 ADD SWAP1 PUSH2 0x478 JUMP JUMPDEST CALLVALUE PUSH2 0x2C1 JUMPI PUSH1 0x20 CALLDATASIZE PUSH1 0x3 NOT ADD SLT PUSH2 0x2C1 JUMPI PUSH1 0x1 PUSH1 0x1 PUSH1 0xA0 SHL SUB PUSH2 0x1634 PUSH2 0x2AB JUMP JUMPDEST AND PUSH1 0x0 MSTORE PUSH1 0xE PUSH1 0x20 MSTORE PUSH1 0x20 PUSH1 0x40 PUSH1 0x0 KECCAK256 SLOAD PUSH1 0x40 MLOAD SWAP1 DUP2 MSTORE RETURN JUMPDEST CALLVALUE PUSH2 0x2C1 JUMPI PUSH1 0x20 CALLDATASIZE PUSH1 0x3 NOT ADD SLT PUSH2 0x2C1 JUMPI PUSH1 0x4 CALLDATALOAD PUSH1 0x0 MSTORE PUSH1 0x3 PUSH1 0x20 MSTORE PUSH1 0x20 PUSH1 0x40 PUSH1 0x0 KECCAK256 SLOAD PUSH1 0x40 MLOAD SWAP1 DUP2 MSTORE RETURN JUMPDEST CALLVALUE PUSH2 0x2C1 JUMPI PUSH1 0x40 CALLDATASIZE PUSH1 0x3 NOT ADD SLT PUSH2 0x2C1 JUMPI PUSH1 0x20 PUSH1 0xFF PUSH2 0x16BF PUSH2 0x1699 PUSH2 0x2C6 JUMP JUMPDEST PUSH1 0x4 CALLDATALOAD PUSH1 0x0 MSTORE PUSH1 0x10 DUP5 MSTORE PUSH1 0x40 PUSH1 0x0 KECCAK256 SWAP1 PUSH1 0x1 DUP1 PUSH1 0xA0 SHL SUB AND PUSH1 0x0 MSTORE PUSH1 0x20 MSTORE PUSH1 0x40 PUSH1 0x0 KECCAK256 SWAP1 JUMP JUMPDEST SLOAD AND PUSH1 0x40 MLOAD SWAP1 ISZERO ISZERO DUP2 MSTORE RETURN JUMPDEST CALLVALUE PUSH2 0x2C1 JUMPI PUSH1 0x0 CALLDATASIZE PUSH1 0x3 NOT ADD SLT PUSH2 0x2C1 JUMPI PUSH1 0x20 PUSH1 0xB SLOAD PUSH1 0x40 MLOAD SWAP1 DUP2 MSTORE RETURN JUMPDEST CALLVALUE PUSH2 0x2C1 JUMPI PUSH1 0x20 CALLDATASIZE PUSH1 0x3 NOT ADD SLT PUSH2 0x2C1 JUMPI PUSH1 0x4 CALLDATALOAD PUSH1 0x0 MSTORE PUSH1 0xC PUSH1 0x20 MSTORE PUSH1 0x20 PUSH1 0x1 DUP1 PUSH1 0xA0 SHL SUB PUSH1 0x40 PUSH1 0x0 KECCAK256 SLOAD AND PUSH1 0x40 MLOAD SWAP1 DUP2 MSTORE RETURN JUMPDEST CALLVALUE PUSH2 0x2C1 JUMPI PUSH1 0x20 CALLDATASIZE PUSH1 0x3 NOT ADD SLT PUSH2 0x2C1 JUMPI PUSH2 0x1736 PUSH2 0x2AB JUMP JUMPDEST PUSH2 0x173E PUSH2 0x1F25 JUMP JUMPDEST PUSH1 0x1 PUSH1 0x1 PUSH1 0xA0 SHL SUB DUP2 DUP2 AND DUP1 ISZERO PUSH2 0xD90 JUMPI PUSH1 0xA DUP1 SLOAD PUSH1 0x1 PUSH1 0x1 PUSH1 0xA0 SHL SUB NOT DUP2 AND SWAP1 SWAP3 OR SWAP1 SSTORE PUSH1 0x40 DUP1 MLOAD PUSH1 0x1 PUSH1 0x1 PUSH1 0xA0 SHL SUB SWAP4 SWAP1 SWAP3 AND DUP4 AND DUP3 MSTORE SWAP2 SWAP1 SWAP3 AND PUSH1 0x20 DUP4 ADD MSTORE PUSH32 0xAAEBCF1BFA00580E41D966056B48521FA9F202645C86D4DDF28113E617C1B1D3 SWAP2 SWAP1 DUP2 SWAP1 DUP2 ADD PUSH2 0xD8B JUMP JUMPDEST CALLVALUE PUSH2 0x2C1 JUMPI PUSH1 0x40 CALLDATASIZE PUSH1 0x3 NOT ADD SLT PUSH2 0x2C1 JUMPI PUSH1 0x20 PUSH1 0xFF PUSH2 0x16BF PUSH2 0x17CC PUSH2 0x2AB JUMP JUMPDEST PUSH2 0x17D4 PUSH2 0x2C6 JUMP JUMPDEST PUSH1 0x1 PUSH1 0x1 PUSH1 0xA0 SHL SUB SWAP2 DUP3 AND PUSH1 0x0 SWAP1 DUP2 MSTORE PUSH1 0x1 DUP7 MSTORE PUSH1 0x40 DUP1 DUP3 KECCAK256 SWAP3 SWAP1 SWAP4 AND DUP2 MSTORE PUSH1 0x20 SWAP2 SWAP1 SWAP2 MSTORE KECCAK256 SWAP1 JUMP JUMPDEST CALLVALUE PUSH2 0x2C1 JUMPI PUSH1 0x20 CALLDATASIZE PUSH1 0x3 NOT ADD SLT PUSH2 0x2C1 JUMPI PUSH32 0x7864BF708CAE822050E5F50960A0DE31BD6FE7620A8F67A48582FB95F29C114A PUSH1 0x4 CALLDATALOAD PUSH2 0x183A PUSH2 0x1F25 JUMP JUMPDEST PUSH1 0x9 SLOAD DUP2 PUSH1 0x9 SSTORE PUSH2 0xD8B PUSH1 0x40 MLOAD SWAP3 DUP4 SWAP3 DUP4 PUSH1 0x20 SWAP1 SWAP4 SWAP3 SWAP2 SWAP4 PUSH1 0x40 DUP2 ADD SWAP5 DUP2 MSTORE ADD MSTORE JUMP JUMPDEST CALLVALUE PUSH2 0x2C1 JUMPI PUSH1 0xA0 CALLDATASIZE PUSH1 0x3 NOT ADD SLT PUSH2 0x2C1 JUMPI PUSH2 0x1876 PUSH2 0x2AB JUMP JUMPDEST PUSH2 0x187E PUSH2 0x2C6 JUMP JUMPDEST PUSH1 0x84 CALLDATALOAD PUSH1 0x1 PUSH1 0x1 PUSH1 0x40 SHL SUB DUP2 GT PUSH2 0x2C1 JUMPI PUSH2 0x189D SWAP1 CALLDATASIZE SWAP1 PUSH1 0x4 ADD PUSH2 0x7EF JUMP JUMPDEST SWAP1 PUSH1 0x1 PUSH1 0x1 PUSH1 0xA0 SHL SUB DUP4 DUP2 AND SWAP1 CALLER DUP3 EQ ISZERO DUP1 PUSH2 0x1956 JUMPI JUMPDEST PUSH2 0x192F JUMPI DUP3 AND ISZERO PUSH2 0x1916 JUMPI ISZERO PUSH2 0x18FE JUMPI PUSH2 0x8B3 SWAP3 PUSH2 0x18F6 PUSH1 0x64 CALLDATALOAD PUSH1 0x44 CALLDATALOAD SWAP2 PUSH1 0x40 MLOAD SWAP3 PUSH1 0x1 DUP5 MSTORE PUSH1 0x20 DUP5 ADD MSTORE PUSH1 0x40 DUP4 ADD SWAP2 PUSH1 0x1 DUP4 MSTORE PUSH1 0x60 DUP5 ADD MSTORE PUSH1 0x80 DUP4 ADD PUSH1 0x40 MSTORE JUMP JUMPDEST SWAP3 SWAP1 SWAP2 PUSH2 0x21A4 JUMP JUMPDEST PUSH1 0x40 MLOAD PUSH3 0x6A0D45 PUSH1 0xE2 SHL DUP2 MSTORE PUSH1 0x0 PUSH1 0x4 DUP3 ADD MSTORE PUSH1 0x24 SWAP1 REVERT JUMPDEST PUSH1 0x40 MLOAD PUSH4 0x2BFA23E7 PUSH1 0xE1 SHL DUP2 MSTORE PUSH1 0x0 PUSH1 0x4 DUP3 ADD MSTORE PUSH1 0x24 SWAP1 REVERT JUMPDEST PUSH1 0x40 MLOAD PUSH4 0x711BEC91 PUSH1 0xE1 SHL DUP2 MSTORE CALLER PUSH1 0x4 DUP3 ADD MSTORE PUSH1 0x1 PUSH1 0x1 PUSH1 0xA0 SHL SUB DUP7 AND PUSH1 0x24 DUP3 ADD MSTORE PUSH1 0x44 SWAP1 REVERT JUMPDEST POP PUSH1 0x0 DUP3 DUP2 MSTORE PUSH1 0x1 PUSH1 0x20 SWAP1 DUP2 MSTORE PUSH1 0x40 DUP1 DUP4 KECCAK256 CALLER DUP5 MSTORE SWAP1 SWAP2 MSTORE SWAP1 KECCAK256 SLOAD PUSH1 0xFF AND ISZERO PUSH2 0x18B4 JUMP JUMPDEST CALLVALUE PUSH2 0x2C1 JUMPI PUSH1 0x20 CALLDATASIZE PUSH1 0x3 NOT ADD SLT PUSH2 0x2C1 JUMPI PUSH2 0x1993 PUSH2 0x2AB JUMP JUMPDEST PUSH2 0x199B PUSH2 0x1F25 JUMP JUMPDEST PUSH1 0x1 PUSH1 0x1 PUSH1 0xA0 SHL SUB SWAP1 DUP2 AND SWAP1 DUP2 ISZERO PUSH2 0x19EF JUMPI PUSH1 0x5 SLOAD DUP3 PUSH12 0xFFFFFFFFFFFFFFFFFFFFFFFF PUSH1 0xA0 SHL DUP3 AND OR PUSH1 0x5 SSTORE AND PUSH32 0x8BE0079C531659141344CD1FD0A4F28419497F9722A3DAAFE3B4186F6B6457E0 PUSH1 0x0 DUP1 LOG3 STOP JUMPDEST PUSH1 0x40 MLOAD PUSH4 0x1E4FBDF7 PUSH1 0xE0 SHL DUP2 MSTORE PUSH1 0x0 PUSH1 0x4 DUP3 ADD MSTORE PUSH1 0x24 SWAP1 REVERT JUMPDEST CALLVALUE PUSH2 0x2C1 JUMPI PUSH1 0x0 CALLDATASIZE PUSH1 0x3 NOT ADD SLT PUSH2 0x2C1 JUMPI PUSH1 0x20 PUSH2 0x1A23 PUSH2 0x208A JUMP JUMPDEST PUSH1 0x40 MLOAD SWAP1 DUP2 MSTORE RETURN JUMPDEST CALLVALUE PUSH2 0x2C1 JUMPI PUSH1 0x0 CALLDATASIZE PUSH1 0x3 NOT ADD SLT PUSH2 0x2C1 JUMPI PUSH1 0x8 SLOAD PUSH1 0x40 MLOAD PUSH1 0x1 PUSH1 0x1 PUSH1 0xA0 SHL SUB SWAP1 SWAP2 AND DUP2 MSTORE PUSH1 0x20 SWAP1 RETURN JUMPDEST CALLVALUE PUSH2 0x2C1 JUMPI PUSH1 0x0 CALLDATASIZE PUSH1 0x3 NOT ADD SLT PUSH2 0x2C1 JUMPI PUSH1 0x20 PUSH1 0x40 MLOAD PUSH32 0xEC542AE32C64D840EE3F8839BD7E51048005316E81A9044AAF547EF82A3EA260 DUP2 MSTORE RETURN JUMPDEST CALLVALUE PUSH2 0x2C1 JUMPI PUSH1 0x0 CALLDATASIZE PUSH1 0x3 NOT ADD SLT PUSH2 0x2C1 JUMPI PUSH2 0x506 PUSH1 0x40 MLOAD PUSH2 0x1AAF DUP2 PUSH2 0x3F3 JUMP JUMPDEST PUSH1 0x1 DUP2 MSTORE PUSH1 0x31 PUSH1 0xF8 SHL PUSH1 0x20 DUP3 ADD MSTORE PUSH1 0x40 MLOAD SWAP2 DUP3 SWAP2 PUSH1 0x20 DUP4 MSTORE PUSH1 0x20 DUP4 ADD SWAP1 PUSH2 0x478 JUMP JUMPDEST PUSH1 0x0 MSTORE PUSH2 0x1AF1 PUSH1 0x20 PUSH1 0xD DUP2 MSTORE PUSH2 0x1AF8 PUSH1 0x40 PUSH1 0x0 KECCAK256 PUSH1 0x40 MLOAD SWAP4 DUP5 DUP1 SWAP3 PUSH2 0xE3E JUMP JUMPDEST SUB DUP4 PUSH2 0x429 JUMP JUMPDEST DUP2 MLOAD ISZERO PUSH2 0x1B03 JUMPI POP SWAP1 JUMP JUMPDEST SWAP1 POP PUSH1 0x40 MLOAD SWAP1 DUP2 PUSH1 0x0 PUSH1 0x2 SLOAD PUSH2 0x1B18 DUP2 PUSH2 0xE04 JUMP JUMPDEST DUP1 DUP5 MSTORE SWAP1 PUSH1 0x1 SWAP1 DUP2 DUP2 AND SWAP1 DUP2 ISZERO PUSH2 0x1B9F JUMPI POP PUSH1 0x1 EQ PUSH2 0x1B40 JUMPI JUMPDEST POP POP PUSH2 0x80A SWAP3 POP SUB DUP3 PUSH2 0x429 JUMP JUMPDEST SWAP1 SWAP4 SWAP2 POP PUSH1 0x2 PUSH1 0x0 MSTORE PUSH32 0x405787FA12A823E0F2B7631CC41B3BA8828B3321CA811111FA75CD3AA3BB5ACE SWAP4 PUSH1 0x0 SWAP2 JUMPDEST DUP2 DUP4 LT PUSH2 0x1B87 JUMPI POP POP PUSH2 0x80A SWAP4 POP DUP3 ADD ADD CODESIZE DUP1 PUSH2 0x1B32 JUMP JUMPDEST DUP6 SLOAD DUP8 DUP5 ADD DUP6 ADD MSTORE SWAP5 DUP6 ADD SWAP5 DUP7 SWAP5 POP SWAP2 DUP4 ADD SWAP2 PUSH2 0x1B6F JUMP JUMPDEST SWAP2 POP POP PUSH2 0x80A SWAP5 SWAP3 POP PUSH1 0xFF NOT AND DUP3 DUP5 ADD MSTORE ISZERO ISZERO PUSH1 0x5 SHL DUP3 ADD ADD CODESIZE DUP1 PUSH2 0x1B32 JUMP JUMPDEST SWAP1 PUSH1 0x1F DUP2 GT PUSH2 0x1BCD JUMPI POP POP POP JUMP JUMPDEST PUSH1 0x0 SWAP2 PUSH1 0x0 MSTORE PUSH1 0x20 PUSH1 0x0 KECCAK256 SWAP1 PUSH1 0x20 PUSH1 0x1F DUP6 ADD PUSH1 0x5 SHR DUP4 ADD SWAP5 LT PUSH2 0x1C0B JUMPI JUMPDEST PUSH1 0x1F ADD PUSH1 0x5 SHR ADD SWAP2 JUMPDEST DUP3 DUP2 LT PUSH2 0x1C00 JUMPI POP POP POP JUMP JUMPDEST DUP2 DUP2 SSTORE PUSH1 0x1 ADD PUSH2 0x1BF4 JUMP JUMPDEST SWAP1 SWAP3 POP DUP3 SWAP1 PUSH2 0x1BEB JUMP JUMPDEST SWAP1 SWAP3 SWAP2 PUSH1 0x1 PUSH1 0x1 PUSH1 0x40 SHL SUB DUP2 GT PUSH2 0x3EE JUMPI PUSH2 0x1C3A DUP2 PUSH2 0x1C34 DUP5 SLOAD PUSH2 0xE04 JUMP JUMPDEST DUP5 PUSH2 0x1BBF JUMP JUMPDEST PUSH1 0x0 PUSH1 0x1F DUP3 GT PUSH1 0x1 EQ PUSH2 0x1C7B JUMPI DUP2 SWAP1 PUSH2 0x1C6C SWAP4 SWAP5 SWAP6 PUSH1 0x0 SWAP3 PUSH2 0x1C70 JUMPI JUMPDEST POP POP DUP2 PUSH1 0x1 SHL SWAP2 PUSH1 0x0 NOT SWAP1 PUSH1 0x3 SHL SHR NOT AND OR SWAP1 JUMP JUMPDEST SWAP1 SSTORE JUMP JUMPDEST ADD CALLDATALOAD SWAP1 POP CODESIZE DUP1 PUSH2 0x1C57 JUMP JUMPDEST PUSH1 0x1F NOT DUP3 AND SWAP5 PUSH2 0x1C90 DUP5 PUSH1 0x0 MSTORE PUSH1 0x20 PUSH1 0x0 KECCAK256 SWAP1 JUMP JUMPDEST SWAP2 DUP1 JUMPDEST DUP8 DUP2 LT PUSH2 0x1CCB JUMPI POP DUP4 PUSH1 0x1 SWAP6 SWAP7 SWAP8 LT PUSH2 0x1CB1 JUMPI JUMPDEST POP POP POP DUP2 SHL ADD SWAP1 SSTORE JUMP JUMPDEST ADD CALLDATALOAD PUSH1 0x0 NOT PUSH1 0x3 DUP5 SWAP1 SHL PUSH1 0xF8 AND SHR NOT AND SWAP1 SSTORE CODESIZE DUP1 DUP1 PUSH2 0x1CA7 JUMP JUMPDEST SWAP1 SWAP3 PUSH1 0x20 PUSH1 0x1 DUP2 SWAP3 DUP7 DUP7 ADD CALLDATALOAD DUP2 SSTORE ADD SWAP5 ADD SWAP2 ADD PUSH2 0x1C93 JUMP JUMPDEST SWAP1 SWAP2 DUP1 PUSH1 0x40 SWAP4 PUSH1 0x20 DUP5 MSTORE DUP2 PUSH1 0x20 DUP6 ADD MSTORE DUP5 DUP5 ADD CALLDATACOPY PUSH1 0x0 DUP3 DUP3 ADD DUP5 ADD MSTORE PUSH1 0x1F ADD PUSH1 0x1F NOT AND ADD ADD SWAP1 JUMP JUMPDEST RETURNDATASIZE ISZERO PUSH2 0x1D36 JUMPI RETURNDATASIZE SWAP1 PUSH2 0x1D1C DUP3 PUSH2 0x44A JUMP JUMPDEST SWAP2 PUSH2 0x1D2A PUSH1 0x40 MLOAD SWAP4 DUP5 PUSH2 0x429 JUMP JUMPDEST DUP3 MSTORE RETURNDATASIZE PUSH1 0x0 PUSH1 0x20 DUP5 ADD RETURNDATACOPY JUMP JUMPDEST PUSH1 0x60 SWAP1 JUMP JUMPDEST ISZERO PUSH2 0x1D42 JUMPI JUMP JUMPDEST PUSH1 0x40 MLOAD PUSH3 0x461BCD PUSH1 0xE5 SHL DUP2 MSTORE PUSH1 0x20 PUSH1 0x4 DUP3 ADD MSTORE PUSH1 0xF PUSH1 0x24 DUP3 ADD MSTORE PUSH15 0x98CADCCEE8D040DAD2E6DAC2E8C6D PUSH1 0x8B SHL PUSH1 0x44 DUP3 ADD MSTORE PUSH1 0x64 SWAP1 REVERT JUMPDEST PUSH4 0x4E487B71 PUSH1 0xE0 SHL PUSH1 0x0 MSTORE PUSH1 0x32 PUSH1 0x4 MSTORE PUSH1 0x24 PUSH1 0x0 REVERT JUMPDEST SWAP2 SWAP1 DUP2 LT ISZERO PUSH2 0x1D9F JUMPI PUSH1 0x5 SHL ADD SWAP1 JUMP JUMPDEST PUSH2 0x1D79 JUMP JUMPDEST SWAP2 SWAP1 DUP2 LT ISZERO PUSH2 0x1D9F JUMPI PUSH1 0x5 SHL DUP2 ADD CALLDATALOAD SWAP1 PUSH1 0x1E NOT DUP2 CALLDATASIZE SUB ADD DUP3 SLT ISZERO PUSH2 0x2C1 JUMPI ADD SWAP1 DUP2 CALLDATALOAD SWAP2 PUSH1 0x1 PUSH1 0x1 PUSH1 0x40 SHL SUB DUP4 GT PUSH2 0x2C1 JUMPI PUSH1 0x20 ADD DUP3 CALLDATASIZE SUB DUP2 SGT PUSH2 0x2C1 JUMPI SWAP2 SWAP1 JUMP JUMPDEST PUSH1 0x40 MLOAD PUSH2 0x1DF1 DUP2 PUSH2 0x3D3 JUMP JUMPDEST PUSH1 0x0 DUP2 MSTORE SWAP1 PUSH1 0x0 CALLDATASIZE DUP2 CALLDATACOPY JUMP JUMPDEST SWAP1 PUSH2 0x1E07 DUP3 PUSH2 0x741 JUMP JUMPDEST PUSH2 0x1E14 PUSH1 0x40 MLOAD SWAP2 DUP3 PUSH2 0x429 JUMP JUMPDEST DUP3 DUP2 MSTORE DUP1 SWAP3 PUSH2 0x1E25 PUSH1 0x1F NOT SWAP2 PUSH2 0x741 JUMP JUMPDEST ADD SWAP1 PUSH1 0x20 CALLDATASIZE SWAP2 ADD CALLDATACOPY JUMP JUMPDEST DUP1 MLOAD DUP3 LT ISZERO PUSH2 0x1D9F JUMPI PUSH1 0x20 SWAP2 PUSH1 0x5 SHL ADD ADD SWAP1 JUMP JUMPDEST SWAP2 SWAP1 SWAP2 DUP1 MLOAD DUP4 MLOAD DUP1 DUP3 SUB PUSH2 0x1EBE JUMPI POP POP PUSH2 0x1E5D DUP2 MLOAD PUSH2 0x1DFD JUMP JUMPDEST SWAP1 PUSH1 0x0 SWAP1 PUSH1 0x0 JUMPDEST DUP2 MLOAD DUP2 LT ISZERO PUSH2 0x1EB6 JUMPI DUP1 PUSH2 0x1EA4 PUSH1 0x1 SWAP3 PUSH1 0x5 SHL DUP6 PUSH1 0x20 DUP1 DUP1 DUP5 DUP10 ADD ADD MLOAD SWAP4 DUP13 ADD ADD MLOAD DUP3 MSTORE MSTORE PUSH1 0x40 DUP7 KECCAK256 SWAP1 PUSH1 0x1 DUP1 PUSH1 0xA0 SHL SUB AND PUSH1 0x0 MSTORE PUSH1 0x20 MSTORE PUSH1 0x40 PUSH1 0x0 KECCAK256 SWAP1 JUMP JUMPDEST SLOAD PUSH2 0x1EAF DUP3 DUP8 PUSH2 0x1E2F JUMP JUMPDEST MSTORE ADD PUSH2 0x1E64 JUMP JUMPDEST POP SWAP2 SWAP4 POP POP POP JUMP JUMPDEST PUSH1 0x40 MLOAD PUSH4 0x5B059991 PUSH1 0xE0 SHL DUP2 MSTORE PUSH1 0x4 DUP2 ADD SWAP2 SWAP1 SWAP2 MSTORE PUSH1 0x24 DUP2 ADD SWAP2 SWAP1 SWAP2 MSTORE PUSH1 0x44 SWAP1 REVERT JUMPDEST PUSH4 0x4E487B71 PUSH1 0xE0 SHL PUSH1 0x0 MSTORE PUSH1 0x11 PUSH1 0x4 MSTORE PUSH1 0x24 PUSH1 0x0 REVERT JUMPDEST SWAP1 PUSH1 0x1 DUP3 ADD DUP1 SWAP3 GT PUSH2 0x1F04 JUMPI JUMP JUMPDEST PUSH2 0x1EE0 JUMP JUMPDEST SWAP2 SWAP1 DUP3 ADD DUP1 SWAP3 GT PUSH2 0x1F04 JUMPI JUMP JUMPDEST PUSH1 0x0 NOT DUP2 EQ PUSH2 0x1F04 JUMPI PUSH1 0x1 ADD SWAP1 JUMP JUMPDEST PUSH1 0x5 SLOAD PUSH1 0x1 PUSH1 0x1 PUSH1 0xA0 SHL SUB AND CALLER SUB PUSH2 0x1F39 JUMPI JUMP JUMPDEST PUSH1 0x40 MLOAD PUSH4 0x118CDAA7 PUSH1 0xE0 SHL DUP2 MSTORE CALLER PUSH1 0x4 DUP3 ADD MSTORE PUSH1 0x24 SWAP1 REVERT JUMPDEST PUSH1 0xFF PUSH1 0x5 SLOAD PUSH1 0xA0 SHR AND PUSH2 0x1F60 JUMPI JUMP JUMPDEST PUSH1 0x40 MLOAD PUSH4 0xD93C0665 PUSH1 0xE0 SHL DUP2 MSTORE PUSH1 0x4 SWAP1 REVERT JUMPDEST PUSH1 0x42 SWAP1 PUSH2 0x1F7D PUSH2 0x208A JUMP JUMPDEST SWAP1 PUSH1 0x40 MLOAD SWAP2 PUSH2 0x1901 PUSH1 0xF0 SHL DUP4 MSTORE PUSH1 0x2 DUP4 ADD MSTORE PUSH1 0x22 DUP3 ADD MSTORE KECCAK256 SWAP1 JUMP JUMPDEST PUSH2 0x80A SWAP2 PUSH2 0x1FA5 SWAP2 PUSH2 0x2496 JUMP JUMPDEST SWAP1 SWAP3 SWAP2 SWAP3 PUSH2 0x24F2 JUMP JUMPDEST SWAP4 SWAP2 PUSH1 0x1 PUSH1 0x1 PUSH1 0xA0 SHL SUB DUP6 AND ISZERO PUSH2 0x1916 JUMPI PUSH2 0x1FE6 PUSH1 0x40 MLOAD SWAP3 PUSH1 0x1 DUP5 MSTORE PUSH1 0x20 DUP5 ADD MSTORE PUSH1 0x40 DUP4 ADD SWAP2 PUSH1 0x1 DUP4 MSTORE PUSH1 0x60 DUP5 ADD MSTORE PUSH1 0x80 DUP4 ADD PUSH1 0x40 MSTORE JUMP JUMPDEST SWAP1 SWAP2 PUSH2 0x1FF3 DUP3 DUP5 DUP8 PUSH2 0x292C JUMP JUMPDEST PUSH1 0x0 SWAP5 DUP6 JUMPDEST DUP5 MLOAD DUP8 LT ISZERO PUSH2 0x2046 JUMPI PUSH2 0x203E PUSH1 0x1 SWAP2 DUP9 PUSH1 0x5 SHL SWAP1 PUSH2 0x202C PUSH1 0x20 DUP1 DUP5 DUP11 ADD ADD MLOAD SWAP4 DUP11 ADD ADD MLOAD PUSH1 0x0 MSTORE PUSH1 0x3 PUSH1 0x20 MSTORE PUSH1 0x40 PUSH1 0x0 KECCAK256 SWAP1 JUMP JUMPDEST PUSH2 0x2037 DUP4 DUP3 SLOAD PUSH2 0x1F09 JUMP JUMPDEST SWAP1 SSTORE PUSH2 0x1F09 JUMP JUMPDEST SWAP7 ADD SWAP6 PUSH2 0x1FF8 JUMP JUMPDEST PUSH2 0x2060 SWAP2 SWAP6 SWAP5 SWAP3 SWAP7 POP PUSH2 0x205B SWAP1 PUSH1 0x4 SLOAD PUSH2 0x1F09 JUMP JUMPDEST PUSH1 0x4 SSTORE JUMP JUMPDEST DUP1 MLOAD PUSH1 0x1 SUB PUSH2 0x2080 JUMPI SWAP1 PUSH1 0x20 DUP1 PUSH2 0x207E SWAP6 SWAP4 ADD MLOAD SWAP2 ADD MLOAD SWAP2 CALLER PUSH2 0x280B JUMP JUMPDEST JUMP JUMPDEST PUSH2 0x207E SWAP4 CALLER PUSH2 0x2611 JUMP JUMPDEST ADDRESS PUSH32 0x0 PUSH1 0x1 PUSH1 0x1 PUSH1 0xA0 SHL SUB AND EQ DUP1 PUSH2 0x217B JUMPI JUMPDEST ISZERO PUSH2 0x20E5 JUMPI PUSH32 0x0 SWAP1 JUMP JUMPDEST PUSH1 0x40 MLOAD PUSH1 0x20 DUP2 ADD SWAP1 PUSH32 0x8B73C3C69BB8FE3D512ECC4CF759CC79239F7B179B0FFACAA9A75D522B39400F DUP3 MSTORE PUSH32 0x0 PUSH1 0x40 DUP3 ADD MSTORE PUSH32 0x0 PUSH1 0x60 DUP3 ADD MSTORE CHAINID PUSH1 0x80 DUP3 ADD MSTORE ADDRESS PUSH1 0xA0 DUP3 ADD MSTORE PUSH1 0xA0 DUP2 MSTORE PUSH2 0x2175 DUP2 PUSH2 0x40E JUMP JUMPDEST MLOAD SWAP1 KECCAK256 SWAP1 JUMP JUMPDEST POP PUSH32 0x0 CHAINID EQ PUSH2 0x20BC JUMP JUMPDEST SWAP2 SWAP4 SWAP3 SWAP1 PUSH2 0x21B4 DUP3 DUP7 DUP4 DUP7 PUSH2 0x2A47 JUMP JUMPDEST PUSH1 0x1 PUSH1 0x1 PUSH1 0xA0 SHL SUB DUP4 DUP2 AND ISZERO PUSH2 0x2272 JUMPI JUMPDEST DUP2 AND ISZERO DUP1 PUSH2 0x2211 JUMPI JUMPDEST ISZERO PUSH2 0x21DA JUMPI POP POP POP POP POP JUMP JUMPDEST DUP5 MLOAD PUSH1 0x1 SUB PUSH2 0x2200 JUMPI PUSH1 0x20 DUP1 PUSH2 0x21F6 SWAP7 ADD MLOAD SWAP3 ADD MLOAD SWAP3 CALLER PUSH2 0x2840 JUMP JUMPDEST CODESIZE DUP1 DUP1 DUP1 DUP1 PUSH2 0xE6D JUMP JUMPDEST PUSH2 0x220C SWAP5 SWAP2 SWAP3 CALLER PUSH2 0x270C JUMP JUMPDEST PUSH2 0x21F6 JUMP JUMPDEST SWAP5 SWAP4 PUSH1 0x0 SWAP4 SWAP1 SWAP2 DUP5 JUMPDEST DUP7 MLOAD DUP7 LT ISZERO PUSH2 0x225A JUMPI PUSH1 0x1 SWAP1 DUP7 PUSH1 0x5 SHL SWAP1 PUSH2 0x224B PUSH1 0x20 DUP1 DUP5 DUP11 ADD ADD MLOAD SWAP4 DUP12 ADD ADD MLOAD PUSH1 0x0 MSTORE PUSH1 0x3 PUSH1 0x20 MSTORE PUSH1 0x40 PUSH1 0x0 KECCAK256 SWAP1 JUMP JUMPDEST DUP3 DUP2 SLOAD SUB SWAP1 SSTORE ADD SWAP6 ADD SWAP5 PUSH2 0x221A JUMP JUMPDEST PUSH2 0x226D SWAP2 SWAP4 SWAP7 SWAP8 SWAP3 SWAP6 POP PUSH1 0x4 SLOAD SUB PUSH1 0x4 SSTORE JUMP JUMPDEST PUSH2 0x21CE JUMP JUMPDEST SWAP6 SWAP2 SWAP3 PUSH1 0x0 SWAP5 SWAP2 PUSH1 0x0 SWAP6 JUMPDEST DUP8 MLOAD DUP8 LT ISZERO PUSH2 0x22B9 JUMPI PUSH2 0x22B1 PUSH1 0x1 SWAP2 DUP9 PUSH1 0x5 SHL SWAP1 PUSH2 0x202C PUSH1 0x20 DUP1 DUP5 DUP13 ADD ADD MLOAD SWAP4 DUP14 ADD ADD MLOAD PUSH1 0x0 MSTORE PUSH1 0x3 PUSH1 0x20 MSTORE PUSH1 0x40 PUSH1 0x0 KECCAK256 SWAP1 JUMP JUMPDEST SWAP7 ADD SWAP6 PUSH2 0x227D JUMP JUMPDEST PUSH2 0x22D1 SWAP2 SWAP4 SWAP7 POP PUSH2 0x205B SWAP1 SWAP9 SWAP3 SWAP6 SWAP5 SWAP9 PUSH1 0x4 SLOAD PUSH2 0x1F09 JUMP JUMPDEST PUSH2 0x21C5 JUMP JUMPDEST PUSH1 0xFF DUP2 EQ PUSH2 0x2314 JUMPI PUSH1 0xFF DUP2 AND SWAP1 PUSH1 0x1F DUP3 GT PUSH2 0x2302 JUMPI PUSH1 0x40 MLOAD SWAP2 PUSH2 0x22F8 DUP4 PUSH2 0x3F3 JUMP JUMPDEST DUP3 MSTORE PUSH1 0x20 DUP3 ADD MSTORE SWAP1 JUMP JUMPDEST PUSH1 0x40 MLOAD PUSH4 0x2CD44AC3 PUSH1 0xE2 SHL DUP2 MSTORE PUSH1 0x4 SWAP1 REVERT JUMPDEST POP PUSH1 0x40 MLOAD PUSH1 0x6 SLOAD DUP2 PUSH1 0x0 PUSH2 0x2327 DUP4 PUSH2 0xE04 JUMP JUMPDEST DUP1 DUP4 MSTORE SWAP3 PUSH1 0x20 SWAP1 PUSH1 0x1 SWAP1 DUP2 DUP2 AND SWAP1 DUP2 ISZERO PUSH2 0x23B2 JUMPI POP PUSH1 0x1 EQ PUSH2 0x2351 JUMPI POP POP PUSH2 0x80A SWAP3 POP SUB DUP3 PUSH2 0x429 JUMP JUMPDEST SWAP2 POP SWAP3 PUSH1 0x6 PUSH1 0x0 MSTORE PUSH32 0xF652222313E28459528D920B65115C16C04F3EFC82AAEDC97BE59F3F377C0D3F SWAP4 PUSH1 0x0 SWAP3 JUMPDEST DUP3 DUP5 LT PUSH2 0x239A JUMPI POP PUSH2 0x80A SWAP5 POP POP POP DUP2 ADD PUSH1 0x20 ADD CODESIZE DUP1 PUSH2 0x1B32 JUMP JUMPDEST DUP6 SLOAD DUP8 DUP6 ADD DUP4 ADD MSTORE SWAP5 DUP6 ADD SWAP5 DUP7 SWAP5 POP SWAP3 DUP2 ADD SWAP3 PUSH2 0x237F JUMP JUMPDEST SWAP2 POP POP PUSH1 0x20 SWAP3 POP PUSH2 0x80A SWAP5 SWAP2 POP PUSH1 0xFF NOT AND DUP3 DUP5 ADD MSTORE ISZERO ISZERO PUSH1 0x5 SHL DUP3 ADD ADD CODESIZE DUP1 PUSH2 0x1B32 JUMP JUMPDEST PUSH1 0xFF DUP2 EQ PUSH2 0x23F8 JUMPI PUSH1 0xFF DUP2 AND SWAP1 PUSH1 0x1F DUP3 GT PUSH2 0x2302 JUMPI PUSH1 0x40 MLOAD SWAP2 PUSH2 0x22F8 DUP4 PUSH2 0x3F3 JUMP JUMPDEST POP PUSH1 0x40 MLOAD PUSH1 0x7 SLOAD DUP2 PUSH1 0x0 PUSH2 0x240B DUP4 PUSH2 0xE04 JUMP JUMPDEST DUP1 DUP4 MSTORE SWAP3 PUSH1 0x20 SWAP1 PUSH1 0x1 SWAP1 DUP2 DUP2 AND SWAP1 DUP2 ISZERO PUSH2 0x23B2 JUMPI POP PUSH1 0x1 EQ PUSH2 0x2435 JUMPI POP POP PUSH2 0x80A SWAP3 POP SUB DUP3 PUSH2 0x429 JUMP JUMPDEST SWAP2 POP SWAP3 PUSH1 0x7 PUSH1 0x0 MSTORE PUSH32 0xA66CC928B5EDB82AF9BD49922954155AB7B0942694BEA4CE44661D9A8736C688 SWAP4 PUSH1 0x0 SWAP3 JUMPDEST DUP3 DUP5 LT PUSH2 0x247E JUMPI POP PUSH2 0x80A SWAP5 POP POP POP DUP2 ADD PUSH1 0x20 ADD CODESIZE DUP1 PUSH2 0x1B32 JUMP JUMPDEST DUP6 SLOAD DUP8 DUP6 ADD DUP4 ADD MSTORE SWAP5 DUP6 ADD SWAP5 DUP7 SWAP5 POP SWAP3 DUP2 ADD SWAP3 PUSH2 0x2463 JUMP JUMPDEST DUP2 MLOAD SWAP2 SWAP1 PUSH1 0x41 DUP4 SUB PUSH2 0x24C7 JUMPI PUSH2 0x24C0 SWAP3 POP PUSH1 0x20 DUP3 ADD MLOAD SWAP1 PUSH1 0x60 PUSH1 0x40 DUP5 ADD MLOAD SWAP4 ADD MLOAD PUSH1 0x0 BYTE SWAP1 PUSH2 0x2877 JUMP JUMPDEST SWAP2 SWAP3 SWAP1 SWAP2 SWAP1 JUMP JUMPDEST POP POP PUSH1 0x0 SWAP2 PUSH1 0x2 SWAP2 SWAP1 JUMP JUMPDEST PUSH1 0x4 GT ISZERO PUSH2 0x24DC JUMPI JUMP JUMPDEST PUSH4 0x4E487B71 PUSH1 0xE0 SHL PUSH1 0x0 MSTORE PUSH1 0x21 PUSH1 0x4 MSTORE PUSH1 0x24 PUSH1 0x0 REVERT JUMPDEST PUSH2 0x24FB DUP2 PUSH2 0x24D2 JUMP JUMPDEST DUP1 PUSH2 0x2504 JUMPI POP POP JUMP JUMPDEST PUSH2 0x250D DUP2 PUSH2 0x24D2 JUMP JUMPDEST PUSH1 0x1 DUP2 SUB PUSH2 0x2527 JUMPI PUSH1 0x40 MLOAD PUSH4 0xF645EEDF PUSH1 0xE0 SHL DUP2 MSTORE PUSH1 0x4 SWAP1 REVERT JUMPDEST PUSH2 0x2530 DUP2 PUSH2 0x24D2 JUMP JUMPDEST PUSH1 0x2 DUP2 SUB PUSH2 0x2551 JUMPI PUSH1 0x40 MLOAD PUSH4 0xFCE698F7 PUSH1 0xE0 SHL DUP2 MSTORE PUSH1 0x4 DUP2 ADD DUP4 SWAP1 MSTORE PUSH1 0x24 SWAP1 REVERT JUMPDEST DUP1 PUSH2 0x255D PUSH1 0x3 SWAP3 PUSH2 0x24D2 JUMP JUMPDEST EQ PUSH2 0x2565 JUMPI POP JUMP JUMPDEST PUSH1 0x40 MLOAD PUSH4 0x35E2F383 PUSH1 0xE2 SHL DUP2 MSTORE PUSH1 0x4 DUP2 ADD SWAP2 SWAP1 SWAP2 MSTORE PUSH1 0x24 SWAP1 REVERT JUMPDEST SWAP1 DUP2 PUSH1 0x20 SWAP2 SUB SLT PUSH2 0x2C1 JUMPI MLOAD PUSH2 0x80A DUP2 PUSH2 0x33D JUMP JUMPDEST SWAP3 PUSH2 0x25C3 PUSH2 0x80A SWAP6 SWAP4 PUSH2 0x25D1 SWAP4 PUSH1 0x1 DUP1 PUSH1 0xA0 SHL SUB AND DUP7 MSTORE PUSH1 0x0 PUSH1 0x20 DUP8 ADD MSTORE PUSH1 0xA0 PUSH1 0x40 DUP8 ADD MSTORE PUSH1 0xA0 DUP7 ADD SWAP1 PUSH2 0xBD3 JUMP JUMPDEST SWAP1 DUP5 DUP3 SUB PUSH1 0x60 DUP7 ADD MSTORE PUSH2 0xBD3 JUMP JUMPDEST SWAP2 PUSH1 0x80 DUP2 DUP5 SUB SWAP2 ADD MSTORE PUSH2 0x478 JUMP JUMPDEST SWAP4 SWAP1 PUSH2 0x80A SWAP6 SWAP4 PUSH2 0x25C3 SWAP2 PUSH2 0x25D1 SWAP5 PUSH1 0x1 DUP1 PUSH1 0xA0 SHL SUB DUP1 SWAP3 AND DUP9 MSTORE AND PUSH1 0x20 DUP8 ADD MSTORE PUSH1 0xA0 PUSH1 0x40 DUP8 ADD MSTORE PUSH1 0xA0 DUP7 ADD SWAP1 PUSH2 0xBD3 JUMP JUMPDEST SWAP3 SWAP4 SWAP2 SWAP1 SWAP4 DUP5 EXTCODESIZE PUSH2 0x2623 JUMPI POP POP POP POP POP JUMP JUMPDEST PUSH1 0x20 SWAP2 PUSH2 0x2646 PUSH1 0x40 MLOAD SWAP5 DUP6 SWAP4 DUP5 SWAP4 PUSH4 0xBC197C81 PUSH1 0xE0 SHL SWAP9 DUP10 DUP7 MSTORE PUSH1 0x4 DUP7 ADD PUSH2 0x2594 JUMP JUMPDEST SUB DUP2 PUSH1 0x0 PUSH1 0x1 PUSH1 0x1 PUSH1 0xA0 SHL SUB DUP9 AND GAS CALL PUSH1 0x0 SWAP2 DUP2 PUSH2 0x26DB JUMPI JUMPDEST POP PUSH2 0x269E JUMPI DUP3 PUSH2 0x266D PUSH2 0x1D0B JUMP JUMPDEST DUP1 MLOAD SWAP2 SWAP1 DUP3 PUSH2 0x2697 JUMPI PUSH1 0x40 MLOAD PUSH4 0x2BFA23E7 PUSH1 0xE1 SHL DUP2 MSTORE PUSH1 0x1 PUSH1 0x1 PUSH1 0xA0 SHL SUB DUP4 AND PUSH1 0x4 DUP3 ADD MSTORE PUSH1 0x24 SWAP1 REVERT JUMPDEST PUSH1 0x20 SWAP2 POP ADD REVERT JUMPDEST PUSH1 0x1 PUSH1 0x1 PUSH1 0xE0 SHL SUB NOT AND SUB PUSH2 0x26B8 JUMPI POP CODESIZE DUP1 DUP1 DUP1 DUP1 PUSH2 0xE6D JUMP JUMPDEST PUSH1 0x40 MLOAD PUSH4 0x2BFA23E7 PUSH1 0xE1 SHL DUP2 MSTORE PUSH1 0x1 PUSH1 0x1 PUSH1 0xA0 SHL SUB SWAP2 SWAP1 SWAP2 AND PUSH1 0x4 DUP3 ADD MSTORE PUSH1 0x24 SWAP1 REVERT JUMPDEST PUSH2 0x26FE SWAP2 SWAP3 POP PUSH1 0x20 RETURNDATASIZE PUSH1 0x20 GT PUSH2 0x2705 JUMPI JUMPDEST PUSH2 0x26F6 DUP2 DUP4 PUSH2 0x429 JUMP JUMPDEST DUP2 ADD SWAP1 PUSH2 0x257F JUMP JUMPDEST SWAP1 CODESIZE PUSH2 0x265F JUMP JUMPDEST POP RETURNDATASIZE PUSH2 0x26EC JUMP JUMPDEST SWAP4 SWAP3 SWAP1 SWAP5 SWAP2 SWAP5 DUP6 EXTCODESIZE PUSH2 0x2721 JUMPI JUMPDEST POP POP POP POP POP POP JUMP JUMPDEST PUSH2 0x2744 PUSH1 0x20 SWAP4 PUSH1 0x40 MLOAD SWAP6 DUP7 SWAP5 DUP6 SWAP5 PUSH4 0xBC197C81 PUSH1 0xE0 SHL SWAP10 DUP11 DUP8 MSTORE PUSH1 0x4 DUP8 ADD PUSH2 0x25DF JUMP JUMPDEST SUB DUP2 PUSH1 0x0 PUSH1 0x1 PUSH1 0x1 PUSH1 0xA0 SHL SUB DUP9 AND GAS CALL PUSH1 0x0 SWAP2 DUP2 PUSH2 0x2786 JUMPI JUMPDEST POP PUSH2 0x276B JUMPI DUP3 PUSH2 0x266D PUSH2 0x1D0B JUMP JUMPDEST PUSH1 0x1 PUSH1 0x1 PUSH1 0xE0 SHL SUB NOT AND SUB PUSH2 0x26B8 JUMPI POP CODESIZE DUP1 DUP1 DUP1 DUP1 DUP1 PUSH2 0x2719 JUMP JUMPDEST PUSH2 0x27A0 SWAP2 SWAP3 POP PUSH1 0x20 RETURNDATASIZE PUSH1 0x20 GT PUSH2 0x2705 JUMPI PUSH2 0x26F6 DUP2 DUP4 PUSH2 0x429 JUMP JUMPDEST SWAP1 CODESIZE PUSH2 0x275D JUMP JUMPDEST SWAP1 SWAP3 PUSH1 0xA0 SWAP3 PUSH2 0x80A SWAP6 SWAP5 PUSH1 0x1 DUP1 DUP7 SHL SUB AND DUP4 MSTORE PUSH1 0x0 PUSH1 0x20 DUP5 ADD MSTORE PUSH1 0x40 DUP4 ADD MSTORE PUSH1 0x60 DUP3 ADD MSTORE DUP2 PUSH1 0x80 DUP3 ADD MSTORE ADD SWAP1 PUSH2 0x478 JUMP JUMPDEST SWAP2 SWAP3 PUSH2 0x80A SWAP6 SWAP5 SWAP2 PUSH1 0xA0 SWAP5 PUSH1 0x1 DUP1 DUP8 SHL SUB DUP1 SWAP3 AND DUP6 MSTORE AND PUSH1 0x20 DUP5 ADD MSTORE PUSH1 0x40 DUP4 ADD MSTORE PUSH1 0x60 DUP3 ADD MSTORE DUP2 PUSH1 0x80 DUP3 ADD MSTORE ADD SWAP1 PUSH2 0x478 JUMP JUMPDEST SWAP3 SWAP4 SWAP2 SWAP1 SWAP4 DUP5 EXTCODESIZE PUSH2 0x281D JUMPI POP POP POP POP POP JUMP JUMPDEST PUSH1 0x20 SWAP2 PUSH2 0x2646 PUSH1 0x40 MLOAD SWAP5 DUP6 SWAP4 DUP5 SWAP4 PUSH4 0xF23A6E61 PUSH1 0xE0 SHL SWAP9 DUP10 DUP7 MSTORE PUSH1 0x4 DUP7 ADD PUSH2 0x27A7 JUMP JUMPDEST SWAP4 SWAP3 SWAP1 SWAP5 SWAP2 SWAP5 DUP6 EXTCODESIZE PUSH2 0x2854 JUMPI POP POP POP POP POP POP JUMP JUMPDEST PUSH2 0x2744 PUSH1 0x20 SWAP4 PUSH1 0x40 MLOAD SWAP6 DUP7 SWAP5 DUP6 SWAP5 PUSH4 0xF23A6E61 PUSH1 0xE0 SHL SWAP10 DUP11 DUP8 MSTORE PUSH1 0x4 DUP8 ADD PUSH2 0x27D8 JUMP JUMPDEST SWAP2 SWAP1 PUSH32 0x7FFFFFFFFFFFFFFFFFFFFFFFFFFFFFFF5D576E7357A4501DDFE92F46681B20A0 DUP5 GT PUSH2 0x28FB JUMPI SWAP3 PUSH1 0x20 SWAP3 SWAP2 PUSH1 0xFF PUSH1 0x80 SWAP6 PUSH1 0x40 MLOAD SWAP5 DUP6 MSTORE AND DUP5 DUP5 ADD MSTORE PUSH1 0x40 DUP4 ADD MSTORE PUSH1 0x60 DUP3 ADD MSTORE PUSH1 0x0 SWAP3 DUP4 SWAP2 DUP3 DUP1 MSTORE PUSH1 0x1 GAS STATICCALL ISZERO PUSH2 0x28EF JUMPI DUP1 MLOAD PUSH1 0x1 PUSH1 0x1 PUSH1 0xA0 SHL SUB DUP2 AND ISZERO PUSH2 0x28E6 JUMPI SWAP2 DUP2 SWAP1 JUMP JUMPDEST POP DUP1 SWAP2 PUSH1 0x1 SWAP2 SWAP1 JUMP JUMPDEST PUSH1 0x40 MLOAD SWAP1 RETURNDATASIZE SWAP1 DUP3 RETURNDATACOPY RETURNDATASIZE SWAP1 REVERT JUMPDEST POP POP POP PUSH1 0x0 SWAP2 PUSH1 0x3 SWAP2 SWAP1 JUMP JUMPDEST SWAP1 SWAP2 PUSH2 0x291E PUSH2 0x80A SWAP4 PUSH1 0x40 DUP5 MSTORE PUSH1 0x40 DUP5 ADD SWAP1 PUSH2 0xBD3 JUMP JUMPDEST SWAP2 PUSH1 0x20 DUP2 DUP5 SUB SWAP2 ADD MSTORE PUSH2 0xBD3 JUMP JUMPDEST SWAP2 SWAP1 SWAP2 DUP3 MLOAD DUP3 MLOAD SWAP1 DUP2 DUP2 SUB PUSH2 0x1EBE JUMPI POP POP PUSH1 0x0 JUMPDEST DUP4 MLOAD DUP2 LT ISZERO PUSH2 0x29A7 JUMPI PUSH1 0x5 DUP2 SWAP1 SHL DUP5 DUP2 ADD PUSH1 0x20 SWAP1 DUP2 ADD MLOAD SWAP2 DUP6 ADD ADD MLOAD PUSH1 0x1 SWAP3 SWAP2 DUP5 SWAP1 PUSH1 0x1 PUSH1 0x1 PUSH1 0xA0 SHL SUB DUP3 AND PUSH2 0x297A JUMPI JUMPDEST POP POP POP ADD PUSH2 0x2940 JUMP JUMPDEST PUSH2 0x299D SWAP2 PUSH2 0x1287 PUSH2 0x2995 SWAP3 PUSH1 0x0 MSTORE PUSH1 0x0 PUSH1 0x20 MSTORE PUSH1 0x40 PUSH1 0x0 KECCAK256 SWAP1 JUMP JUMPDEST SWAP2 DUP3 SLOAD PUSH2 0x1F09 JUMP JUMPDEST SWAP1 SSTORE CODESIZE DUP4 DUP2 PUSH2 0x2971 JUMP JUMPDEST POP SWAP2 PUSH1 0x1 DUP2 MLOAD EQ PUSH1 0x0 EQ PUSH2 0x2A08 JUMPI PUSH1 0x20 SWAP1 DUP2 ADD MLOAD SWAP2 DUP2 ADD MLOAD PUSH1 0x40 DUP1 MLOAD SWAP4 DUP5 MSTORE SWAP2 DUP4 ADD MSTORE PUSH1 0x1 PUSH1 0x1 PUSH1 0xA0 SHL SUB SWAP1 SWAP3 AND SWAP2 PUSH1 0x0 SWAP2 CALLER SWAP2 PUSH32 0xC3D58168C5AE7397731D063D5BBF3D657854427343F4C083240F7AACAA2D0F62 SWAP2 SWAP1 DUP2 SWAP1 DUP2 ADD JUMPDEST SUB SWAP1 LOG4 JUMP JUMPDEST PUSH32 0x4A39DC06D4C0DBC64B70AF90FD698A233A518AA5D07E595D983B8C0526C8F7FB PUSH2 0x2A03 PUSH1 0x0 SWAP4 SWAP5 PUSH1 0x40 MLOAD SWAP2 DUP3 SWAP2 PUSH1 0x1 DUP1 PUSH1 0xA0 SHL SUB AND SWAP7 CALLER SWAP6 DUP4 PUSH2 0x2907 JUMP JUMPDEST SWAP4 SWAP3 SWAP2 DUP1 MLOAD DUP4 MLOAD SWAP1 DUP2 DUP2 SUB PUSH2 0x1EBE JUMPI POP POP PUSH1 0x0 JUMPDEST DUP2 MLOAD DUP2 LT ISZERO PUSH2 0x2B49 JUMPI PUSH1 0x5 DUP2 SWAP1 SHL DUP3 DUP2 ADD PUSH1 0x20 SWAP1 DUP2 ADD MLOAD SWAP2 DUP7 ADD ADD MLOAD PUSH1 0x1 PUSH1 0x1 PUSH1 0xA0 SHL SUB SWAP3 SWAP2 DUP6 SWAP1 DUP10 DUP6 AND PUSH2 0x2AC3 JUMPI JUMPDEST PUSH1 0x1 SWAP5 DUP3 AND PUSH2 0x2A9E JUMPI JUMPDEST POP POP POP ADD PUSH2 0x2A5B JUMP JUMPDEST PUSH2 0x2AB9 SWAP2 PUSH2 0x1287 PUSH2 0x2995 SWAP3 PUSH1 0x0 MSTORE PUSH1 0x0 PUSH1 0x20 MSTORE PUSH1 0x40 PUSH1 0x0 KECCAK256 SWAP1 JUMP JUMPDEST SWAP1 SSTORE CODESIZE DUP5 DUP2 PUSH2 0x2A95 JUMP JUMPDEST SWAP2 SWAP3 SWAP4 SWAP1 POP PUSH2 0x2AE0 DUP10 PUSH2 0x1287 DUP5 PUSH1 0x0 MSTORE PUSH1 0x0 PUSH1 0x20 MSTORE PUSH1 0x40 PUSH1 0x0 KECCAK256 SWAP1 JUMP JUMPDEST SLOAD DUP4 DUP2 LT PUSH2 0x2B12 JUMPI SWAP2 DUP7 SWAP2 DUP5 PUSH1 0x1 SWAP7 SWAP6 SWAP5 SUB PUSH2 0x2B0A DUP13 PUSH2 0x1287 DUP6 PUSH1 0x0 MSTORE PUSH1 0x0 PUSH1 0x20 MSTORE PUSH1 0x40 PUSH1 0x0 KECCAK256 SWAP1 JUMP JUMPDEST SSTORE SWAP5 POP PUSH2 0x2A8B JUMP JUMPDEST PUSH1 0x40 MLOAD PUSH4 0x3DEE4C5 PUSH1 0xE0 SHL DUP2 MSTORE PUSH1 0x1 PUSH1 0x1 PUSH1 0xA0 SHL SUB DUP12 AND PUSH1 0x4 DUP3 ADD MSTORE PUSH1 0x24 DUP2 ADD SWAP2 SWAP1 SWAP2 MSTORE PUSH1 0x44 DUP2 ADD DUP5 SWAP1 MSTORE PUSH1 0x64 DUP2 ADD DUP4 SWAP1 MSTORE PUSH1 0x84 SWAP1 REVERT JUMPDEST POP DUP1 MLOAD SWAP4 SWAP5 SWAP4 SWAP2 SWAP3 SWAP2 PUSH1 0x1 SUB PUSH2 0x2BAB JUMPI PUSH1 0x20 SWAP1 DUP2 ADD MLOAD SWAP2 DUP2 ADD MLOAD PUSH1 0x40 DUP1 MLOAD SWAP4 DUP5 MSTORE SWAP2 DUP4 ADD MSTORE PUSH1 0x1 PUSH1 0x1 PUSH1 0xA0 SHL SUB SWAP3 DUP4 AND SWAP4 SWAP1 SWAP3 AND SWAP2 CALLER SWAP2 PUSH32 0xC3D58168C5AE7397731D063D5BBF3D657854427343F4C083240F7AACAA2D0F62 SWAP2 DUP2 SWAP1 DUP2 ADD PUSH2 0x2A03 JUMP JUMPDEST PUSH1 0x40 MLOAD PUSH1 0x1 PUSH1 0x1 PUSH1 0xA0 SHL SUB SWAP4 DUP5 AND SWAP5 SWAP1 SWAP4 AND SWAP3 CALLER SWAP3 PUSH32 0x4A39DC06D4C0DBC64B70AF90FD698A233A518AA5D07E595D983B8C0526C8F7FB SWAP3 DUP3 SWAP2 PUSH2 0x2A03 SWAP2 DUP4 PUSH2 0x2907 JUMP INVALID LOG2 PUSH5 0x6970667358 0x22 SLT KECCAK256 JUMP PUSH28 0xF073527E76B5476367D710EE6450FC54BD1404E73CF1E8B89AD3DBB SWAP16 0x4B PUSH5 0x736F6C6343 STOP ADDMOD XOR STOP CALLER "},"methodIdentifiers":{"MINT_TYPEHASH()":"f76fc35e","NAME()":"a3f4df7e","VERSION()":"ffa1ad74","balanceOf(address,uint256)":"00fdd58e","balanceOfBatch(address[],uint256[])":"4e1273f4","creatorTokenId(address)":"af15c051","domainSeparator()":"f698da25","eip712Domain()":"84b0196e","exists(uint256)":"4f558e79","feeRecipient()":"46904840","getNextTokenId()":"caa0f92a","hasCollected(uint256,address)":"c3a663aa","hasCreated(address)":"5cd21bd6","isApprovedForAll(address,address)":"e985e9c5","mintFee()":"13966db5","mintWithSignature(uint256,string,uint256,uint256,bytes)":"859496e1","name()":"06fdde03","nonces(address)":"7ecebe00","owner()":"8da5cb5b","pause()":"8456cb59","paused()":"5c975abb","renounceOwnership()":"715018a6","safeBatchTransferFrom(address,address,uint256[],uint256[],bytes)":"2eb2c2d6","safeTransferFrom(address,address,uint256,uint256,bytes)":"f242432a","setApprovalForAll(address,bool)":"a22cb465","setFeeRecipient(address)":"e74b981b","setMintFee(uint256)":"eddd0d9c","setTokenURI(uint256,string)":"162094c4","setTokenURIBatch(uint256[],string[])":"4bb99351","setTrustedSigner(address)":"56a1c701","supportsInterface(bytes4)":"01ffc9a7","symbol()":"95d89b41","tokenCreators(uint256)":"e0fd045f","tokenURIs(uint256)":"6c8b703f","totalSupply()":"18160ddd","totalSupply(uint256)":"bd85b039","transferOwnership(address)":"f2fde38b","trustedSigner()":"f74d5480","unpause()":"3f4ba83a","uri(uint256)":"0e89341c","withdrawFees()":"476343ee"}}}}}