{
  "_format": "hh-sol-artifact-1",
  "contractName": "GenerativePFP",
  "sourceName": "contracts/GenerativePFP.sol",
  "abi": [
    {
      "inputs": [
        {
          "internalType": "address",
          "name": "_trustedSigner",
          "type": "address"
        }
      ],
      "stateMutability": "nonpayable",
      "type": "constructor"
    },
    {
      "inputs": [],
      "name": "ECDSAInvalidSignature",
      "type": "error"
    },
    {
      "inputs": [
        {
          "internalType": "uint256",
          "name": "length",
          "type": "uint256"
        }
      ],
      "name": "ECDSAInvalidSignatureLength",
      "type": "error"
    },
    {
      "inputs": [
        {
          "internalType": "bytes32",
          "name": "s",
          "type": "bytes32"
        }
      ],
      "name": "ECDSAInvalidSignatureS",
      "type": "error"
    },
    {
      "inputs": [
        {
          "internalType": "address",
          "name": "sender",
          "type": "address"
        },
        {
          "internalType": "uint256",
          "name": "balance",
          "type": "uint256"
        },
        {
          "internalType": "uint256",
          "name": "needed",
          "type": "uint256"
        },
        {
          "internalType": "uint256",
          "name": "tokenId",
          "type": "uint256"
        }
      ],
      "name": "ERC1155InsufficientBalance",
      "type": "error"
    },
    {
      "inputs": [
        {
          "internalType": "address",
          "name": "approver",
          "type": "address"
        }
      ],
      "name": "ERC1155InvalidApprover",
      "type": "error"
    },
    {
      "inputs": [
        {
          "internalType": "uint256",
          "name": "idsLength",
          "type": "uint256"
        },
        {
          "internalType": "uint256",
          "name": "valuesLength",
          "type": "uint256"
        }
      ],
      "name": "ERC1155InvalidArrayLength",
      "type": "error"
    },
    {
      "inputs": [
        {
          "internalType": "address",
          "name": "operator",
          "type": "address"
        }
      ],
      "name": "ERC1155InvalidOperator",
      "type": "error"
    },
    {
      "inputs": [
        {
          "internalType": "address",
          "name": "receiver",
          "type": "address"
        }
      ],
      "name": "ERC1155InvalidReceiver",
      "type": "error"
    },
    {
      "inputs": [
        {
          "internalType": "address",
          "name": "sender",
          "type": "address"
        }
      ],
      "name": "ERC1155InvalidSender",
      "type": "error"
    },
    {
      "inputs": [
        {
          "internalType": "address",
          "name": "operator",
          "type": "address"
        },
        {
          "internalType": "address",
          "name": "owner",
          "type": "address"
        }
      ],
      "name": "ERC1155MissingApprovalForAll",
      "type": "error"
    },
    {
      "inputs": [],
      "name": "InvalidNonce",
      "type": "error"
    },
    {
      "inputs": [],
      "name": "InvalidShortString",
      "type": "error"
    },
    {
      "inputs": [],
      "name": "InvalidSignature",
      "type": "error"
    },
    {
      "inputs": [
        {
          "internalType": "address",
          "name": "owner",
          "type": "address"
        }
      ],
      "name": "OwnableInvalidOwner",
      "type": "error"
    },
    {
      "inputs": [
        {
          "internalType": "address",
          "name": "account",
          "type": "address"
        }
      ],
      "name": "OwnableUnauthorizedAccount",
      "type": "error"
    },
    {
      "inputs": [],
      "name": "SignatureExpired",
      "type": "error"
    },
    {
      "inputs": [
        {
          "internalType": "string",
          "name": "str",
          "type": "string"
        }
      ],
      "name": "StringTooLong",
      "type": "error"
    },
    {
      "inputs": [],
      "name": "TokenNotCreated",
      "type": "error"
    },
    {
      "inputs": [],
      "name": "ZeroAddress",
      "type": "error"
    },
    {
      "anonymous": false,
      "inputs": [
        {
          "indexed": true,
          "internalType": "address",
          "name": "account",
          "type": "address"
        },
        {
          "indexed": true,
          "internalType": "address",
          "name": "operator",
          "type": "address"
        },
        {
          "indexed": false,
          "internalType": "bool",
          "name": "approved",
          "type": "bool"
        }
      ],
      "name": "ApprovalForAll",
      "type": "event"
    },
    {
      "anonymous": false,
      "inputs": [
        {
          "indexed": true,
          "internalType": "uint256",
          "name": "tokenId",
          "type": "uint256"
        },
        {
          "indexed": true,
          "internalType": "address",
          "name": "creator",
          "type": "address"
        },
        {
          "indexed": true,
          "internalType": "uint256",
          "name": "fid",
          "type": "uint256"
        },
        {
          "indexed": false,
          "internalType": "string",
          "name": "uri",
          "type": "string"
        }
      ],
      "name": "ArtworkCreated",
      "type": "event"
    },
    {
      "anonymous": false,
      "inputs": [
        {
          "indexed": true,
          "internalType": "uint256",
          "name": "tokenId",
          "type": "uint256"
        },
        {
          "indexed": true,
          "internalType": "address",
          "name": "minter",
          "type": "address"
        },
        {
          "indexed": false,
          "internalType": "uint256",
          "name": "amount",
          "type": "uint256"
        }
      ],
      "name": "ArtworkMinted",
      "type": "event"
    },
    {
      "anonymous": false,
      "inputs": [],
      "name": "EIP712DomainChanged",
      "type": "event"
    },
    {
      "anonymous": false,
      "inputs": [
        {
          "indexed": true,
          "internalType": "address",
          "name": "previousOwner",
          "type": "address"
        },
        {
          "indexed": true,
          "internalType": "address",
          "name": "newOwner",
          "type": "address"
        }
      ],
      "name": "OwnershipTransferred",
      "type": "event"
    },
    {
      "anonymous": false,
      "inputs": [
        {
          "indexed": true,
          "internalType": "address",
          "name": "operator",
          "type": "address"
        },
        {
          "indexed": true,
          "internalType": "address",
          "name": "from",
          "type": "address"
        },
        {
          "indexed": true,
          "internalType": "address",
          "name": "to",
          "type": "address"
        },
        {
          "indexed": false,
          "internalType": "uint256[]",
          "name": "ids",
          "type": "uint256[]"
        },
        {
          "indexed": false,
          "internalType": "uint256[]",
          "name": "values",
          "type": "uint256[]"
        }
      ],
      "name": "TransferBatch",
      "type": "event"
    },
    {
      "anonymous": false,
      "inputs": [
        {
          "indexed": true,
          "internalType": "address",
          "name": "operator",
          "type": "address"
        },
        {
          "indexed": true,
          "internalType": "address",
          "name": "from",
          "type": "address"
        },
        {
          "indexed": true,
          "internalType": "address",
          "name": "to",
          "type": "address"
        },
        {
          "indexed": false,
          "internalType": "uint256",
          "name": "id",
          "type": "uint256"
        },
        {
          "indexed": false,
          "internalType": "uint256",
          "name": "value",
          "type": "uint256"
        }
      ],
      "name": "TransferSingle",
      "type": "event"
    },
    {
      "anonymous": false,
      "inputs": [
        {
          "indexed": true,
          "internalType": "address",
          "name": "oldSigner",
          "type": "address"
        },
        {
          "indexed": true,
          "internalType": "address",
          "name": "newSigner",
          "type": "address"
        }
      ],
      "name": "TrustedSignerUpdated",
      "type": "event"
    },
    {
      "anonymous": false,
      "inputs": [
        {
          "indexed": false,
          "internalType": "string",
          "name": "value",
          "type": "string"
        },
        {
          "indexed": true,
          "internalType": "uint256",
          "name": "id",
          "type": "uint256"
        }
      ],
      "name": "URI",
      "type": "event"
    },
    {
      "inputs": [],
      "name": "MINT_TYPEHASH",
      "outputs": [
        {
          "internalType": "bytes32",
          "name": "",
          "type": "bytes32"
        }
      ],
      "stateMutability": "view",
      "type": "function"
    },
    {
      "inputs": [],
      "name": "NAME",
      "outputs": [
        {
          "internalType": "string",
          "name": "",
          "type": "string"
        }
      ],
      "stateMutability": "view",
      "type": "function"
    },
    {
      "inputs": [],
      "name": "VERSION",
      "outputs": [
        {
          "internalType": "string",
          "name": "",
          "type": "string"
        }
      ],
      "stateMutability": "view",
      "type": "function"
    },
    {
      "inputs": [
        {
          "internalType": "address",
          "name": "account",
          "type": "address"
        },
        {
          "internalType": "uint256",
          "name": "id",
          "type": "uint256"
        }
      ],
      "name": "balanceOf",
      "outputs": [
        {
          "internalType": "uint256",
          "name": "",
          "type": "uint256"
        }
      ],
      "stateMutability": "view",
      "type": "function"
    },
    {
      "inputs": [
        {
          "internalType": "address[]",
          "name": "accounts",
          "type": "address[]"
        },
        {
          "internalType": "uint256[]",
          "name": "ids",
          "type": "uint256[]"
        }
      ],
      "name": "balanceOfBatch",
      "outputs": [
        {
          "internalType": "uint256[]",
          "name": "",
          "type": "uint256[]"
        }
      ],
      "stateMutability": "view",
      "type": "function"
    },
    {
      "inputs": [],
      "name": "domainSeparator",
      "outputs": [
        {
          "internalType": "bytes32",
          "name": "",
          "type": "bytes32"
        }
      ],
      "stateMutability": "view",
      "type": "function"
    },
    {
      "inputs": [],
      "name": "eip712Domain",
      "outputs": [
        {
          "internalType": "bytes1",
          "name": "fields",
          "type": "bytes1"
        },
        {
          "internalType": "string",
          "name": "name",
          "type": "string"
        },
        {
          "internalType": "string",
          "name": "version",
          "type": "string"
        },
        {
          "internalType": "uint256",
          "name": "chainId",
          "type": "uint256"
        },
        {
          "internalType": "address",
          "name": "verifyingContract",
          "type": "address"
        },
        {
          "internalType": "bytes32",
          "name": "salt",
          "type": "bytes32"
        },
        {
          "internalType": "uint256[]",
          "name": "extensions",
          "type": "uint256[]"
        }
      ],
      "stateMutability": "view",
      "type": "function"
    },
    {
      "inputs": [
        {
          "internalType": "uint256",
          "name": "id",
          "type": "uint256"
        }
      ],
      "name": "exists",
      "outputs": [
        {
          "internalType": "bool",
          "name": "",
          "type": "bool"
        }
      ],
      "stateMutability": "view",
      "type": "function"
    },
    {
      "inputs": [],
      "name": "getNextTokenId",
      "outputs": [
        {
          "internalType": "uint256",
          "name": "",
          "type": "uint256"
        }
      ],
      "stateMutability": "view",
      "type": "function"
    },
    {
      "inputs": [
        {
          "internalType": "address",
          "name": "account",
          "type": "address"
        },
        {
          "internalType": "address",
          "name": "operator",
          "type": "address"
        }
      ],
      "name": "isApprovedForAll",
      "outputs": [
        {
          "internalType": "bool",
          "name": "",
          "type": "bool"
        }
      ],
      "stateMutability": "view",
      "type": "function"
    },
    {
      "inputs": [
        {
          "internalType": "uint256",
          "name": "tokenId",
          "type": "uint256"
        },
        {
          "internalType": "string",
          "name": "uri",
          "type": "string"
        },
        {
          "internalType": "uint256",
          "name": "amount",
          "type": "uint256"
        },
        {
          "internalType": "uint256",
          "name": "fid",
          "type": "uint256"
        },
        {
          "internalType": "uint256",
          "name": "deadline",
          "type": "uint256"
        },
        {
          "internalType": "bytes",
          "name": "signature",
          "type": "bytes"
        }
      ],
      "name": "mintWithSignature",
      "outputs": [],
      "stateMutability": "nonpayable",
      "type": "function"
    },
    {
      "inputs": [
        {
          "internalType": "address",
          "name": "",
          "type": "address"
        }
      ],
      "name": "nonces",
      "outputs": [
        {
          "internalType": "uint256",
          "name": "",
          "type": "uint256"
        }
      ],
      "stateMutability": "view",
      "type": "function"
    },
    {
      "inputs": [],
      "name": "owner",
      "outputs": [
        {
          "internalType": "address",
          "name": "",
          "type": "address"
        }
      ],
      "stateMutability": "view",
      "type": "function"
    },
    {
      "inputs": [],
      "name": "renounceOwnership",
      "outputs": [],
      "stateMutability": "nonpayable",
      "type": "function"
    },
    {
      "inputs": [
        {
          "internalType": "address",
          "name": "from",
          "type": "address"
        },
        {
          "internalType": "address",
          "name": "to",
          "type": "address"
        },
        {
          "internalType": "uint256[]",
          "name": "ids",
          "type": "uint256[]"
        },
        {
          "internalType": "uint256[]",
          "name": "values",
          "type": "uint256[]"
        },
        {
          "internalType": "bytes",
          "name": "data",
          "type": "bytes"
        }
      ],
      "name": "safeBatchTransferFrom",
      "outputs": [],
      "stateMutability": "nonpayable",
      "type": "function"
    },
    {
      "inputs": [
        {
          "internalType": "address",
          "name": "from",
          "type": "address"
        },
        {
          "internalType": "address",
          "name": "to",
          "type": "address"
        },
        {
          "internalType": "uint256",
          "name": "id",
          "type": "uint256"
        },
        {
          "internalType": "uint256",
          "name": "value",
          "type": "uint256"
        },
        {
          "internalType": "bytes",
          "name": "data",
          "type": "bytes"
        }
      ],
      "name": "safeTransferFrom",
      "outputs": [],
      "stateMutability": "nonpayable",
      "type": "function"
    },
    {
      "inputs": [
        {
          "internalType": "address",
          "name": "operator",
          "type": "address"
        },
        {
          "internalType": "bool",
          "name": "approved",
          "type": "bool"
        }
      ],
      "name": "setApprovalForAll",
      "outputs": [],
      "stateMutability": "nonpayable",
      "type": "function"
    },
    {
      "inputs": [
        {
          "internalType": "address",
          "name": "newSigner",
          "type": "address"
        }
      ],
      "name": "setTrustedSigner",
      "outputs": [],
      "stateMutability": "nonpayable",
      "type": "function"
    },
    {
      "inputs": [
        {
          "internalType": "bytes4",
          "name": "interfaceId",
          "type": "bytes4"
        }
      ],
      "name": "supportsInterface",
      "outputs": [
        {
          "internalType": "bool",
          "name": "",
          "type": "bool"
        }
      ],
      "stateMutability": "view",
      "type": "function"
    },
    {
      "inputs": [
        {
          "internalType": "uint256",
          "name": "",
          "type": "uint256"
        }
      ],
      "name": "tokenCreators",
      "outputs": [
        {
          "internalType": "address",
          "name": "",
          "type": "address"
        }
      ],
      "stateMutability": "view",
      "type": "function"
    },
    {
      "inputs": [
        {
          "internalType": "uint256",
          "name": "",
          "type": "uint256"
        }
      ],
      "name": "tokenFids",
      "outputs": [
        {
          "internalType": "uint256",
          "name": "",
          "type": "uint256"
        }
      ],
      "stateMutability": "view",
      "type": "function"
    },
    {
      "inputs": [
        {
          "internalType": "uint256",
          "name": "",
          "type": "uint256"
        }
      ],
      "name": "tokenURIs",
      "outputs": [
        {
          "internalType": "string",
          "name": "",
          "type": "string"
        }
      ],
      "stateMutability": "view",
      "type": "function"
    },
    {
      "inputs": [],
      "name": "totalSupply",
      "outputs": [
        {
          "internalType": "uint256",
          "name": "",
          "type": "uint256"
        }
      ],
      "stateMutability": "view",
      "type": "function"
    },
    {
      "inputs": [
        {
          "internalType": "uint256",
          "name": "id",
          "type": "uint256"
        }
      ],
      "name": "totalSupply",
      "outputs": [
        {
          "internalType": "uint256",
          "name": "",
          "type": "uint256"
        }
      ],
      "stateMutability": "view",
      "type": "function"
    },
    {
      "inputs": [
        {
          "internalType": "address",
          "name": "newOwner",
          "type": "address"
        }
      ],
      "name": "transferOwnership",
      "outputs": [],
      "stateMutability": "nonpayable",
      "type": "function"
    },
    {
      "inputs": [],
      "name": "trustedSigner",
      "outputs": [
        {
          "internalType": "address",
          "name": "",
          "type": "address"
        }
      ],
      "stateMutability": "view",
      "type": "function"
    },
    {
      "inputs": [
        {
          "internalType": "uint256",
          "name": "tokenId",
          "type": "uint256"
        }
      ],
      "name": "uri",
      "outputs": [
        {
          "internalType": "string",
          "name": "",
          "type": "string"
        }
      ],
      "stateMutability": "view",
      "type": "function"
    }
  ],
  "bytecode": "0x61016034620002c3576001600160401b03601f6200295338819003918201601f191684019183831185841017620002ad5780859260409485528339602094859181010312620002c357516001600160a01b03919082811690819003620002c3578151926200006d84620002c8565b600d8452858401946c047656e6572617469766550465609c1b865283516200009581620002c8565b60019760018252808201603160f81b8152865199828b018b811086821117620002ad5788526000809b52600254600181811c91168015620002a2575b848210146200028e57601f811162000262575b50508960025533156200024a57600580546001600160a01b03198082163390811790935596167f8be0079c531659141344cd1fd0a4f28419497f9722a3daafe3b4186f6b6457e08c80a36200013988620002e4565b98610120998a526200014b84620004c1565b98610140998a52519020928360e0525190209861010099808b524660a0528751928301937f8b73c3c69bb8fe3d512ecc4cf759cc79239f7b179b0ffacaa9a75d522b39400f85528884015260608301524660808301523060a083015260a0825260c0820193828510908511176200023657508286525190206080523060c05282156200022757506008541617600855600160095551916122d993846200067a853960805184611731015260a051846117ec015260c051846116fb015260e05184611780015251836117a60152518261098b015251816109b70152f35b63d92e233d60e01b8152600490fd5b634e487b7160e01b81526041600452602490fd5b8651631e4fbdf760e01b8152600481018b9052602490fd5b60028c52601f848d20910160051c8101905b818110620002835750620000e4565b8c8155820162000274565b634e487b7160e01b8c52602260045260248cfd5b90607f1690620000d1565b634e487b7160e01b600052604160045260246000fd5b600080fd5b604081019081106001600160401b03821117620002ad57604052565b805160209081811015620003815750601f8251116200032057808251920151908083106200031157501790565b82600019910360031b1b161790565b90604051809263305a27a960e01b82528060048301528251908160248401526000935b82851062000367575050604492506000838284010152601f80199101168101030190fd5b848101820151868601604401529381019385935062000343565b906001600160401b038211620002ad57600654926001938481811c91168015620004b6575b83821014620004a057601f811162000466575b5081601f8411600114620003fa5750928293918392600094620003ee575b50501b916000199060031b1c19161760065560ff90565b015192503880620003d7565b919083601f198116600660005284600020946000905b888383106200044b575050501062000431575b505050811b0160065560ff90565b015160001960f88460031b161c1916905538808062000423565b85870151885590960195948501948793509081019062000410565b600660005284601f84600020920160051c820191601f860160051c015b82811062000493575050620003b9565b6000815501859062000483565b634e487b7160e01b600052602260045260246000fd5b90607f1690620003a6565b8051602090818110156200054f5750601f825111620004ee57808251920151908083106200031157501790565b90604051809263305a27a960e01b82528060048301528251908160248401526000935b82851062000535575050604492506000838284010152601f80199101168101030190fd5b848101820151868601604401529381019385935062000511565b906001600160401b038211620002ad57600754926001938481811c911680156200066e575b83821014620004a057601f811162000634575b5081601f8411600114620005c85750928293918392600094620005bc575b50501b916000199060031b1c19161760075560ff90565b015192503880620005a5565b919083601f198116600760005284600020946000905b88838310620006195750505010620005ff575b505050811b0160075560ff90565b015160001960f88460031b161c19169055388080620005f1565b858701518855909601959485019487935090810190620005de565b600760005284601f84600020920160051c820191601f860160051c015b8281106200066157505062000587565b6000815501859062000651565b90607f16906200057456fe6080604052600436101561001257600080fd5b60003560e01c8062fdd58e146101c657806301ffc9a7146101c15780630e89341c146101bc57806318160ddd146101b75780632eb2c2d6146101b25780634e1273f4146101ad5780634f558e79146101a857806356a1c701146101a35780636c8b703f1461019e578063715018a6146101995780637ecebe001461019457806384b0196e1461018f57806385725d211461018a5780638da5cb5b14610185578063a22cb46514610180578063a3f4df7e1461017b578063bcf3ff1114610176578063bd85b03914610171578063caa0f92a1461016c578063e0fd045f14610167578063e985e9c514610162578063f242432a1461015d578063f2fde38b14610158578063f698da2514610153578063f74d54801461014e578063f76fc35e146101495763ffa1ad741461014457600080fd5b6111e1565b6111a6565b61117d565b61115a565b6110cc565b610fae565b610f51565b610f1d565b610eff565b610ed3565b610ea7565b610e59565b610d8e565b610d65565b610a62565b610972565b610938565b6108d7565b61089a565b610743565b610715565b61065a565b6104ec565b610354565b61031d565b61026f565b610210565b600435906001600160a01b03821682036101e157565b600080fd5b602435906001600160a01b03821682036101e157565b35906001600160a01b03821682036101e157565b346101e15760403660031901126101e157602061025461022e6101cb565b6024356000526000835260406000209060018060a01b0316600052602052604060002090565b54604051908152f35b6001600160e01b03198116036101e157565b346101e15760203660031901126101e157602060043561028e8161025d565b63ffffffff60e01b16636cdb3d1360e11b81149081156102cc575b81156102bb575b506040519015158152f35b6301ffc9a760e01b149050386102b0565b6303a24d0760e21b811491506102a9565b919082519283825260005b848110610309575050826000602080949584010152601f8019910116010190565b6020818301810151848301820152016102e8565b346101e15760203660031901126101e15761035061033c600435611223565b6040519182916020835260208301906102dd565b0390f35b346101e15760003660031901126101e1576020600454604051908152f35b634e487b7160e01b600052604160045260246000fd5b6020810190811067ffffffffffffffff8211176103a457604052565b610372565b6040810190811067ffffffffffffffff8211176103a457604052565b60c0810190811067ffffffffffffffff8211176103a457604052565b90601f8019910116810190811067ffffffffffffffff8211176103a457604052565b67ffffffffffffffff81116103a45760051b60200190565b9080601f830112156101e157602090823561043581610403565b9361044360405195866103e1565b81855260208086019260051b8201019283116101e157602001905b82821061046c575050505090565b8135815290830190830161045e565b67ffffffffffffffff81116103a457601f01601f191660200190565b9291926104a38261047b565b916104b160405193846103e1565b8294818452818301116101e1578281602093846000960137010152565b9080601f830112156101e1578160206104e993359101610497565b90565b346101e15760a03660031901126101e1576105056101cb565b61050d6101e6565b906044359167ffffffffffffffff908184116101e1576105326004943690860161041b565b906064358381116101e15761054a903690870161041b565b926084359081116101e15761056290369087016104ce565b936001600160a01b038082169033821415806105f1575b6105c4578316156105ac5715610595576105939550611812565b005b604051626a0d4560e21b8152600081880152602490fd5b604051632bfa23e760e11b8152600081890152602490fd5b6040805163711bec9160e11b815233818b019081526001600160a01b038616602082015290918291010390fd5b50600082815260016020908152604080832033845290915290205460ff1615610579565b90815180825260208080930193019160005b828110610635575050505090565b835185529381019392810192600101610627565b9060206104e9928181520190610615565b346101e15760403660031901126101e15760043567ffffffffffffffff8082116101e157366023830112156101e157816004013561069781610403565b926106a560405194856103e1565b8184526020916024602086019160051b830101913683116101e157602401905b8282106106fe57856024358681116101e157610350916106ec6106f292369060040161041b565b90611385565b60405191829182610649565b83809161070a846101fc565b8152019101906106c5565b346101e15760203660031901126101e157600435600052600360205260206040600020541515604051908152f35b346101e15760203660031901126101e15761075c6101cb565b6107646115b4565b6001600160a01b039081169081156107b857600854826bffffffffffffffffffffffff60a01b821617600855167f4a297cf5d32586f80d2b0708a39d2da1f46e6ae7722171e1c51dfd685b5b8aa8600080a3005b60405163d92e233d60e01b8152600490fd5b90600182811c921680156107fa575b60208310146107e457565b634e487b7160e01b600052602260045260246000fd5b91607f16916107d9565b805460009392610813826107ca565b9182825260209360019160018116908160001461087b575060011461083a575b5050505050565b90939495506000929192528360002092846000945b83861061086757505050500101903880808080610833565b80548587018301529401938590820161084f565b60ff19168685015250505090151560051b010191503880808080610833565b346101e15760203660031901126101e157600435600052600b6020526103506108d061033c604060002060405192838092610804565b03826103e1565b346101e157600080600319360112610935576108f16115b4565b600580546001600160a01b0319811690915581906001600160a01b03167f8be0079c531659141344cd1fd0a4f28419497f9722a3daafe3b4186f6b6457e08280a380f35b80fd5b346101e15760203660031901126101e1576001600160a01b036109596101cb565b16600052600d6020526020604060002054604051908152f35b346101e15760003660031901126101e157610a056109af7f0000000000000000000000000000000000000000000000000000000000000000611944565b6103506109db7f0000000000000000000000000000000000000000000000000000000000000000611a44565b610a136109e6611311565b91604051958695600f60f81b875260e0602088015260e08701906102dd565b9085820360408701526102dd565b90466060850152306080850152600060a085015283820360c0850152610615565b9181601f840112156101e15782359167ffffffffffffffff83116101e157602083818601950101116101e157565b346101e15760c03660031901126101e157600480359067ffffffffffffffff906024358281116101e157610a999036908301610a34565b60443594606435936084359560a4359081116101e157610abc9036908301610a34565b8791974211610d5457336000908152600d602052604090205497610adf89611438565b336000908152600d60205260409020558415948515610ceb579087899a928c896009549d610b0c8f611458565b600955610b9f610bc399610bbd98610b2d610bb598610bad965b3691610497565b60208151910120936040519687956020870199338b93909796959260e095926101008601997f9d62d6045aa71526f072de14f3e04b46b5559d9bec0e1cdeea54ac1e87a14c45875260018060a01b0316602087015260408601526060850152608084015260a083015260c08201520152565b03601f1981018352826103e1565b5190206115e0565b923691610497565b90611606565b6008546001600160a01b03166001600160a01b0390911603610cdc5750908491610c32575b8582610bfd610bf5610e46565b83833361161c565b60405191825233917f1ff0135ee793b1b953ca5ada72cccf5e8eb27f7db5a24d74a6a9a88bcd65c5119080602081015b0390a3005b610cd07faefec2e041966f32cec9fe37133b2fb57a67e4d941371d6093cd290fa98c8c5b91610c8e33610c6f86600052600a602052604060002090565b80546001600160a01b0319166001600160a01b03909216919091179055565b610cac8186610ca787600052600b602052604060002090565b6114bd565b85610cc185600052600c602052604060002090565b5560405191829133968361158c565b0390a438808281610be8565b604051638baa579f60e01b8152fd5b909192819960018060a01b03610d1b610d0e85600052600a602052604060002090565b546001600160a01b031690565b1615610d4357610bbd928c610bad8c610b9f610bc3999896610bb5968f8f90610b2d91610b26565b604051632ce0136b60e01b81528690fd5b604051630819bdcd60e01b81528390fd5b346101e15760003660031901126101e1576005546040516001600160a01b039091168152602090f35b346101e15760403660031901126101e157610da76101cb565b6024358015158082036101e1576001600160a01b038316928315610e2e573360009081526001602090815260408083206001600160a01b039094168352929052209060ff801983541691161790557f17307eab39ab6107e8899845ad3d59bd9653f200f220920489ca2b5937696c3160405180610c2d339482919091602081019215159052565b60405162ced3e160e81b815260006004820152602490fd5b60405190610e5382610388565b60008252565b346101e15760003660031901126101e157610350604051610e79816103a9565b600d81526c047656e6572617469766550465609c1b60208201526040519182916020835260208301906102dd565b346101e15760203660031901126101e157600435600052600c6020526020604060002054604051908152f35b346101e15760203660031901126101e15760043560005260036020526020604060002054604051908152f35b346101e15760003660031901126101e1576020600954604051908152f35b346101e15760203660031901126101e157600435600052600a602052602060018060a01b0360406000205416604051908152f35b346101e15760403660031901126101e157602060ff610fa2610f716101cb565b610f796101e6565b6001600160a01b0391821660009081526001865260408082209290931681526020919091522090565b54166040519015158152f35b346101e15760a03660031901126101e157610fc76101cb565b610fcf6101e6565b60843567ffffffffffffffff81116101e157610fef9036906004016104ce565b906001600160a01b038381169033821415806110a8575b61108157821615611068571561105057610593926110486064356044359160405192600184526020840152604083019160018352606084015260808301604052565b929091611812565b604051626a0d4560e21b815260006004820152602490fd5b604051632bfa23e760e11b815260006004820152602490fd5b60405163711bec9160e11b81523360048201526001600160a01b0386166024820152604490fd5b50600082815260016020908152604080832033845290915290205460ff1615611006565b346101e15760203660031901126101e1576110e56101cb565b6110ed6115b4565b6001600160a01b0390811690811561114157600554826bffffffffffffffffffffffff60a01b821617600555167f8be0079c531659141344cd1fd0a4f28419497f9722a3daafe3b4186f6b6457e0600080a3005b604051631e4fbdf760e01b815260006004820152602490fd5b346101e15760003660031901126101e15760206111756116f8565b604051908152f35b346101e15760003660031901126101e1576008546040516001600160a01b039091168152602090f35b346101e15760003660031901126101e15760206040517f9d62d6045aa71526f072de14f3e04b46b5559d9bec0e1cdeea54ac1e87a14c458152f35b346101e15760003660031901126101e157610350604051611201816103a9565b60018152603160f81b60208201526040519182916020835260208301906102dd565b6000526112436020600b815261124a604060002060405193848092610804565b03836103e1565b815115611255575090565b90506040519081600060025461126a816107ca565b808452906001908181169081156112f15750600114611292575b50506104e9925003826103e1565b9093915060026000527f405787fa12a823e0f2b7631cc41b3ba8828b3321ca811111fa75cd3aa3bb5ace936000915b8183106112d95750506104e993508201013880611284565b855487840185015294850194869450918301916112c1565b9150506104e994925060ff191682840152151560051b8201013880611284565b60405161131d81610388565b60008152906000368137565b9061133382610403565b61134060405191826103e1565b8281528092611351601f1991610403565b0190602036910137565b805182101561136f5760209160051b010190565b634e487b7160e01b600052603260045260246000fd5b9190918051835180820361140057505061139f8151611329565b9060009060005b81518110156113f857806113e660019260051b85602080808489010151938c010151825252604086209060018060a01b0316600052602052604060002090565b546113f1828761135b565b52016113a6565b509193505050565b604051635b05999160e01b815260048101919091526024810191909152604490fd5b634e487b7160e01b600052601160045260246000fd5b906001820180921161144657565b611422565b9190820180921161144657565b60001981146114465760010190565b90601f811161147557505050565b6000916000526020600020906020601f850160051c830194106114b3575b601f0160051c01915b8281106114a857505050565b81815560010161149c565b9092508290611493565b90929167ffffffffffffffff81116103a4576114e3816114dd84546107ca565b84611467565b6000601f8211600114611524578190611515939495600092611519575b50508160011b916000199060031b1c19161790565b9055565b013590503880611500565b601f1982169461153984600052602060002090565b91805b87811061157457508360019596971061155a575b505050811b019055565b0135600019600384901b60f8161c19169055388080611550565b9092602060018192868601358155019401910161153c565b90918060409360208452816020850152848401376000828201840152601f01601f1916010190565b6005546001600160a01b031633036115c857565b60405163118cdaa760e01b8152336004820152602490fd5b6042906115eb6116f8565b906040519161190160f01b8352600283015260228201522090565b6104e99161161391611b04565b90929192611b60565b93916001600160a01b038516156110685761165460405192600184526020840152604083019160018352606084015260808301604052565b9091611661828487611fca565b600094855b84518710156116b4576116ac6001918860051b9061169a602080848a010151938a0101516000526003602052604060002090565b6116a583825461144b565b905561144b565b960195611666565b6116ce9195949296506116c99060045461144b565b600455565b80516001036116ee57906020806116ec959301519101519133611ea9565b565b6116ec9333611caf565b307f00000000000000000000000000000000000000000000000000000000000000006001600160a01b031614806117e9575b15611753577f000000000000000000000000000000000000000000000000000000000000000090565b60405160208101907f8b73c3c69bb8fe3d512ecc4cf759cc79239f7b179b0ffacaa9a75d522b39400f82527f000000000000000000000000000000000000000000000000000000000000000060408201527f000000000000000000000000000000000000000000000000000000000000000060608201524660808201523060a082015260a081526117e3816103c5565b51902090565b507f0000000000000000000000000000000000000000000000000000000000000000461461172a565b91939290611822828683866120fc565b6001600160a01b03838116156118e0575b8116158061187f575b15611848575050505050565b845160010361186e576020806118649601519201519233611ede565b3880808080610833565b61187a94919233611daa565b611864565b94936000939091845b86518610156118c8576001908660051b906118b9602080848a010151938b0101516000526003602052604060002090565b82815403905501950194611888565b6118db9193969792955060045403600455565b61183c565b959192600094916000955b87518710156119275761191f6001918860051b9061169a602080848c010151938d0101516000526003602052604060002090565b9601956118eb565b61193f919396506116c990989295949860045461144b565b611833565b60ff81146119825760ff811690601f82116119705760405191611966836103a9565b8252602082015290565b604051632cd44ac360e21b8152600490fd5b50604051600654816000611995836107ca565b80835292602090600190818116908115611a2057506001146119bf5750506104e9925003826103e1565b91509260066000527ff652222313e28459528d920b65115c16c04f3efc82aaedc97be59f3f377c0d3f936000925b828410611a0857506104e99450505081016020013880611284565b855487850183015294850194869450928101926119ed565b915050602092506104e994915060ff191682840152151560051b8201013880611284565b60ff8114611a665760ff811690601f82116119705760405191611966836103a9565b50604051600754816000611a79836107ca565b80835292602090600190818116908115611a205750600114611aa35750506104e9925003826103e1565b91509260076000527fa66cc928b5edb82af9bd49922954155ab7b0942694bea4ce44661d9a8736c688936000925b828410611aec57506104e99450505081016020013880611284565b85548785018301529485019486945092810192611ad1565b8151919060418303611b3557611b2e92506020820151906060604084015193015160001a90611f15565b9192909190565b505060009160029190565b60041115611b4a57565b634e487b7160e01b600052602160045260246000fd5b611b6981611b40565b80611b72575050565b611b7b81611b40565b60018103611b955760405163f645eedf60e01b8152600490fd5b611b9e81611b40565b60028103611bbf5760405163fce698f760e01b815260048101839052602490fd5b80611bcb600392611b40565b14611bd35750565b6040516335e2f38360e21b81526004810191909152602490fd5b908160209103126101e157516104e98161025d565b92611c316104e99593611c3f9360018060a01b031686526000602087015260a0604087015260a0860190610615565b908482036060860152610615565b9160808184039101526102dd565b93906104e99593611c3191611c3f9460018060a01b03809216885216602087015260a0604087015260a0860190610615565b3d15611caa573d90611c908261047b565b91611c9e60405193846103e1565b82523d6000602084013e565b606090565b9293919093843b611cc1575050505050565b602091611ce4604051948593849363bc197c8160e01b9889865260048601611c02565b038160006001600160a01b0388165af160009181611d79575b50611d3c5782611d0b611c7f565b8051919082611d3557604051632bfa23e760e11b81526001600160a01b0383166004820152602490fd5b6020915001fd5b6001600160e01b03191603611d5657503880808080610833565b604051632bfa23e760e11b81526001600160a01b03919091166004820152602490fd5b611d9c91925060203d602011611da3575b611d9481836103e1565b810190611bed565b9038611cfd565b503d611d8a565b939290949194853b611dbf575b505050505050565b611de2602093604051958694859463bc197c8160e01b998a875260048701611c4d565b038160006001600160a01b0388165af160009181611e24575b50611e095782611d0b611c7f565b6001600160e01b03191603611d565750388080808080611db7565b611e3e91925060203d602011611da357611d9481836103e1565b9038611dfb565b909260a0926104e99594600180861b03168352600060208401526040830152606082015281608082015201906102dd565b91926104e995949160a094600180871b0380921685521660208401526040830152606082015281608082015201906102dd565b9293919093843b611ebb575050505050565b602091611ce4604051948593849363f23a6e6160e01b9889865260048601611e45565b939290949194853b611ef257505050505050565b611de2602093604051958694859463f23a6e6160e01b998a875260048701611e76565b91907f7fffffffffffffffffffffffffffffff5d576e7357a4501ddfe92f46681b20a08411611f9957926020929160ff608095604051948552168484015260408301526060820152600092839182805260015afa15611f8d5780516001600160a01b03811615611f8457918190565b50809160019190565b604051903d90823e3d90fd5b50505060009160039190565b9091611fbc6104e993604084526040840190610615565b916020818403910152610615565b919091825182519081810361140057505060005b835181101561205c57600581901b84810160209081015191850101516001929184906001600160a01b038216612018575b50505001611fde565b6120529161203361204a926000526000602052604060002090565b9060018060a01b0316600052602052604060002090565b91825461144b565b905538838161200f565b509160018151146000146120bd576020908101519181015160408051938452918301526001600160a01b039092169160009133917fc3d58168c5ae7397731d063d5bbf3d657854427343f4c083240f7aacaa2d0f629190819081015b0390a4565b7f4a39dc06d4c0dbc64b70af90fd698a233a518aa5d07e595d983b8c0526c8f7fb6120b86000939460405191829160018060a01b031696339583611fa5565b939291805183519081810361140057505060005b81518110156121fe57600581901b82810160209081015191860101516001600160a01b0392918590898516612178575b6001948216612153575b50505001612110565b61216e9161203361204a926000526000602052604060002090565b905538848161214a565b919293905061219589612033846000526000602052604060002090565b548381106121c757918691846001969594036121bf8c612033856000526000602052604060002090565b559450612140565b6040516303dee4c560e01b81526001600160a01b038b16600482015260248101919091526044810184905260648101839052608490fd5b508051939493919291600103612260576020908101519181015160408051938452918301526001600160a01b03928316939092169133917fc3d58168c5ae7397731d063d5bbf3d657854427343f4c083240f7aacaa2d0f6291819081016120b8565b6040516001600160a01b03938416949093169233927f4a39dc06d4c0dbc64b70af90fd698a233a518aa5d07e595d983b8c0526c8f7fb9282916120b89183611fa556fea2646970667358221220f13d2872a16e81497f4e01004c2ec73f8e8129c88895fe725248bdacb3df330164736f6c63430008180033",
  "linkReferences": {},
  "deployedLinkReferences": {}
}